{
	"BasicDAO.sol": {
		"BasicDAO": {
			"abi": [
				{
					"inputs": [
						{
							"internalType": "uint256",
							"name": "_membershipFee",
							"type": "uint256"
						}
					],
					"stateMutability": "nonpayable",
					"type": "constructor"
				},
				{
					"anonymous": false,
					"inputs": [
						{
							"indexed": false,
							"internalType": "address",
							"name": "member",
							"type": "address"
						}
					],
					"name": "Joined",
					"type": "event"
				},
				{
					"anonymous": false,
					"inputs": [
						{
							"indexed": false,
							"internalType": "uint256",
							"name": "proposalId",
							"type": "uint256"
						},
						{
							"indexed": false,
							"internalType": "string",
							"name": "description",
							"type": "string"
						},
						{
							"indexed": false,
							"internalType": "uint256",
							"name": "deadline",
							"type": "uint256"
						}
					],
					"name": "ProposalCreated",
					"type": "event"
				},
				{
					"anonymous": false,
					"inputs": [
						{
							"indexed": false,
							"internalType": "uint256",
							"name": "proposalId",
							"type": "uint256"
						},
						{
							"indexed": false,
							"internalType": "bool",
							"name": "passed",
							"type": "bool"
						}
					],
					"name": "ProposalExecuted",
					"type": "event"
				},
				{
					"anonymous": false,
					"inputs": [
						{
							"indexed": false,
							"internalType": "uint256",
							"name": "proposalId",
							"type": "uint256"
						},
						{
							"indexed": false,
							"internalType": "address",
							"name": "voter",
							"type": "address"
						},
						{
							"indexed": false,
							"internalType": "bool",
							"name": "vote",
							"type": "bool"
						}
					],
					"name": "Voted",
					"type": "event"
				},
				{
					"inputs": [
						{
							"internalType": "string",
							"name": "_description",
							"type": "string"
						},
						{
							"internalType": "uint256",
							"name": "_duration",
							"type": "uint256"
						}
					],
					"name": "createProposal",
					"outputs": [],
					"stateMutability": "nonpayable",
					"type": "function"
				},
				{
					"inputs": [
						{
							"internalType": "uint256",
							"name": "_proposalId",
							"type": "uint256"
						}
					],
					"name": "executeProposal",
					"outputs": [],
					"stateMutability": "nonpayable",
					"type": "function"
				},
				{
					"inputs": [],
					"name": "join",
					"outputs": [],
					"stateMutability": "payable",
					"type": "function"
				},
				{
					"inputs": [
						{
							"internalType": "address",
							"name": "",
							"type": "address"
						}
					],
					"name": "members",
					"outputs": [
						{
							"internalType": "bool",
							"name": "",
							"type": "bool"
						}
					],
					"stateMutability": "view",
					"type": "function"
				},
				{
					"inputs": [],
					"name": "membershipFee",
					"outputs": [
						{
							"internalType": "uint256",
							"name": "",
							"type": "uint256"
						}
					],
					"stateMutability": "view",
					"type": "function"
				},
				{
					"inputs": [],
					"name": "owner",
					"outputs": [
						{
							"internalType": "address",
							"name": "",
							"type": "address"
						}
					],
					"stateMutability": "view",
					"type": "function"
				},
				{
					"inputs": [
						{
							"internalType": "uint256",
							"name": "",
							"type": "uint256"
						}
					],
					"name": "proposals",
					"outputs": [
						{
							"internalType": "string",
							"name": "description",
							"type": "string"
						},
						{
							"internalType": "uint256",
							"name": "deadline",
							"type": "uint256"
						},
						{
							"internalType": "uint256",
							"name": "yesVotes",
							"type": "uint256"
						},
						{
							"internalType": "uint256",
							"name": "noVotes",
							"type": "uint256"
						},
						{
							"internalType": "bool",
							"name": "executed",
							"type": "bool"
						}
					],
					"stateMutability": "view",
					"type": "function"
				},
				{
					"inputs": [
						{
							"internalType": "uint256",
							"name": "_proposalId",
							"type": "uint256"
						},
						{
							"internalType": "bool",
							"name": "_vote",
							"type": "bool"
						}
					],
					"name": "vote",
					"outputs": [],
					"stateMutability": "nonpayable",
					"type": "function"
				},
				{
					"inputs": [
						{
							"internalType": "address",
							"name": "",
							"type": "address"
						},
						{
							"internalType": "uint256",
							"name": "",
							"type": "uint256"
						}
					],
					"name": "votes",
					"outputs": [
						{
							"internalType": "bool",
							"name": "",
							"type": "bool"
						}
					],
					"stateMutability": "view",
					"type": "function"
				}
			],
			"devdoc": {
				"kind": "dev",
				"methods": {},
				"version": 1
			},
			"evm": {
				"assembly": "    /* \"BasicDAO.sol\":60:2566  contract BasicDAO {... */\n  mstore(0x40, 0x80)\n    /* \"BasicDAO.sol\":812:926  constructor(uint256 _membershipFee) {... */\n  callvalue\n  dup1\n  iszero\n  tag_1\n  jumpi\n  0x00\n  dup1\n  revert\ntag_1:\n  pop\n  mload(0x40)\n  sub(codesize, bytecodeSize)\n  dup1\n  bytecodeSize\n  dup4\n  codecopy\n  dup2\n  dup2\n  add\n  0x40\n  mstore\n  dup2\n  add\n  swap1\n  tag_2\n  swap2\n  swap1\n  tag_3\n  jump\t// in\ntag_2:\n    /* \"BasicDAO.sol\":867:877  msg.sender */\n  caller\n    /* \"BasicDAO.sol\":859:864  owner */\n  0x00\n  dup1\n    /* \"BasicDAO.sol\":859:877  owner = msg.sender */\n  0x0100\n  exp\n  dup2\n  sload\n  dup2\n  0xffffffffffffffffffffffffffffffffffffffff\n  mul\n  not\n  and\n  swap1\n  dup4\n  0xffffffffffffffffffffffffffffffffffffffff\n  and\n  mul\n  or\n  swap1\n  sstore\n  pop\n    /* \"BasicDAO.sol\":904:918  _membershipFee */\n  dup1\n    /* \"BasicDAO.sol\":888:901  membershipFee */\n  0x01\n    /* \"BasicDAO.sol\":888:918  membershipFee = _membershipFee */\n  dup2\n  swap1\n  sstore\n  pop\n    /* \"BasicDAO.sol\":812:926  constructor(uint256 _membershipFee) {... */\n  pop\n    /* \"BasicDAO.sol\":60:2566  contract BasicDAO {... */\n  jump(tag_6)\n    /* \"#utility.yul\":88:205   */\ntag_8:\n    /* \"#utility.yul\":197:198   */\n  0x00\n    /* \"#utility.yul\":194:195   */\n  dup1\n    /* \"#utility.yul\":187:199   */\n  revert\n    /* \"#utility.yul\":334:411   */\ntag_10:\n    /* \"#utility.yul\":371:378   */\n  0x00\n    /* \"#utility.yul\":400:405   */\n  dup2\n    /* \"#utility.yul\":389:405   */\n  swap1\n  pop\n    /* \"#utility.yul\":334:411   */\n  swap2\n  swap1\n  pop\n  jump\t// out\n    /* \"#utility.yul\":417:539   */\ntag_11:\n    /* \"#utility.yul\":490:514   */\n  tag_19\n    /* \"#utility.yul\":508:513   */\n  dup2\n    /* \"#utility.yul\":490:514   */\n  tag_10\n  jump\t// in\ntag_19:\n    /* \"#utility.yul\":483:488   */\n  dup2\n    /* \"#utility.yul\":480:515   */\n  eq\n    /* \"#utility.yul\":470:533   */\n  tag_20\n  jumpi\n    /* \"#utility.yul\":529:530   */\n  0x00\n    /* \"#utility.yul\":526:527   */\n  dup1\n    /* \"#utility.yul\":519:531   */\n  revert\n    /* \"#utility.yul\":470:533   */\ntag_20:\n    /* \"#utility.yul\":417:539   */\n  pop\n  jump\t// out\n    /* \"#utility.yul\":545:688   */\ntag_12:\n    /* \"#utility.yul\":602:607   */\n  0x00\n    /* \"#utility.yul\":633:639   */\n  dup2\n    /* \"#utility.yul\":627:640   */\n  mload\n    /* \"#utility.yul\":618:640   */\n  swap1\n  pop\n    /* \"#utility.yul\":649:682   */\n  tag_22\n    /* \"#utility.yul\":676:681   */\n  dup2\n    /* \"#utility.yul\":649:682   */\n  tag_11\n  jump\t// in\ntag_22:\n    /* \"#utility.yul\":545:688   */\n  swap3\n  swap2\n  pop\n  pop\n  jump\t// out\n    /* \"#utility.yul\":694:1045   */\ntag_3:\n    /* \"#utility.yul\":764:770   */\n  0x00\n    /* \"#utility.yul\":813:815   */\n  0x20\n    /* \"#utility.yul\":801:810   */\n  dup3\n    /* \"#utility.yul\":792:799   */\n  dup5\n    /* \"#utility.yul\":788:811   */\n  sub\n    /* \"#utility.yul\":784:816   */\n  slt\n    /* \"#utility.yul\":781:900   */\n  iszero\n  tag_24\n  jumpi\n    /* \"#utility.yul\":819:898   */\n  tag_25\n  tag_8\n  jump\t// in\ntag_25:\n    /* \"#utility.yul\":781:900   */\ntag_24:\n    /* \"#utility.yul\":939:940   */\n  0x00\n    /* \"#utility.yul\":964:1028   */\n  tag_26\n    /* \"#utility.yul\":1020:1027   */\n  dup5\n    /* \"#utility.yul\":1011:1017   */\n  dup3\n    /* \"#utility.yul\":1000:1009   */\n  dup6\n    /* \"#utility.yul\":996:1018   */\n  add\n    /* \"#utility.yul\":964:1028   */\n  tag_12\n  jump\t// in\ntag_26:\n    /* \"#utility.yul\":954:1028   */\n  swap2\n  pop\n    /* \"#utility.yul\":910:1038   */\n  pop\n    /* \"#utility.yul\":694:1045   */\n  swap3\n  swap2\n  pop\n  pop\n  jump\t// out\n    /* \"BasicDAO.sol\":60:2566  contract BasicDAO {... */\ntag_6:\n  dataSize(sub_0)\n  dup1\n  dataOffset(sub_0)\n  0x00\n  codecopy\n  0x00\n  return\nstop\n\nsub_0: assembly {\n        /* \"BasicDAO.sol\":60:2566  contract BasicDAO {... */\n      mstore(0x40, 0x80)\n      jumpi(tag_1, lt(calldatasize, 0x04))\n      shr(0xe0, calldataload(0x00))\n      dup1\n      0x8da5cb5b\n      gt\n      tag_11\n      jumpi\n      dup1\n      0x8da5cb5b\n      eq\n      tag_6\n      jumpi\n      dup1\n      0x9f2524ee\n      eq\n      tag_7\n      jumpi\n      dup1\n      0xb688a363\n      eq\n      tag_8\n      jumpi\n      dup1\n      0xc713a289\n      eq\n      tag_9\n      jumpi\n      dup1\n      0xc9d27afe\n      eq\n      tag_10\n      jumpi\n      jump(tag_1)\n    tag_11:\n      dup1\n      0x013cf08b\n      eq\n      tag_2\n      jumpi\n      dup1\n      0x08ae4b0c\n      eq\n      tag_3\n      jumpi\n      dup1\n      0x0d61b519\n      eq\n      tag_4\n      jumpi\n      dup1\n      0x35facf78\n      eq\n      tag_5\n      jumpi\n    tag_1:\n      0x00\n      dup1\n      revert\n        /* \"BasicDAO.sol\":358:385  Proposal[] public proposals */\n    tag_2:\n      callvalue\n      dup1\n      iszero\n      tag_12\n      jumpi\n      0x00\n      dup1\n      revert\n    tag_12:\n      pop\n      tag_13\n      0x04\n      dup1\n      calldatasize\n      sub\n      dup2\n      add\n      swap1\n      tag_14\n      swap2\n      swap1\n      tag_15\n      jump\t// in\n    tag_14:\n      tag_16\n      jump\t// in\n    tag_13:\n      mload(0x40)\n      tag_17\n      swap6\n      swap5\n      swap4\n      swap3\n      swap2\n      swap1\n      tag_18\n      jump\t// in\n    tag_17:\n      mload(0x40)\n      dup1\n      swap2\n      sub\n      swap1\n      return\n        /* \"BasicDAO.sol\":312:351  mapping(address => bool) public members */\n    tag_3:\n      callvalue\n      dup1\n      iszero\n      tag_19\n      jumpi\n      0x00\n      dup1\n      revert\n    tag_19:\n      pop\n      tag_20\n      0x04\n      dup1\n      calldatasize\n      sub\n      dup2\n      add\n      swap1\n      tag_21\n      swap2\n      swap1\n      tag_22\n      jump\t// in\n    tag_21:\n      tag_23\n      jump\t// in\n    tag_20:\n      mload(0x40)\n      tag_24\n      swap2\n      swap1\n      tag_25\n      jump\t// in\n    tag_24:\n      mload(0x40)\n      dup1\n      swap2\n      sub\n      swap1\n      return\n        /* \"BasicDAO.sol\":2128:2563  function executeProposal(uint256 _proposalId) external onlyMember {... */\n    tag_4:\n      callvalue\n      dup1\n      iszero\n      tag_26\n      jumpi\n      0x00\n      dup1\n      revert\n    tag_26:\n      pop\n      tag_27\n      0x04\n      dup1\n      calldatasize\n      sub\n      dup2\n      add\n      swap1\n      tag_28\n      swap2\n      swap1\n      tag_15\n      jump\t// in\n    tag_28:\n      tag_29\n      jump\t// in\n    tag_27:\n      stop\n        /* \"BasicDAO.sol\":1188:1606  function createProposal(string calldata _description, uint256 _duration) external onlyMember {... */\n    tag_5:\n      callvalue\n      dup1\n      iszero\n      tag_30\n      jumpi\n      0x00\n      dup1\n      revert\n    tag_30:\n      pop\n      tag_31\n      0x04\n      dup1\n      calldatasize\n      sub\n      dup2\n      add\n      swap1\n      tag_32\n      swap2\n      swap1\n      tag_33\n      jump\t// in\n    tag_32:\n      tag_34\n      jump\t// in\n    tag_31:\n      stop\n        /* \"BasicDAO.sol\":250:270  address public owner */\n    tag_6:\n      callvalue\n      dup1\n      iszero\n      tag_35\n      jumpi\n      0x00\n      dup1\n      revert\n    tag_35:\n      pop\n      tag_36\n      tag_37\n      jump\t// in\n    tag_36:\n      mload(0x40)\n      tag_38\n      swap2\n      swap1\n      tag_39\n      jump\t// in\n    tag_38:\n      mload(0x40)\n      dup1\n      swap2\n      sub\n      swap1\n      return\n        /* \"BasicDAO.sol\":392:449  mapping(address => mapping(uint256 => bool)) public votes */\n    tag_7:\n      callvalue\n      dup1\n      iszero\n      tag_40\n      jumpi\n      0x00\n      dup1\n      revert\n    tag_40:\n      pop\n      tag_41\n      0x04\n      dup1\n      calldatasize\n      sub\n      dup2\n      add\n      swap1\n      tag_42\n      swap2\n      swap1\n      tag_43\n      jump\t// in\n    tag_42:\n      tag_44\n      jump\t// in\n    tag_41:\n      mload(0x40)\n      tag_45\n      swap2\n      swap1\n      tag_25\n      jump\t// in\n    tag_45:\n      mload(0x40)\n      dup1\n      swap2\n      sub\n      swap1\n      return\n        /* \"BasicDAO.sol\":934:1180  function join() external payable {... */\n    tag_8:\n      tag_46\n      tag_47\n      jump\t// in\n    tag_46:\n      stop\n        /* \"BasicDAO.sol\":277:305  uint256 public membershipFee */\n    tag_9:\n      callvalue\n      dup1\n      iszero\n      tag_48\n      jumpi\n      0x00\n      dup1\n      revert\n    tag_48:\n      pop\n      tag_49\n      tag_50\n      jump\t// in\n    tag_49:\n      mload(0x40)\n      tag_51\n      swap2\n      swap1\n      tag_52\n      jump\t// in\n    tag_51:\n      mload(0x40)\n      dup1\n      swap2\n      sub\n      swap1\n      return\n        /* \"BasicDAO.sol\":1614:2120  function vote(uint256 _proposalId, bool _vote) external onlyMember {... */\n    tag_10:\n      callvalue\n      dup1\n      iszero\n      tag_53\n      jumpi\n      0x00\n      dup1\n      revert\n    tag_53:\n      pop\n      tag_54\n      0x04\n      dup1\n      calldatasize\n      sub\n      dup2\n      add\n      swap1\n      tag_55\n      swap2\n      swap1\n      tag_56\n      jump\t// in\n    tag_55:\n      tag_57\n      jump\t// in\n    tag_54:\n      stop\n        /* \"BasicDAO.sol\":358:385  Proposal[] public proposals */\n    tag_16:\n      0x03\n      dup2\n      dup2\n      sload\n      dup2\n      lt\n      tag_58\n      jumpi\n      0x00\n      dup1\n      revert\n    tag_58:\n      swap1\n      0x00\n      mstore\n      keccak256(0x00, 0x20)\n      swap1\n      0x05\n      mul\n      add\n      0x00\n      swap2\n      pop\n      swap1\n      pop\n      dup1\n      0x00\n      add\n      dup1\n      sload\n      tag_60\n      swap1\n      tag_61\n      jump\t// in\n    tag_60:\n      dup1\n      0x1f\n      add\n      0x20\n      dup1\n      swap2\n      div\n      mul\n      0x20\n      add\n      mload(0x40)\n      swap1\n      dup2\n      add\n      0x40\n      mstore\n      dup1\n      swap3\n      swap2\n      swap1\n      dup2\n      dup2\n      mstore\n      0x20\n      add\n      dup3\n      dup1\n      sload\n      tag_62\n      swap1\n      tag_61\n      jump\t// in\n    tag_62:\n      dup1\n      iszero\n      tag_63\n      jumpi\n      dup1\n      0x1f\n      lt\n      tag_64\n      jumpi\n      0x0100\n      dup1\n      dup4\n      sload\n      div\n      mul\n      dup4\n      mstore\n      swap2\n      0x20\n      add\n      swap2\n      jump(tag_63)\n    tag_64:\n      dup3\n      add\n      swap2\n      swap1\n      0x00\n      mstore\n      keccak256(0x00, 0x20)\n      swap1\n    tag_65:\n      dup2\n      sload\n      dup2\n      mstore\n      swap1\n      0x01\n      add\n      swap1\n      0x20\n      add\n      dup1\n      dup4\n      gt\n      tag_65\n      jumpi\n      dup3\n      swap1\n      sub\n      0x1f\n      and\n      dup3\n      add\n      swap2\n    tag_63:\n      pop\n      pop\n      pop\n      pop\n      pop\n      swap1\n      dup1\n      0x01\n      add\n      sload\n      swap1\n      dup1\n      0x02\n      add\n      sload\n      swap1\n      dup1\n      0x03\n      add\n      sload\n      swap1\n      dup1\n      0x04\n      add\n      0x00\n      swap1\n      sload\n      swap1\n      0x0100\n      exp\n      swap1\n      div\n      0xff\n      and\n      swap1\n      pop\n      dup6\n      jump\t// out\n        /* \"BasicDAO.sol\":312:351  mapping(address => bool) public members */\n    tag_23:\n      mstore(0x20, 0x02)\n      dup1\n      0x00\n      mstore\n      keccak256(0x00, 0x40)\n      0x00\n      swap2\n      pop\n      sload\n      swap1\n      0x0100\n      exp\n      swap1\n      div\n      0xff\n      and\n      dup2\n      jump\t// out\n        /* \"BasicDAO.sol\":2128:2563  function executeProposal(uint256 _proposalId) external onlyMember {... */\n    tag_29:\n        /* \"BasicDAO.sol\":748:755  members */\n      0x02\n        /* \"BasicDAO.sol\":748:767  members[msg.sender] */\n      0x00\n        /* \"BasicDAO.sol\":756:766  msg.sender */\n      caller\n        /* \"BasicDAO.sol\":748:767  members[msg.sender] */\n      0xffffffffffffffffffffffffffffffffffffffff\n      and\n      0xffffffffffffffffffffffffffffffffffffffff\n      and\n      dup2\n      mstore\n      0x20\n      add\n      swap1\n      dup2\n      mstore\n      0x20\n      add\n      0x00\n      keccak256\n      0x00\n      swap1\n      sload\n      swap1\n      0x0100\n      exp\n      swap1\n      div\n      0xff\n      and\n        /* \"BasicDAO.sol\":740:784  require(members[msg.sender], \"Not a member\") */\n      tag_67\n      jumpi\n      mload(0x40)\n      0x08c379a000000000000000000000000000000000000000000000000000000000\n      dup2\n      mstore\n      0x04\n      add\n      tag_68\n      swap1\n      tag_69\n      jump\t// in\n    tag_68:\n      mload(0x40)\n      dup1\n      swap2\n      sub\n      swap1\n      revert\n    tag_67:\n        /* \"BasicDAO.sol\":2205:2230  Proposal storage proposal */\n      0x00\n        /* \"BasicDAO.sol\":2233:2242  proposals */\n      0x03\n        /* \"BasicDAO.sol\":2243:2254  _proposalId */\n      dup3\n        /* \"BasicDAO.sol\":2233:2255  proposals[_proposalId] */\n      dup2\n      sload\n      dup2\n      lt\n      tag_71\n      jumpi\n      tag_72\n      tag_73\n      jump\t// in\n    tag_72:\n    tag_71:\n      swap1\n      0x00\n      mstore\n      keccak256(0x00, 0x20)\n      swap1\n      0x05\n      mul\n      add\n        /* \"BasicDAO.sol\":2205:2255  Proposal storage proposal = proposals[_proposalId] */\n      swap1\n      pop\n        /* \"BasicDAO.sol\":2293:2301  proposal */\n      dup1\n        /* \"BasicDAO.sol\":2293:2310  proposal.deadline */\n      0x01\n      add\n      sload\n        /* \"BasicDAO.sol\":2274:2289  block.timestamp */\n      timestamp\n        /* \"BasicDAO.sol\":2274:2310  block.timestamp >= proposal.deadline */\n      lt\n      iszero\n        /* \"BasicDAO.sol\":2266:2337  require(block.timestamp >= proposal.deadline, \"Voting period not over\") */\n      tag_75\n      jumpi\n      mload(0x40)\n      0x08c379a000000000000000000000000000000000000000000000000000000000\n      dup2\n      mstore\n      0x04\n      add\n      tag_76\n      swap1\n      tag_77\n      jump\t// in\n    tag_76:\n      mload(0x40)\n      dup1\n      swap2\n      sub\n      swap1\n      revert\n    tag_75:\n        /* \"BasicDAO.sol\":2357:2365  proposal */\n      dup1\n        /* \"BasicDAO.sol\":2357:2374  proposal.executed */\n      0x04\n      add\n      0x00\n      swap1\n      sload\n      swap1\n      0x0100\n      exp\n      swap1\n      div\n      0xff\n      and\n        /* \"BasicDAO.sol\":2356:2374  !proposal.executed */\n      iszero\n        /* \"BasicDAO.sol\":2348:2404  require(!proposal.executed, \"Proposal already executed\") */\n      tag_78\n      jumpi\n      mload(0x40)\n      0x08c379a000000000000000000000000000000000000000000000000000000000\n      dup2\n      mstore\n      0x04\n      add\n      tag_79\n      swap1\n      tag_80\n      jump\t// in\n    tag_79:\n      mload(0x40)\n      dup1\n      swap2\n      sub\n      swap1\n      revert\n    tag_78:\n        /* \"BasicDAO.sol\":2437:2441  true */\n      0x01\n        /* \"BasicDAO.sol\":2417:2425  proposal */\n      dup2\n        /* \"BasicDAO.sol\":2417:2434  proposal.executed */\n      0x04\n      add\n      0x00\n        /* \"BasicDAO.sol\":2417:2441  proposal.executed = true */\n      0x0100\n      exp\n      dup2\n      sload\n      dup2\n      0xff\n      mul\n      not\n      and\n      swap1\n      dup4\n      iszero\n      iszero\n      mul\n      or\n      swap1\n      sstore\n      pop\n        /* \"BasicDAO.sol\":2452:2463  bool passed */\n      0x00\n        /* \"BasicDAO.sol\":2486:2494  proposal */\n      dup2\n        /* \"BasicDAO.sol\":2486:2502  proposal.noVotes */\n      0x03\n      add\n      sload\n        /* \"BasicDAO.sol\":2466:2474  proposal */\n      dup3\n        /* \"BasicDAO.sol\":2466:2483  proposal.yesVotes */\n      0x02\n      add\n      sload\n        /* \"BasicDAO.sol\":2466:2502  proposal.yesVotes > proposal.noVotes */\n      gt\n        /* \"BasicDAO.sol\":2452:2502  bool passed = proposal.yesVotes > proposal.noVotes */\n      swap1\n      pop\n        /* \"BasicDAO.sol\":2518:2555  ProposalExecuted(_proposalId, passed) */\n      0x948f4a9cd986f1118c3fbd459f7a22b23c0693e1ca3ef06a6a8be5aa7d39cc03\n        /* \"BasicDAO.sol\":2535:2546  _proposalId */\n      dup4\n        /* \"BasicDAO.sol\":2548:2554  passed */\n      dup3\n        /* \"BasicDAO.sol\":2518:2555  ProposalExecuted(_proposalId, passed) */\n      mload(0x40)\n      tag_81\n      swap3\n      swap2\n      swap1\n      tag_82\n      jump\t// in\n    tag_81:\n      mload(0x40)\n      dup1\n      swap2\n      sub\n      swap1\n      log1\n        /* \"BasicDAO.sol\":2194:2563  {... */\n      pop\n      pop\n        /* \"BasicDAO.sol\":2128:2563  function executeProposal(uint256 _proposalId) external onlyMember {... */\n      pop\n      jump\t// out\n        /* \"BasicDAO.sol\":1188:1606  function createProposal(string calldata _description, uint256 _duration) external onlyMember {... */\n    tag_34:\n        /* \"BasicDAO.sol\":748:755  members */\n      0x02\n        /* \"BasicDAO.sol\":748:767  members[msg.sender] */\n      0x00\n        /* \"BasicDAO.sol\":756:766  msg.sender */\n      caller\n        /* \"BasicDAO.sol\":748:767  members[msg.sender] */\n      0xffffffffffffffffffffffffffffffffffffffff\n      and\n      0xffffffffffffffffffffffffffffffffffffffff\n      and\n      dup2\n      mstore\n      0x20\n      add\n      swap1\n      dup2\n      mstore\n      0x20\n      add\n      0x00\n      keccak256\n      0x00\n      swap1\n      sload\n      swap1\n      0x0100\n      exp\n      swap1\n      div\n      0xff\n      and\n        /* \"BasicDAO.sol\":740:784  require(members[msg.sender], \"Not a member\") */\n      tag_84\n      jumpi\n      mload(0x40)\n      0x08c379a000000000000000000000000000000000000000000000000000000000\n      dup2\n      mstore\n      0x04\n      add\n      tag_85\n      swap1\n      tag_69\n      jump\t// in\n    tag_85:\n      mload(0x40)\n      dup1\n      swap2\n      sub\n      swap1\n      revert\n    tag_84:\n        /* \"BasicDAO.sol\":1292:1301  proposals */\n      0x03\n        /* \"BasicDAO.sol\":1307:1501  Proposal({... */\n      mload(0x40)\n      dup1\n      0xa0\n      add\n      0x40\n      mstore\n      dup1\n        /* \"BasicDAO.sol\":1344:1356  _description */\n      dup6\n      dup6\n        /* \"BasicDAO.sol\":1307:1501  Proposal({... */\n      dup1\n      dup1\n      0x1f\n      add\n      0x20\n      dup1\n      swap2\n      div\n      mul\n      0x20\n      add\n      mload(0x40)\n      swap1\n      dup2\n      add\n      0x40\n      mstore\n      dup1\n      swap4\n      swap3\n      swap2\n      swap1\n      dup2\n      dup2\n      mstore\n      0x20\n      add\n      dup4\n      dup4\n      dup1\n      dup3\n      dup5\n      calldatacopy\n      0x00\n      dup2\n      dup5\n      add\n      mstore\n      not(0x1f)\n      0x1f\n      dup3\n      add\n      and\n      swap1\n      pop\n      dup1\n      dup4\n      add\n      swap3\n      pop\n      pop\n      pop\n      pop\n      pop\n      pop\n      pop\n      dup2\n      mstore\n      0x20\n      add\n        /* \"BasicDAO.sol\":1399:1408  _duration */\n      dup4\n        /* \"BasicDAO.sol\":1381:1396  block.timestamp */\n      timestamp\n        /* \"BasicDAO.sol\":1381:1408  block.timestamp + _duration */\n      tag_87\n      swap2\n      swap1\n      tag_88\n      jump\t// in\n    tag_87:\n        /* \"BasicDAO.sol\":1307:1501  Proposal({... */\n      dup2\n      mstore\n      0x20\n      add\n        /* \"BasicDAO.sol\":1433:1434  0 */\n      0x00\n        /* \"BasicDAO.sol\":1307:1501  Proposal({... */\n      dup2\n      mstore\n      0x20\n      add\n        /* \"BasicDAO.sol\":1458:1459  0 */\n      0x00\n        /* \"BasicDAO.sol\":1307:1501  Proposal({... */\n      dup2\n      mstore\n      0x20\n      add\n        /* \"BasicDAO.sol\":1484:1489  false */\n      0x00\n        /* \"BasicDAO.sol\":1307:1501  Proposal({... */\n      iszero\n      iszero\n      dup2\n      mstore\n      pop\n        /* \"BasicDAO.sol\":1292:1502  proposals.push(Proposal({... */\n      swap1\n      dup1\n      0x01\n      dup2\n      sload\n      add\n      dup1\n      dup3\n      sstore\n      dup1\n      swap2\n      pop\n      pop\n      0x01\n      swap1\n      sub\n      swap1\n      0x00\n      mstore\n      keccak256(0x00, 0x20)\n      swap1\n      0x05\n      mul\n      add\n      0x00\n      swap1\n      swap2\n      swap1\n      swap2\n      swap1\n      swap2\n      pop\n      0x00\n      dup3\n      add\n      mload\n      dup2\n      0x00\n      add\n      swap1\n      dup2\n      tag_90\n      swap2\n      swap1\n      tag_91\n      jump\t// in\n    tag_90:\n      pop\n      0x20\n      dup3\n      add\n      mload\n      dup2\n      0x01\n      add\n      sstore\n      0x40\n      dup3\n      add\n      mload\n      dup2\n      0x02\n      add\n      sstore\n      0x60\n      dup3\n      add\n      mload\n      dup2\n      0x03\n      add\n      sstore\n      0x80\n      dup3\n      add\n      mload\n      dup2\n      0x04\n      add\n      exp(0x0100, 0x00)\n      dup2\n      sload\n      dup2\n      0xff\n      mul\n      not\n      and\n      swap1\n      dup4\n      iszero\n      iszero\n      mul\n      or\n      swap1\n      sstore\n      pop\n      pop\n      pop\n        /* \"BasicDAO.sol\":1518:1598  ProposalCreated(proposals.length - 1, _description, block.timestamp + _duration) */\n      0xf5dc0da9afa6d080780a49fd8c680f03d2ddf3c067cd6d0c85360c096644d2d3\n        /* \"BasicDAO.sol\":1553:1554  1 */\n      0x01\n        /* \"BasicDAO.sol\":1534:1543  proposals */\n      0x03\n        /* \"BasicDAO.sol\":1534:1550  proposals.length */\n      dup1\n      sload\n      swap1\n      pop\n        /* \"BasicDAO.sol\":1534:1554  proposals.length - 1 */\n      tag_92\n      swap2\n      swap1\n      tag_93\n      jump\t// in\n    tag_92:\n        /* \"BasicDAO.sol\":1556:1568  _description */\n      dup5\n      dup5\n        /* \"BasicDAO.sol\":1588:1597  _duration */\n      dup5\n        /* \"BasicDAO.sol\":1570:1585  block.timestamp */\n      timestamp\n        /* \"BasicDAO.sol\":1570:1597  block.timestamp + _duration */\n      tag_94\n      swap2\n      swap1\n      tag_88\n      jump\t// in\n    tag_94:\n        /* \"BasicDAO.sol\":1518:1598  ProposalCreated(proposals.length - 1, _description, block.timestamp + _duration) */\n      mload(0x40)\n      tag_95\n      swap5\n      swap4\n      swap3\n      swap2\n      swap1\n      tag_96\n      jump\t// in\n    tag_95:\n      mload(0x40)\n      dup1\n      swap2\n      sub\n      swap1\n      log1\n        /* \"BasicDAO.sol\":1188:1606  function createProposal(string calldata _description, uint256 _duration) external onlyMember {... */\n      pop\n      pop\n      pop\n      jump\t// out\n        /* \"BasicDAO.sol\":250:270  address public owner */\n    tag_37:\n      0x00\n      dup1\n      sload\n      swap1\n      0x0100\n      exp\n      swap1\n      div\n      0xffffffffffffffffffffffffffffffffffffffff\n      and\n      dup2\n      jump\t// out\n        /* \"BasicDAO.sol\":392:449  mapping(address => mapping(uint256 => bool)) public votes */\n    tag_44:\n      mstore(0x20, 0x04)\n      dup2\n      0x00\n      mstore\n      mstore(0x20, keccak256(0x00, 0x40))\n      dup1\n      0x00\n      mstore\n      keccak256(0x00, 0x40)\n      0x00\n      swap2\n      pop\n      swap2\n      pop\n      swap1\n      sload\n      swap1\n      0x0100\n      exp\n      swap1\n      div\n      0xff\n      and\n      dup2\n      jump\t// out\n        /* \"BasicDAO.sol\":934:1180  function join() external payable {... */\n    tag_47:\n        /* \"BasicDAO.sol\":999:1012  membershipFee */\n      sload(0x01)\n        /* \"BasicDAO.sol\":986:995  msg.value */\n      callvalue\n        /* \"BasicDAO.sol\":986:1012  msg.value == membershipFee */\n      eq\n        /* \"BasicDAO.sol\":978:1041  require(msg.value == membershipFee, \"Incorrect membership fee\") */\n      tag_98\n      jumpi\n      mload(0x40)\n      0x08c379a000000000000000000000000000000000000000000000000000000000\n      dup2\n      mstore\n      0x04\n      add\n      tag_99\n      swap1\n      tag_100\n      jump\t// in\n    tag_99:\n      mload(0x40)\n      dup1\n      swap2\n      sub\n      swap1\n      revert\n    tag_98:\n        /* \"BasicDAO.sol\":1061:1068  members */\n      0x02\n        /* \"BasicDAO.sol\":1061:1080  members[msg.sender] */\n      0x00\n        /* \"BasicDAO.sol\":1069:1079  msg.sender */\n      caller\n        /* \"BasicDAO.sol\":1061:1080  members[msg.sender] */\n      0xffffffffffffffffffffffffffffffffffffffff\n      and\n      0xffffffffffffffffffffffffffffffffffffffff\n      and\n      dup2\n      mstore\n      0x20\n      add\n      swap1\n      dup2\n      mstore\n      0x20\n      add\n      0x00\n      keccak256\n      0x00\n      swap1\n      sload\n      swap1\n      0x0100\n      exp\n      swap1\n      div\n      0xff\n      and\n        /* \"BasicDAO.sol\":1060:1080  !members[msg.sender] */\n      iszero\n        /* \"BasicDAO.sol\":1052:1101  require(!members[msg.sender], \"Already a member\") */\n      tag_101\n      jumpi\n      mload(0x40)\n      0x08c379a000000000000000000000000000000000000000000000000000000000\n      dup2\n      mstore\n      0x04\n      add\n      tag_102\n      swap1\n      tag_103\n      jump\t// in\n    tag_102:\n      mload(0x40)\n      dup1\n      swap2\n      sub\n      swap1\n      revert\n    tag_101:\n        /* \"BasicDAO.sol\":1134:1138  true */\n      0x01\n        /* \"BasicDAO.sol\":1112:1119  members */\n      0x02\n        /* \"BasicDAO.sol\":1112:1131  members[msg.sender] */\n      0x00\n        /* \"BasicDAO.sol\":1120:1130  msg.sender */\n      caller\n        /* \"BasicDAO.sol\":1112:1131  members[msg.sender] */\n      0xffffffffffffffffffffffffffffffffffffffff\n      and\n      0xffffffffffffffffffffffffffffffffffffffff\n      and\n      dup2\n      mstore\n      0x20\n      add\n      swap1\n      dup2\n      mstore\n      0x20\n      add\n      0x00\n      keccak256\n      0x00\n        /* \"BasicDAO.sol\":1112:1138  members[msg.sender] = true */\n      0x0100\n      exp\n      dup2\n      sload\n      dup2\n      0xff\n      mul\n      not\n      and\n      swap1\n      dup4\n      iszero\n      iszero\n      mul\n      or\n      swap1\n      sstore\n      pop\n        /* \"BasicDAO.sol\":1154:1172  Joined(msg.sender) */\n      0x7073afa60b48e833a1a66ebb442bc8e0d19e9f3cc05f34bdcd1da22c8d87f275\n        /* \"BasicDAO.sol\":1161:1171  msg.sender */\n      caller\n        /* \"BasicDAO.sol\":1154:1172  Joined(msg.sender) */\n      mload(0x40)\n      tag_104\n      swap2\n      swap1\n      tag_39\n      jump\t// in\n    tag_104:\n      mload(0x40)\n      dup1\n      swap2\n      sub\n      swap1\n      log1\n        /* \"BasicDAO.sol\":934:1180  function join() external payable {... */\n      jump\t// out\n        /* \"BasicDAO.sol\":277:305  uint256 public membershipFee */\n    tag_50:\n      sload(0x01)\n      dup2\n      jump\t// out\n        /* \"BasicDAO.sol\":1614:2120  function vote(uint256 _proposalId, bool _vote) external onlyMember {... */\n    tag_57:\n        /* \"BasicDAO.sol\":748:755  members */\n      0x02\n        /* \"BasicDAO.sol\":748:767  members[msg.sender] */\n      0x00\n        /* \"BasicDAO.sol\":756:766  msg.sender */\n      caller\n        /* \"BasicDAO.sol\":748:767  members[msg.sender] */\n      0xffffffffffffffffffffffffffffffffffffffff\n      and\n      0xffffffffffffffffffffffffffffffffffffffff\n      and\n      dup2\n      mstore\n      0x20\n      add\n      swap1\n      dup2\n      mstore\n      0x20\n      add\n      0x00\n      keccak256\n      0x00\n      swap1\n      sload\n      swap1\n      0x0100\n      exp\n      swap1\n      div\n      0xff\n      and\n        /* \"BasicDAO.sol\":740:784  require(members[msg.sender], \"Not a member\") */\n      tag_106\n      jumpi\n      mload(0x40)\n      0x08c379a000000000000000000000000000000000000000000000000000000000\n      dup2\n      mstore\n      0x04\n      add\n      tag_107\n      swap1\n      tag_69\n      jump\t// in\n    tag_107:\n      mload(0x40)\n      dup1\n      swap2\n      sub\n      swap1\n      revert\n    tag_106:\n        /* \"BasicDAO.sol\":1692:1717  Proposal storage proposal */\n      0x00\n        /* \"BasicDAO.sol\":1720:1729  proposals */\n      0x03\n        /* \"BasicDAO.sol\":1730:1741  _proposalId */\n      dup4\n        /* \"BasicDAO.sol\":1720:1742  proposals[_proposalId] */\n      dup2\n      sload\n      dup2\n      lt\n      tag_109\n      jumpi\n      tag_110\n      tag_73\n      jump\t// in\n    tag_110:\n    tag_109:\n      swap1\n      0x00\n      mstore\n      keccak256(0x00, 0x20)\n      swap1\n      0x05\n      mul\n      add\n        /* \"BasicDAO.sol\":1692:1742  Proposal storage proposal = proposals[_proposalId] */\n      swap1\n      pop\n        /* \"BasicDAO.sol\":1779:1787  proposal */\n      dup1\n        /* \"BasicDAO.sol\":1779:1796  proposal.deadline */\n      0x01\n      add\n      sload\n        /* \"BasicDAO.sol\":1761:1776  block.timestamp */\n      timestamp\n        /* \"BasicDAO.sol\":1761:1796  block.timestamp < proposal.deadline */\n      lt\n        /* \"BasicDAO.sol\":1753:1819  require(block.timestamp < proposal.deadline, \"Voting period over\") */\n      tag_112\n      jumpi\n      mload(0x40)\n      0x08c379a000000000000000000000000000000000000000000000000000000000\n      dup2\n      mstore\n      0x04\n      add\n      tag_113\n      swap1\n      tag_114\n      jump\t// in\n    tag_113:\n      mload(0x40)\n      dup1\n      swap2\n      sub\n      swap1\n      revert\n    tag_112:\n        /* \"BasicDAO.sol\":1839:1844  votes */\n      0x04\n        /* \"BasicDAO.sol\":1839:1856  votes[msg.sender] */\n      0x00\n        /* \"BasicDAO.sol\":1845:1855  msg.sender */\n      caller\n        /* \"BasicDAO.sol\":1839:1856  votes[msg.sender] */\n      0xffffffffffffffffffffffffffffffffffffffff\n      and\n      0xffffffffffffffffffffffffffffffffffffffff\n      and\n      dup2\n      mstore\n      0x20\n      add\n      swap1\n      dup2\n      mstore\n      0x20\n      add\n      0x00\n      keccak256\n        /* \"BasicDAO.sol\":1839:1869  votes[msg.sender][_proposalId] */\n      0x00\n        /* \"BasicDAO.sol\":1857:1868  _proposalId */\n      dup5\n        /* \"BasicDAO.sol\":1839:1869  votes[msg.sender][_proposalId] */\n      dup2\n      mstore\n      0x20\n      add\n      swap1\n      dup2\n      mstore\n      0x20\n      add\n      0x00\n      keccak256\n      0x00\n      swap1\n      sload\n      swap1\n      0x0100\n      exp\n      swap1\n      div\n      0xff\n      and\n        /* \"BasicDAO.sol\":1838:1869  !votes[msg.sender][_proposalId] */\n      iszero\n        /* \"BasicDAO.sol\":1830:1887  require(!votes[msg.sender][_proposalId], \"Already voted\") */\n      tag_115\n      jumpi\n      mload(0x40)\n      0x08c379a000000000000000000000000000000000000000000000000000000000\n      dup2\n      mstore\n      0x04\n      add\n      tag_116\n      swap1\n      tag_117\n      jump\t// in\n    tag_116:\n      mload(0x40)\n      dup1\n      swap2\n      sub\n      swap1\n      revert\n    tag_115:\n        /* \"BasicDAO.sol\":1933:1937  true */\n      0x01\n        /* \"BasicDAO.sol\":1900:1905  votes */\n      0x04\n        /* \"BasicDAO.sol\":1900:1917  votes[msg.sender] */\n      0x00\n        /* \"BasicDAO.sol\":1906:1916  msg.sender */\n      caller\n        /* \"BasicDAO.sol\":1900:1917  votes[msg.sender] */\n      0xffffffffffffffffffffffffffffffffffffffff\n      and\n      0xffffffffffffffffffffffffffffffffffffffff\n      and\n      dup2\n      mstore\n      0x20\n      add\n      swap1\n      dup2\n      mstore\n      0x20\n      add\n      0x00\n      keccak256\n        /* \"BasicDAO.sol\":1900:1930  votes[msg.sender][_proposalId] */\n      0x00\n        /* \"BasicDAO.sol\":1918:1929  _proposalId */\n      dup6\n        /* \"BasicDAO.sol\":1900:1930  votes[msg.sender][_proposalId] */\n      dup2\n      mstore\n      0x20\n      add\n      swap1\n      dup2\n      mstore\n      0x20\n      add\n      0x00\n      keccak256\n      0x00\n        /* \"BasicDAO.sol\":1900:1937  votes[msg.sender][_proposalId] = true */\n      0x0100\n      exp\n      dup2\n      sload\n      dup2\n      0xff\n      mul\n      not\n      and\n      swap1\n      dup4\n      iszero\n      iszero\n      mul\n      or\n      swap1\n      sstore\n      pop\n        /* \"BasicDAO.sol\":1954:1959  _vote */\n      dup2\n        /* \"BasicDAO.sol\":1950:2058  if (_vote) {... */\n      iszero\n      tag_118\n      jumpi\n        /* \"BasicDAO.sol\":1976:1984  proposal */\n      dup1\n        /* \"BasicDAO.sol\":1976:1993  proposal.yesVotes */\n      0x02\n      add\n      0x00\n        /* \"BasicDAO.sol\":1976:1995  proposal.yesVotes++ */\n      dup2\n      sload\n      dup1\n      swap3\n      swap2\n      swap1\n      tag_119\n      swap1\n      tag_120\n      jump\t// in\n    tag_119:\n      swap2\n      swap1\n      pop\n      sstore\n      pop\n        /* \"BasicDAO.sol\":1950:2058  if (_vote) {... */\n      jump(tag_121)\n    tag_118:\n        /* \"BasicDAO.sol\":2028:2036  proposal */\n      dup1\n        /* \"BasicDAO.sol\":2028:2044  proposal.noVotes */\n      0x03\n      add\n      0x00\n        /* \"BasicDAO.sol\":2028:2046  proposal.noVotes++ */\n      dup2\n      sload\n      dup1\n      swap3\n      swap2\n      swap1\n      tag_122\n      swap1\n      tag_120\n      jump\t// in\n    tag_122:\n      swap2\n      swap1\n      pop\n      sstore\n      pop\n        /* \"BasicDAO.sol\":1950:2058  if (_vote) {... */\n    tag_121:\n        /* \"BasicDAO.sol\":2075:2112  Voted(_proposalId, msg.sender, _vote) */\n      0xf2913dbe661ee2acc4a046d8fbcdc792373bda34c41c6086484b5345e5785e5f\n        /* \"BasicDAO.sol\":2081:2092  _proposalId */\n      dup4\n        /* \"BasicDAO.sol\":2094:2104  msg.sender */\n      caller\n        /* \"BasicDAO.sol\":2106:2111  _vote */\n      dup5\n        /* \"BasicDAO.sol\":2075:2112  Voted(_proposalId, msg.sender, _vote) */\n      mload(0x40)\n      tag_123\n      swap4\n      swap3\n      swap2\n      swap1\n      tag_124\n      jump\t// in\n    tag_123:\n      mload(0x40)\n      dup1\n      swap2\n      sub\n      swap1\n      log1\n        /* \"BasicDAO.sol\":1681:2120  {... */\n      pop\n        /* \"BasicDAO.sol\":1614:2120  function vote(uint256 _proposalId, bool _vote) external onlyMember {... */\n      pop\n      pop\n      jump\t// out\n        /* \"#utility.yul\":88:205   */\n    tag_126:\n        /* \"#utility.yul\":197:198   */\n      0x00\n        /* \"#utility.yul\":194:195   */\n      dup1\n        /* \"#utility.yul\":187:199   */\n      revert\n        /* \"#utility.yul\":211:328   */\n    tag_127:\n        /* \"#utility.yul\":320:321   */\n      0x00\n        /* \"#utility.yul\":317:318   */\n      dup1\n        /* \"#utility.yul\":310:322   */\n      revert\n        /* \"#utility.yul\":334:411   */\n    tag_128:\n        /* \"#utility.yul\":371:378   */\n      0x00\n        /* \"#utility.yul\":400:405   */\n      dup2\n        /* \"#utility.yul\":389:405   */\n      swap1\n      pop\n        /* \"#utility.yul\":334:411   */\n      swap2\n      swap1\n      pop\n      jump\t// out\n        /* \"#utility.yul\":417:539   */\n    tag_129:\n        /* \"#utility.yul\":490:514   */\n      tag_190\n        /* \"#utility.yul\":508:513   */\n      dup2\n        /* \"#utility.yul\":490:514   */\n      tag_128\n      jump\t// in\n    tag_190:\n        /* \"#utility.yul\":483:488   */\n      dup2\n        /* \"#utility.yul\":480:515   */\n      eq\n        /* \"#utility.yul\":470:533   */\n      tag_191\n      jumpi\n        /* \"#utility.yul\":529:530   */\n      0x00\n        /* \"#utility.yul\":526:527   */\n      dup1\n        /* \"#utility.yul\":519:531   */\n      revert\n        /* \"#utility.yul\":470:533   */\n    tag_191:\n        /* \"#utility.yul\":417:539   */\n      pop\n      jump\t// out\n        /* \"#utility.yul\":545:684   */\n    tag_130:\n        /* \"#utility.yul\":591:596   */\n      0x00\n        /* \"#utility.yul\":629:635   */\n      dup2\n        /* \"#utility.yul\":616:636   */\n      calldataload\n        /* \"#utility.yul\":607:636   */\n      swap1\n      pop\n        /* \"#utility.yul\":645:678   */\n      tag_193\n        /* \"#utility.yul\":672:677   */\n      dup2\n        /* \"#utility.yul\":645:678   */\n      tag_129\n      jump\t// in\n    tag_193:\n        /* \"#utility.yul\":545:684   */\n      swap3\n      swap2\n      pop\n      pop\n      jump\t// out\n        /* \"#utility.yul\":690:1019   */\n    tag_15:\n        /* \"#utility.yul\":749:755   */\n      0x00\n        /* \"#utility.yul\":798:800   */\n      0x20\n        /* \"#utility.yul\":786:795   */\n      dup3\n        /* \"#utility.yul\":777:784   */\n      dup5\n        /* \"#utility.yul\":773:796   */\n      sub\n        /* \"#utility.yul\":769:801   */\n      slt\n        /* \"#utility.yul\":766:885   */\n      iszero\n      tag_195\n      jumpi\n        /* \"#utility.yul\":804:883   */\n      tag_196\n      tag_126\n      jump\t// in\n    tag_196:\n        /* \"#utility.yul\":766:885   */\n    tag_195:\n        /* \"#utility.yul\":924:925   */\n      0x00\n        /* \"#utility.yul\":949:1002   */\n      tag_197\n        /* \"#utility.yul\":994:1001   */\n      dup5\n        /* \"#utility.yul\":985:991   */\n      dup3\n        /* \"#utility.yul\":974:983   */\n      dup6\n        /* \"#utility.yul\":970:992   */\n      add\n        /* \"#utility.yul\":949:1002   */\n      tag_130\n      jump\t// in\n    tag_197:\n        /* \"#utility.yul\":939:1002   */\n      swap2\n      pop\n        /* \"#utility.yul\":895:1012   */\n      pop\n        /* \"#utility.yul\":690:1019   */\n      swap3\n      swap2\n      pop\n      pop\n      jump\t// out\n        /* \"#utility.yul\":1025:1124   */\n    tag_131:\n        /* \"#utility.yul\":1077:1083   */\n      0x00\n        /* \"#utility.yul\":1111:1116   */\n      dup2\n        /* \"#utility.yul\":1105:1117   */\n      mload\n        /* \"#utility.yul\":1095:1117   */\n      swap1\n      pop\n        /* \"#utility.yul\":1025:1124   */\n      swap2\n      swap1\n      pop\n      jump\t// out\n        /* \"#utility.yul\":1130:1299   */\n    tag_132:\n        /* \"#utility.yul\":1214:1225   */\n      0x00\n        /* \"#utility.yul\":1248:1254   */\n      dup3\n        /* \"#utility.yul\":1243:1246   */\n      dup3\n        /* \"#utility.yul\":1236:1255   */\n      mstore\n        /* \"#utility.yul\":1288:1292   */\n      0x20\n        /* \"#utility.yul\":1283:1286   */\n      dup3\n        /* \"#utility.yul\":1279:1293   */\n      add\n        /* \"#utility.yul\":1264:1293   */\n      swap1\n      pop\n        /* \"#utility.yul\":1130:1299   */\n      swap3\n      swap2\n      pop\n      pop\n      jump\t// out\n        /* \"#utility.yul\":1305:1444   */\n    tag_133:\n        /* \"#utility.yul\":1394:1400   */\n      dup3\n        /* \"#utility.yul\":1389:1392   */\n      dup2\n        /* \"#utility.yul\":1384:1387   */\n      dup4\n        /* \"#utility.yul\":1378:1401   */\n      mcopy\n        /* \"#utility.yul\":1435:1436   */\n      0x00\n        /* \"#utility.yul\":1426:1432   */\n      dup4\n        /* \"#utility.yul\":1421:1424   */\n      dup4\n        /* \"#utility.yul\":1417:1433   */\n      add\n        /* \"#utility.yul\":1410:1437   */\n      mstore\n        /* \"#utility.yul\":1305:1444   */\n      pop\n      pop\n      pop\n      jump\t// out\n        /* \"#utility.yul\":1450:1552   */\n    tag_134:\n        /* \"#utility.yul\":1491:1497   */\n      0x00\n        /* \"#utility.yul\":1542:1544   */\n      0x1f\n        /* \"#utility.yul\":1538:1545   */\n      not\n        /* \"#utility.yul\":1533:1535   */\n      0x1f\n        /* \"#utility.yul\":1526:1531   */\n      dup4\n        /* \"#utility.yul\":1522:1536   */\n      add\n        /* \"#utility.yul\":1518:1546   */\n      and\n        /* \"#utility.yul\":1508:1546   */\n      swap1\n      pop\n        /* \"#utility.yul\":1450:1552   */\n      swap2\n      swap1\n      pop\n      jump\t// out\n        /* \"#utility.yul\":1558:1935   */\n    tag_135:\n        /* \"#utility.yul\":1646:1649   */\n      0x00\n        /* \"#utility.yul\":1674:1713   */\n      tag_203\n        /* \"#utility.yul\":1707:1712   */\n      dup3\n        /* \"#utility.yul\":1674:1713   */\n      tag_131\n      jump\t// in\n    tag_203:\n        /* \"#utility.yul\":1729:1800   */\n      tag_204\n        /* \"#utility.yul\":1793:1799   */\n      dup2\n        /* \"#utility.yul\":1788:1791   */\n      dup6\n        /* \"#utility.yul\":1729:1800   */\n      tag_132\n      jump\t// in\n    tag_204:\n        /* \"#utility.yul\":1722:1800   */\n      swap4\n      pop\n        /* \"#utility.yul\":1809:1874   */\n      tag_205\n        /* \"#utility.yul\":1867:1873   */\n      dup2\n        /* \"#utility.yul\":1862:1865   */\n      dup6\n        /* \"#utility.yul\":1855:1859   */\n      0x20\n        /* \"#utility.yul\":1848:1853   */\n      dup7\n        /* \"#utility.yul\":1844:1860   */\n      add\n        /* \"#utility.yul\":1809:1874   */\n      tag_133\n      jump\t// in\n    tag_205:\n        /* \"#utility.yul\":1899:1928   */\n      tag_206\n        /* \"#utility.yul\":1921:1927   */\n      dup2\n        /* \"#utility.yul\":1899:1928   */\n      tag_134\n      jump\t// in\n    tag_206:\n        /* \"#utility.yul\":1894:1897   */\n      dup5\n        /* \"#utility.yul\":1890:1929   */\n      add\n        /* \"#utility.yul\":1883:1929   */\n      swap2\n      pop\n        /* \"#utility.yul\":1650:1935   */\n      pop\n        /* \"#utility.yul\":1558:1935   */\n      swap3\n      swap2\n      pop\n      pop\n      jump\t// out\n        /* \"#utility.yul\":1941:2059   */\n    tag_136:\n        /* \"#utility.yul\":2028:2052   */\n      tag_208\n        /* \"#utility.yul\":2046:2051   */\n      dup2\n        /* \"#utility.yul\":2028:2052   */\n      tag_128\n      jump\t// in\n    tag_208:\n        /* \"#utility.yul\":2023:2026   */\n      dup3\n        /* \"#utility.yul\":2016:2053   */\n      mstore\n        /* \"#utility.yul\":1941:2059   */\n      pop\n      pop\n      jump\t// out\n        /* \"#utility.yul\":2065:2155   */\n    tag_137:\n        /* \"#utility.yul\":2099:2106   */\n      0x00\n        /* \"#utility.yul\":2142:2147   */\n      dup2\n        /* \"#utility.yul\":2135:2148   */\n      iszero\n        /* \"#utility.yul\":2128:2149   */\n      iszero\n        /* \"#utility.yul\":2117:2149   */\n      swap1\n      pop\n        /* \"#utility.yul\":2065:2155   */\n      swap2\n      swap1\n      pop\n      jump\t// out\n        /* \"#utility.yul\":2161:2270   */\n    tag_138:\n        /* \"#utility.yul\":2242:2263   */\n      tag_211\n        /* \"#utility.yul\":2257:2262   */\n      dup2\n        /* \"#utility.yul\":2242:2263   */\n      tag_137\n      jump\t// in\n    tag_211:\n        /* \"#utility.yul\":2237:2240   */\n      dup3\n        /* \"#utility.yul\":2230:2264   */\n      mstore\n        /* \"#utility.yul\":2161:2270   */\n      pop\n      pop\n      jump\t// out\n        /* \"#utility.yul\":2276:3019   */\n    tag_18:\n        /* \"#utility.yul\":2495:2499   */\n      0x00\n        /* \"#utility.yul\":2533:2536   */\n      0xa0\n        /* \"#utility.yul\":2522:2531   */\n      dup3\n        /* \"#utility.yul\":2518:2537   */\n      add\n        /* \"#utility.yul\":2510:2537   */\n      swap1\n      pop\n        /* \"#utility.yul\":2583:2592   */\n      dup2\n        /* \"#utility.yul\":2577:2581   */\n      dup2\n        /* \"#utility.yul\":2573:2593   */\n      sub\n        /* \"#utility.yul\":2569:2570   */\n      0x00\n        /* \"#utility.yul\":2558:2567   */\n      dup4\n        /* \"#utility.yul\":2554:2571   */\n      add\n        /* \"#utility.yul\":2547:2594   */\n      mstore\n        /* \"#utility.yul\":2611:2689   */\n      tag_213\n        /* \"#utility.yul\":2684:2688   */\n      dup2\n        /* \"#utility.yul\":2675:2681   */\n      dup9\n        /* \"#utility.yul\":2611:2689   */\n      tag_135\n      jump\t// in\n    tag_213:\n        /* \"#utility.yul\":2603:2689   */\n      swap1\n      pop\n        /* \"#utility.yul\":2699:2771   */\n      tag_214\n        /* \"#utility.yul\":2767:2769   */\n      0x20\n        /* \"#utility.yul\":2756:2765   */\n      dup4\n        /* \"#utility.yul\":2752:2770   */\n      add\n        /* \"#utility.yul\":2743:2749   */\n      dup8\n        /* \"#utility.yul\":2699:2771   */\n      tag_136\n      jump\t// in\n    tag_214:\n        /* \"#utility.yul\":2781:2853   */\n      tag_215\n        /* \"#utility.yul\":2849:2851   */\n      0x40\n        /* \"#utility.yul\":2838:2847   */\n      dup4\n        /* \"#utility.yul\":2834:2852   */\n      add\n        /* \"#utility.yul\":2825:2831   */\n      dup7\n        /* \"#utility.yul\":2781:2853   */\n      tag_136\n      jump\t// in\n    tag_215:\n        /* \"#utility.yul\":2863:2935   */\n      tag_216\n        /* \"#utility.yul\":2931:2933   */\n      0x60\n        /* \"#utility.yul\":2920:2929   */\n      dup4\n        /* \"#utility.yul\":2916:2934   */\n      add\n        /* \"#utility.yul\":2907:2913   */\n      dup6\n        /* \"#utility.yul\":2863:2935   */\n      tag_136\n      jump\t// in\n    tag_216:\n        /* \"#utility.yul\":2945:3012   */\n      tag_217\n        /* \"#utility.yul\":3007:3010   */\n      0x80\n        /* \"#utility.yul\":2996:3005   */\n      dup4\n        /* \"#utility.yul\":2992:3011   */\n      add\n        /* \"#utility.yul\":2983:2989   */\n      dup5\n        /* \"#utility.yul\":2945:3012   */\n      tag_138\n      jump\t// in\n    tag_217:\n        /* \"#utility.yul\":2276:3019   */\n      swap7\n      swap6\n      pop\n      pop\n      pop\n      pop\n      pop\n      pop\n      jump\t// out\n        /* \"#utility.yul\":3025:3151   */\n    tag_139:\n        /* \"#utility.yul\":3062:3069   */\n      0x00\n        /* \"#utility.yul\":3102:3144   */\n      0xffffffffffffffffffffffffffffffffffffffff\n        /* \"#utility.yul\":3095:3100   */\n      dup3\n        /* \"#utility.yul\":3091:3145   */\n      and\n        /* \"#utility.yul\":3080:3145   */\n      swap1\n      pop\n        /* \"#utility.yul\":3025:3151   */\n      swap2\n      swap1\n      pop\n      jump\t// out\n        /* \"#utility.yul\":3157:3253   */\n    tag_140:\n        /* \"#utility.yul\":3194:3201   */\n      0x00\n        /* \"#utility.yul\":3223:3247   */\n      tag_220\n        /* \"#utility.yul\":3241:3246   */\n      dup3\n        /* \"#utility.yul\":3223:3247   */\n      tag_139\n      jump\t// in\n    tag_220:\n        /* \"#utility.yul\":3212:3247   */\n      swap1\n      pop\n        /* \"#utility.yul\":3157:3253   */\n      swap2\n      swap1\n      pop\n      jump\t// out\n        /* \"#utility.yul\":3259:3381   */\n    tag_141:\n        /* \"#utility.yul\":3332:3356   */\n      tag_222\n        /* \"#utility.yul\":3350:3355   */\n      dup2\n        /* \"#utility.yul\":3332:3356   */\n      tag_140\n      jump\t// in\n    tag_222:\n        /* \"#utility.yul\":3325:3330   */\n      dup2\n        /* \"#utility.yul\":3322:3357   */\n      eq\n        /* \"#utility.yul\":3312:3375   */\n      tag_223\n      jumpi\n        /* \"#utility.yul\":3371:3372   */\n      0x00\n        /* \"#utility.yul\":3368:3369   */\n      dup1\n        /* \"#utility.yul\":3361:3373   */\n      revert\n        /* \"#utility.yul\":3312:3375   */\n    tag_223:\n        /* \"#utility.yul\":3259:3381   */\n      pop\n      jump\t// out\n        /* \"#utility.yul\":3387:3526   */\n    tag_142:\n        /* \"#utility.yul\":3433:3438   */\n      0x00\n        /* \"#utility.yul\":3471:3477   */\n      dup2\n        /* \"#utility.yul\":3458:3478   */\n      calldataload\n        /* \"#utility.yul\":3449:3478   */\n      swap1\n      pop\n        /* \"#utility.yul\":3487:3520   */\n      tag_225\n        /* \"#utility.yul\":3514:3519   */\n      dup2\n        /* \"#utility.yul\":3487:3520   */\n      tag_141\n      jump\t// in\n    tag_225:\n        /* \"#utility.yul\":3387:3526   */\n      swap3\n      swap2\n      pop\n      pop\n      jump\t// out\n        /* \"#utility.yul\":3532:3861   */\n    tag_22:\n        /* \"#utility.yul\":3591:3597   */\n      0x00\n        /* \"#utility.yul\":3640:3642   */\n      0x20\n        /* \"#utility.yul\":3628:3637   */\n      dup3\n        /* \"#utility.yul\":3619:3626   */\n      dup5\n        /* \"#utility.yul\":3615:3638   */\n      sub\n        /* \"#utility.yul\":3611:3643   */\n      slt\n        /* \"#utility.yul\":3608:3727   */\n      iszero\n      tag_227\n      jumpi\n        /* \"#utility.yul\":3646:3725   */\n      tag_228\n      tag_126\n      jump\t// in\n    tag_228:\n        /* \"#utility.yul\":3608:3727   */\n    tag_227:\n        /* \"#utility.yul\":3766:3767   */\n      0x00\n        /* \"#utility.yul\":3791:3844   */\n      tag_229\n        /* \"#utility.yul\":3836:3843   */\n      dup5\n        /* \"#utility.yul\":3827:3833   */\n      dup3\n        /* \"#utility.yul\":3816:3825   */\n      dup6\n        /* \"#utility.yul\":3812:3834   */\n      add\n        /* \"#utility.yul\":3791:3844   */\n      tag_142\n      jump\t// in\n    tag_229:\n        /* \"#utility.yul\":3781:3844   */\n      swap2\n      pop\n        /* \"#utility.yul\":3737:3854   */\n      pop\n        /* \"#utility.yul\":3532:3861   */\n      swap3\n      swap2\n      pop\n      pop\n      jump\t// out\n        /* \"#utility.yul\":3867:4077   */\n    tag_25:\n        /* \"#utility.yul\":3954:3958   */\n      0x00\n        /* \"#utility.yul\":3992:3994   */\n      0x20\n        /* \"#utility.yul\":3981:3990   */\n      dup3\n        /* \"#utility.yul\":3977:3995   */\n      add\n        /* \"#utility.yul\":3969:3995   */\n      swap1\n      pop\n        /* \"#utility.yul\":4005:4070   */\n      tag_231\n        /* \"#utility.yul\":4067:4068   */\n      0x00\n        /* \"#utility.yul\":4056:4065   */\n      dup4\n        /* \"#utility.yul\":4052:4069   */\n      add\n        /* \"#utility.yul\":4043:4049   */\n      dup5\n        /* \"#utility.yul\":4005:4070   */\n      tag_138\n      jump\t// in\n    tag_231:\n        /* \"#utility.yul\":3867:4077   */\n      swap3\n      swap2\n      pop\n      pop\n      jump\t// out\n        /* \"#utility.yul\":4083:4200   */\n    tag_143:\n        /* \"#utility.yul\":4192:4193   */\n      0x00\n        /* \"#utility.yul\":4189:4190   */\n      dup1\n        /* \"#utility.yul\":4182:4194   */\n      revert\n        /* \"#utility.yul\":4206:4323   */\n    tag_144:\n        /* \"#utility.yul\":4315:4316   */\n      0x00\n        /* \"#utility.yul\":4312:4313   */\n      dup1\n        /* \"#utility.yul\":4305:4317   */\n      revert\n        /* \"#utility.yul\":4329:4446   */\n    tag_145:\n        /* \"#utility.yul\":4438:4439   */\n      0x00\n        /* \"#utility.yul\":4435:4436   */\n      dup1\n        /* \"#utility.yul\":4428:4440   */\n      revert\n        /* \"#utility.yul\":4466:5019   */\n    tag_146:\n        /* \"#utility.yul\":4524:4532   */\n      0x00\n        /* \"#utility.yul\":4534:4540   */\n      dup1\n        /* \"#utility.yul\":4584:4587   */\n      dup4\n        /* \"#utility.yul\":4577:4581   */\n      0x1f\n        /* \"#utility.yul\":4569:4575   */\n      dup5\n        /* \"#utility.yul\":4565:4582   */\n      add\n        /* \"#utility.yul\":4561:4588   */\n      slt\n        /* \"#utility.yul\":4551:4673   */\n      tag_236\n      jumpi\n        /* \"#utility.yul\":4592:4671   */\n      tag_237\n      tag_143\n      jump\t// in\n    tag_237:\n        /* \"#utility.yul\":4551:4673   */\n    tag_236:\n        /* \"#utility.yul\":4705:4711   */\n      dup3\n        /* \"#utility.yul\":4692:4712   */\n      calldataload\n        /* \"#utility.yul\":4682:4712   */\n      swap1\n      pop\n        /* \"#utility.yul\":4735:4753   */\n      0xffffffffffffffff\n        /* \"#utility.yul\":4727:4733   */\n      dup2\n        /* \"#utility.yul\":4724:4754   */\n      gt\n        /* \"#utility.yul\":4721:4838   */\n      iszero\n      tag_238\n      jumpi\n        /* \"#utility.yul\":4757:4836   */\n      tag_239\n      tag_144\n      jump\t// in\n    tag_239:\n        /* \"#utility.yul\":4721:4838   */\n    tag_238:\n        /* \"#utility.yul\":4871:4875   */\n      0x20\n        /* \"#utility.yul\":4863:4869   */\n      dup4\n        /* \"#utility.yul\":4859:4876   */\n      add\n        /* \"#utility.yul\":4847:4876   */\n      swap2\n      pop\n        /* \"#utility.yul\":4925:4928   */\n      dup4\n        /* \"#utility.yul\":4917:4921   */\n      0x01\n        /* \"#utility.yul\":4909:4915   */\n      dup3\n        /* \"#utility.yul\":4905:4922   */\n      mul\n        /* \"#utility.yul\":4895:4903   */\n      dup4\n        /* \"#utility.yul\":4891:4923   */\n      add\n        /* \"#utility.yul\":4888:4929   */\n      gt\n        /* \"#utility.yul\":4885:5013   */\n      iszero\n      tag_240\n      jumpi\n        /* \"#utility.yul\":4932:5011   */\n      tag_241\n      tag_145\n      jump\t// in\n    tag_241:\n        /* \"#utility.yul\":4885:5013   */\n    tag_240:\n        /* \"#utility.yul\":4466:5019   */\n      swap3\n      pop\n      swap3\n      swap1\n      pop\n      jump\t// out\n        /* \"#utility.yul\":5025:5699   */\n    tag_33:\n        /* \"#utility.yul\":5105:5111   */\n      0x00\n        /* \"#utility.yul\":5113:5119   */\n      dup1\n        /* \"#utility.yul\":5121:5127   */\n      0x00\n        /* \"#utility.yul\":5170:5172   */\n      0x40\n        /* \"#utility.yul\":5158:5167   */\n      dup5\n        /* \"#utility.yul\":5149:5156   */\n      dup7\n        /* \"#utility.yul\":5145:5168   */\n      sub\n        /* \"#utility.yul\":5141:5173   */\n      slt\n        /* \"#utility.yul\":5138:5257   */\n      iszero\n      tag_243\n      jumpi\n        /* \"#utility.yul\":5176:5255   */\n      tag_244\n      tag_126\n      jump\t// in\n    tag_244:\n        /* \"#utility.yul\":5138:5257   */\n    tag_243:\n        /* \"#utility.yul\":5324:5325   */\n      0x00\n        /* \"#utility.yul\":5313:5322   */\n      dup5\n        /* \"#utility.yul\":5309:5326   */\n      add\n        /* \"#utility.yul\":5296:5327   */\n      calldataload\n        /* \"#utility.yul\":5354:5372   */\n      0xffffffffffffffff\n        /* \"#utility.yul\":5346:5352   */\n      dup2\n        /* \"#utility.yul\":5343:5373   */\n      gt\n        /* \"#utility.yul\":5340:5457   */\n      iszero\n      tag_245\n      jumpi\n        /* \"#utility.yul\":5376:5455   */\n      tag_246\n      tag_127\n      jump\t// in\n    tag_246:\n        /* \"#utility.yul\":5340:5457   */\n    tag_245:\n        /* \"#utility.yul\":5489:5554   */\n      tag_247\n        /* \"#utility.yul\":5546:5553   */\n      dup7\n        /* \"#utility.yul\":5537:5543   */\n      dup3\n        /* \"#utility.yul\":5526:5535   */\n      dup8\n        /* \"#utility.yul\":5522:5544   */\n      add\n        /* \"#utility.yul\":5489:5554   */\n      tag_146\n      jump\t// in\n    tag_247:\n        /* \"#utility.yul\":5471:5554   */\n      swap4\n      pop\n      swap4\n      pop\n        /* \"#utility.yul\":5267:5564   */\n      pop\n        /* \"#utility.yul\":5603:5605   */\n      0x20\n        /* \"#utility.yul\":5629:5682   */\n      tag_248\n        /* \"#utility.yul\":5674:5681   */\n      dup7\n        /* \"#utility.yul\":5665:5671   */\n      dup3\n        /* \"#utility.yul\":5654:5663   */\n      dup8\n        /* \"#utility.yul\":5650:5672   */\n      add\n        /* \"#utility.yul\":5629:5682   */\n      tag_130\n      jump\t// in\n    tag_248:\n        /* \"#utility.yul\":5619:5682   */\n      swap2\n      pop\n        /* \"#utility.yul\":5574:5692   */\n      pop\n        /* \"#utility.yul\":5025:5699   */\n      swap3\n      pop\n      swap3\n      pop\n      swap3\n      jump\t// out\n        /* \"#utility.yul\":5705:5823   */\n    tag_147:\n        /* \"#utility.yul\":5792:5816   */\n      tag_250\n        /* \"#utility.yul\":5810:5815   */\n      dup2\n        /* \"#utility.yul\":5792:5816   */\n      tag_140\n      jump\t// in\n    tag_250:\n        /* \"#utility.yul\":5787:5790   */\n      dup3\n        /* \"#utility.yul\":5780:5817   */\n      mstore\n        /* \"#utility.yul\":5705:5823   */\n      pop\n      pop\n      jump\t// out\n        /* \"#utility.yul\":5829:6051   */\n    tag_39:\n        /* \"#utility.yul\":5922:5926   */\n      0x00\n        /* \"#utility.yul\":5960:5962   */\n      0x20\n        /* \"#utility.yul\":5949:5958   */\n      dup3\n        /* \"#utility.yul\":5945:5963   */\n      add\n        /* \"#utility.yul\":5937:5963   */\n      swap1\n      pop\n        /* \"#utility.yul\":5973:6044   */\n      tag_252\n        /* \"#utility.yul\":6041:6042   */\n      0x00\n        /* \"#utility.yul\":6030:6039   */\n      dup4\n        /* \"#utility.yul\":6026:6043   */\n      add\n        /* \"#utility.yul\":6017:6023   */\n      dup5\n        /* \"#utility.yul\":5973:6044   */\n      tag_147\n      jump\t// in\n    tag_252:\n        /* \"#utility.yul\":5829:6051   */\n      swap3\n      swap2\n      pop\n      pop\n      jump\t// out\n        /* \"#utility.yul\":6057:6531   */\n    tag_43:\n        /* \"#utility.yul\":6125:6131   */\n      0x00\n        /* \"#utility.yul\":6133:6139   */\n      dup1\n        /* \"#utility.yul\":6182:6184   */\n      0x40\n        /* \"#utility.yul\":6170:6179   */\n      dup4\n        /* \"#utility.yul\":6161:6168   */\n      dup6\n        /* \"#utility.yul\":6157:6180   */\n      sub\n        /* \"#utility.yul\":6153:6185   */\n      slt\n        /* \"#utility.yul\":6150:6269   */\n      iszero\n      tag_254\n      jumpi\n        /* \"#utility.yul\":6188:6267   */\n      tag_255\n      tag_126\n      jump\t// in\n    tag_255:\n        /* \"#utility.yul\":6150:6269   */\n    tag_254:\n        /* \"#utility.yul\":6308:6309   */\n      0x00\n        /* \"#utility.yul\":6333:6386   */\n      tag_256\n        /* \"#utility.yul\":6378:6385   */\n      dup6\n        /* \"#utility.yul\":6369:6375   */\n      dup3\n        /* \"#utility.yul\":6358:6367   */\n      dup7\n        /* \"#utility.yul\":6354:6376   */\n      add\n        /* \"#utility.yul\":6333:6386   */\n      tag_142\n      jump\t// in\n    tag_256:\n        /* \"#utility.yul\":6323:6386   */\n      swap3\n      pop\n        /* \"#utility.yul\":6279:6396   */\n      pop\n        /* \"#utility.yul\":6435:6437   */\n      0x20\n        /* \"#utility.yul\":6461:6514   */\n      tag_257\n        /* \"#utility.yul\":6506:6513   */\n      dup6\n        /* \"#utility.yul\":6497:6503   */\n      dup3\n        /* \"#utility.yul\":6486:6495   */\n      dup7\n        /* \"#utility.yul\":6482:6504   */\n      add\n        /* \"#utility.yul\":6461:6514   */\n      tag_130\n      jump\t// in\n    tag_257:\n        /* \"#utility.yul\":6451:6514   */\n      swap2\n      pop\n        /* \"#utility.yul\":6406:6524   */\n      pop\n        /* \"#utility.yul\":6057:6531   */\n      swap3\n      pop\n      swap3\n      swap1\n      pop\n      jump\t// out\n        /* \"#utility.yul\":6537:6759   */\n    tag_52:\n        /* \"#utility.yul\":6630:6634   */\n      0x00\n        /* \"#utility.yul\":6668:6670   */\n      0x20\n        /* \"#utility.yul\":6657:6666   */\n      dup3\n        /* \"#utility.yul\":6653:6671   */\n      add\n        /* \"#utility.yul\":6645:6671   */\n      swap1\n      pop\n        /* \"#utility.yul\":6681:6752   */\n      tag_259\n        /* \"#utility.yul\":6749:6750   */\n      0x00\n        /* \"#utility.yul\":6738:6747   */\n      dup4\n        /* \"#utility.yul\":6734:6751   */\n      add\n        /* \"#utility.yul\":6725:6731   */\n      dup5\n        /* \"#utility.yul\":6681:6752   */\n      tag_136\n      jump\t// in\n    tag_259:\n        /* \"#utility.yul\":6537:6759   */\n      swap3\n      swap2\n      pop\n      pop\n      jump\t// out\n        /* \"#utility.yul\":6765:6881   */\n    tag_148:\n        /* \"#utility.yul\":6835:6856   */\n      tag_261\n        /* \"#utility.yul\":6850:6855   */\n      dup2\n        /* \"#utility.yul\":6835:6856   */\n      tag_137\n      jump\t// in\n    tag_261:\n        /* \"#utility.yul\":6828:6833   */\n      dup2\n        /* \"#utility.yul\":6825:6857   */\n      eq\n        /* \"#utility.yul\":6815:6875   */\n      tag_262\n      jumpi\n        /* \"#utility.yul\":6871:6872   */\n      0x00\n        /* \"#utility.yul\":6868:6869   */\n      dup1\n        /* \"#utility.yul\":6861:6873   */\n      revert\n        /* \"#utility.yul\":6815:6875   */\n    tag_262:\n        /* \"#utility.yul\":6765:6881   */\n      pop\n      jump\t// out\n        /* \"#utility.yul\":6887:7020   */\n    tag_149:\n        /* \"#utility.yul\":6930:6935   */\n      0x00\n        /* \"#utility.yul\":6968:6974   */\n      dup2\n        /* \"#utility.yul\":6955:6975   */\n      calldataload\n        /* \"#utility.yul\":6946:6975   */\n      swap1\n      pop\n        /* \"#utility.yul\":6984:7014   */\n      tag_264\n        /* \"#utility.yul\":7008:7013   */\n      dup2\n        /* \"#utility.yul\":6984:7014   */\n      tag_148\n      jump\t// in\n    tag_264:\n        /* \"#utility.yul\":6887:7020   */\n      swap3\n      swap2\n      pop\n      pop\n      jump\t// out\n        /* \"#utility.yul\":7026:7494   */\n    tag_56:\n        /* \"#utility.yul\":7091:7097   */\n      0x00\n        /* \"#utility.yul\":7099:7105   */\n      dup1\n        /* \"#utility.yul\":7148:7150   */\n      0x40\n        /* \"#utility.yul\":7136:7145   */\n      dup4\n        /* \"#utility.yul\":7127:7134   */\n      dup6\n        /* \"#utility.yul\":7123:7146   */\n      sub\n        /* \"#utility.yul\":7119:7151   */\n      slt\n        /* \"#utility.yul\":7116:7235   */\n      iszero\n      tag_266\n      jumpi\n        /* \"#utility.yul\":7154:7233   */\n      tag_267\n      tag_126\n      jump\t// in\n    tag_267:\n        /* \"#utility.yul\":7116:7235   */\n    tag_266:\n        /* \"#utility.yul\":7274:7275   */\n      0x00\n        /* \"#utility.yul\":7299:7352   */\n      tag_268\n        /* \"#utility.yul\":7344:7351   */\n      dup6\n        /* \"#utility.yul\":7335:7341   */\n      dup3\n        /* \"#utility.yul\":7324:7333   */\n      dup7\n        /* \"#utility.yul\":7320:7342   */\n      add\n        /* \"#utility.yul\":7299:7352   */\n      tag_130\n      jump\t// in\n    tag_268:\n        /* \"#utility.yul\":7289:7352   */\n      swap3\n      pop\n        /* \"#utility.yul\":7245:7362   */\n      pop\n        /* \"#utility.yul\":7401:7403   */\n      0x20\n        /* \"#utility.yul\":7427:7477   */\n      tag_269\n        /* \"#utility.yul\":7469:7476   */\n      dup6\n        /* \"#utility.yul\":7460:7466   */\n      dup3\n        /* \"#utility.yul\":7449:7458   */\n      dup7\n        /* \"#utility.yul\":7445:7467   */\n      add\n        /* \"#utility.yul\":7427:7477   */\n      tag_149\n      jump\t// in\n    tag_269:\n        /* \"#utility.yul\":7417:7477   */\n      swap2\n      pop\n        /* \"#utility.yul\":7372:7487   */\n      pop\n        /* \"#utility.yul\":7026:7494   */\n      swap3\n      pop\n      swap3\n      swap1\n      pop\n      jump\t// out\n        /* \"#utility.yul\":7500:7680   */\n    tag_150:\n        /* \"#utility.yul\":7548:7625   */\n      0x4e487b7100000000000000000000000000000000000000000000000000000000\n        /* \"#utility.yul\":7545:7546   */\n      0x00\n        /* \"#utility.yul\":7538:7626   */\n      mstore\n        /* \"#utility.yul\":7645:7649   */\n      0x22\n        /* \"#utility.yul\":7642:7643   */\n      0x04\n        /* \"#utility.yul\":7635:7650   */\n      mstore\n        /* \"#utility.yul\":7669:7673   */\n      0x24\n        /* \"#utility.yul\":7666:7667   */\n      0x00\n        /* \"#utility.yul\":7659:7674   */\n      revert\n        /* \"#utility.yul\":7686:8006   */\n    tag_61:\n        /* \"#utility.yul\":7730:7736   */\n      0x00\n        /* \"#utility.yul\":7767:7768   */\n      0x02\n        /* \"#utility.yul\":7761:7765   */\n      dup3\n        /* \"#utility.yul\":7757:7769   */\n      div\n        /* \"#utility.yul\":7747:7769   */\n      swap1\n      pop\n        /* \"#utility.yul\":7814:7815   */\n      0x01\n        /* \"#utility.yul\":7808:7812   */\n      dup3\n        /* \"#utility.yul\":7804:7816   */\n      and\n        /* \"#utility.yul\":7835:7853   */\n      dup1\n        /* \"#utility.yul\":7825:7906   */\n      tag_272\n      jumpi\n        /* \"#utility.yul\":7891:7895   */\n      0x7f\n        /* \"#utility.yul\":7883:7889   */\n      dup3\n        /* \"#utility.yul\":7879:7896   */\n      and\n        /* \"#utility.yul\":7869:7896   */\n      swap2\n      pop\n        /* \"#utility.yul\":7825:7906   */\n    tag_272:\n        /* \"#utility.yul\":7953:7955   */\n      0x20\n        /* \"#utility.yul\":7945:7951   */\n      dup3\n        /* \"#utility.yul\":7942:7956   */\n      lt\n        /* \"#utility.yul\":7922:7940   */\n      dup2\n        /* \"#utility.yul\":7919:7957   */\n      sub\n        /* \"#utility.yul\":7916:8000   */\n      tag_273\n      jumpi\n        /* \"#utility.yul\":7972:7990   */\n      tag_274\n      tag_150\n      jump\t// in\n    tag_274:\n        /* \"#utility.yul\":7916:8000   */\n    tag_273:\n        /* \"#utility.yul\":7737:8006   */\n      pop\n        /* \"#utility.yul\":7686:8006   */\n      swap2\n      swap1\n      pop\n      jump\t// out\n        /* \"#utility.yul\":8012:8174   */\n    tag_151:\n        /* \"#utility.yul\":8152:8166   */\n      0x4e6f742061206d656d6265720000000000000000000000000000000000000000\n        /* \"#utility.yul\":8148:8149   */\n      0x00\n        /* \"#utility.yul\":8140:8146   */\n      dup3\n        /* \"#utility.yul\":8136:8150   */\n      add\n        /* \"#utility.yul\":8129:8167   */\n      mstore\n        /* \"#utility.yul\":8012:8174   */\n      pop\n      jump\t// out\n        /* \"#utility.yul\":8180:8546   */\n    tag_152:\n        /* \"#utility.yul\":8322:8325   */\n      0x00\n        /* \"#utility.yul\":8343:8410   */\n      tag_277\n        /* \"#utility.yul\":8407:8409   */\n      0x0c\n        /* \"#utility.yul\":8402:8405   */\n      dup4\n        /* \"#utility.yul\":8343:8410   */\n      tag_132\n      jump\t// in\n    tag_277:\n        /* \"#utility.yul\":8336:8410   */\n      swap2\n      pop\n        /* \"#utility.yul\":8419:8512   */\n      tag_278\n        /* \"#utility.yul\":8508:8511   */\n      dup3\n        /* \"#utility.yul\":8419:8512   */\n      tag_151\n      jump\t// in\n    tag_278:\n        /* \"#utility.yul\":8537:8539   */\n      0x20\n        /* \"#utility.yul\":8532:8535   */\n      dup3\n        /* \"#utility.yul\":8528:8540   */\n      add\n        /* \"#utility.yul\":8521:8540   */\n      swap1\n      pop\n        /* \"#utility.yul\":8180:8546   */\n      swap2\n      swap1\n      pop\n      jump\t// out\n        /* \"#utility.yul\":8552:8971   */\n    tag_69:\n        /* \"#utility.yul\":8718:8722   */\n      0x00\n        /* \"#utility.yul\":8756:8758   */\n      0x20\n        /* \"#utility.yul\":8745:8754   */\n      dup3\n        /* \"#utility.yul\":8741:8759   */\n      add\n        /* \"#utility.yul\":8733:8759   */\n      swap1\n      pop\n        /* \"#utility.yul\":8805:8814   */\n      dup2\n        /* \"#utility.yul\":8799:8803   */\n      dup2\n        /* \"#utility.yul\":8795:8815   */\n      sub\n        /* \"#utility.yul\":8791:8792   */\n      0x00\n        /* \"#utility.yul\":8780:8789   */\n      dup4\n        /* \"#utility.yul\":8776:8793   */\n      add\n        /* \"#utility.yul\":8769:8816   */\n      mstore\n        /* \"#utility.yul\":8833:8964   */\n      tag_280\n        /* \"#utility.yul\":8959:8963   */\n      dup2\n        /* \"#utility.yul\":8833:8964   */\n      tag_152\n      jump\t// in\n    tag_280:\n        /* \"#utility.yul\":8825:8964   */\n      swap1\n      pop\n        /* \"#utility.yul\":8552:8971   */\n      swap2\n      swap1\n      pop\n      jump\t// out\n        /* \"#utility.yul\":8977:9157   */\n    tag_73:\n        /* \"#utility.yul\":9025:9102   */\n      0x4e487b7100000000000000000000000000000000000000000000000000000000\n        /* \"#utility.yul\":9022:9023   */\n      0x00\n        /* \"#utility.yul\":9015:9103   */\n      mstore\n        /* \"#utility.yul\":9122:9126   */\n      0x32\n        /* \"#utility.yul\":9119:9120   */\n      0x04\n        /* \"#utility.yul\":9112:9127   */\n      mstore\n        /* \"#utility.yul\":9146:9150   */\n      0x24\n        /* \"#utility.yul\":9143:9144   */\n      0x00\n        /* \"#utility.yul\":9136:9151   */\n      revert\n        /* \"#utility.yul\":9163:9335   */\n    tag_153:\n        /* \"#utility.yul\":9303:9327   */\n      0x566f74696e6720706572696f64206e6f74206f76657200000000000000000000\n        /* \"#utility.yul\":9299:9300   */\n      0x00\n        /* \"#utility.yul\":9291:9297   */\n      dup3\n        /* \"#utility.yul\":9287:9301   */\n      add\n        /* \"#utility.yul\":9280:9328   */\n      mstore\n        /* \"#utility.yul\":9163:9335   */\n      pop\n      jump\t// out\n        /* \"#utility.yul\":9341:9707   */\n    tag_154:\n        /* \"#utility.yul\":9483:9486   */\n      0x00\n        /* \"#utility.yul\":9504:9571   */\n      tag_284\n        /* \"#utility.yul\":9568:9570   */\n      0x16\n        /* \"#utility.yul\":9563:9566   */\n      dup4\n        /* \"#utility.yul\":9504:9571   */\n      tag_132\n      jump\t// in\n    tag_284:\n        /* \"#utility.yul\":9497:9571   */\n      swap2\n      pop\n        /* \"#utility.yul\":9580:9673   */\n      tag_285\n        /* \"#utility.yul\":9669:9672   */\n      dup3\n        /* \"#utility.yul\":9580:9673   */\n      tag_153\n      jump\t// in\n    tag_285:\n        /* \"#utility.yul\":9698:9700   */\n      0x20\n        /* \"#utility.yul\":9693:9696   */\n      dup3\n        /* \"#utility.yul\":9689:9701   */\n      add\n        /* \"#utility.yul\":9682:9701   */\n      swap1\n      pop\n        /* \"#utility.yul\":9341:9707   */\n      swap2\n      swap1\n      pop\n      jump\t// out\n        /* \"#utility.yul\":9713:10132   */\n    tag_77:\n        /* \"#utility.yul\":9879:9883   */\n      0x00\n        /* \"#utility.yul\":9917:9919   */\n      0x20\n        /* \"#utility.yul\":9906:9915   */\n      dup3\n        /* \"#utility.yul\":9902:9920   */\n      add\n        /* \"#utility.yul\":9894:9920   */\n      swap1\n      pop\n        /* \"#utility.yul\":9966:9975   */\n      dup2\n        /* \"#utility.yul\":9960:9964   */\n      dup2\n        /* \"#utility.yul\":9956:9976   */\n      sub\n        /* \"#utility.yul\":9952:9953   */\n      0x00\n        /* \"#utility.yul\":9941:9950   */\n      dup4\n        /* \"#utility.yul\":9937:9954   */\n      add\n        /* \"#utility.yul\":9930:9977   */\n      mstore\n        /* \"#utility.yul\":9994:10125   */\n      tag_287\n        /* \"#utility.yul\":10120:10124   */\n      dup2\n        /* \"#utility.yul\":9994:10125   */\n      tag_154\n      jump\t// in\n    tag_287:\n        /* \"#utility.yul\":9986:10125   */\n      swap1\n      pop\n        /* \"#utility.yul\":9713:10132   */\n      swap2\n      swap1\n      pop\n      jump\t// out\n        /* \"#utility.yul\":10138:10313   */\n    tag_155:\n        /* \"#utility.yul\":10278:10305   */\n      0x50726f706f73616c20616c726561647920657865637574656400000000000000\n        /* \"#utility.yul\":10274:10275   */\n      0x00\n        /* \"#utility.yul\":10266:10272   */\n      dup3\n        /* \"#utility.yul\":10262:10276   */\n      add\n        /* \"#utility.yul\":10255:10306   */\n      mstore\n        /* \"#utility.yul\":10138:10313   */\n      pop\n      jump\t// out\n        /* \"#utility.yul\":10319:10685   */\n    tag_156:\n        /* \"#utility.yul\":10461:10464   */\n      0x00\n        /* \"#utility.yul\":10482:10549   */\n      tag_290\n        /* \"#utility.yul\":10546:10548   */\n      0x19\n        /* \"#utility.yul\":10541:10544   */\n      dup4\n        /* \"#utility.yul\":10482:10549   */\n      tag_132\n      jump\t// in\n    tag_290:\n        /* \"#utility.yul\":10475:10549   */\n      swap2\n      pop\n        /* \"#utility.yul\":10558:10651   */\n      tag_291\n        /* \"#utility.yul\":10647:10650   */\n      dup3\n        /* \"#utility.yul\":10558:10651   */\n      tag_155\n      jump\t// in\n    tag_291:\n        /* \"#utility.yul\":10676:10678   */\n      0x20\n        /* \"#utility.yul\":10671:10674   */\n      dup3\n        /* \"#utility.yul\":10667:10679   */\n      add\n        /* \"#utility.yul\":10660:10679   */\n      swap1\n      pop\n        /* \"#utility.yul\":10319:10685   */\n      swap2\n      swap1\n      pop\n      jump\t// out\n        /* \"#utility.yul\":10691:11110   */\n    tag_80:\n        /* \"#utility.yul\":10857:10861   */\n      0x00\n        /* \"#utility.yul\":10895:10897   */\n      0x20\n        /* \"#utility.yul\":10884:10893   */\n      dup3\n        /* \"#utility.yul\":10880:10898   */\n      add\n        /* \"#utility.yul\":10872:10898   */\n      swap1\n      pop\n        /* \"#utility.yul\":10944:10953   */\n      dup2\n        /* \"#utility.yul\":10938:10942   */\n      dup2\n        /* \"#utility.yul\":10934:10954   */\n      sub\n        /* \"#utility.yul\":10930:10931   */\n      0x00\n        /* \"#utility.yul\":10919:10928   */\n      dup4\n        /* \"#utility.yul\":10915:10932   */\n      add\n        /* \"#utility.yul\":10908:10955   */\n      mstore\n        /* \"#utility.yul\":10972:11103   */\n      tag_293\n        /* \"#utility.yul\":11098:11102   */\n      dup2\n        /* \"#utility.yul\":10972:11103   */\n      tag_156\n      jump\t// in\n    tag_293:\n        /* \"#utility.yul\":10964:11103   */\n      swap1\n      pop\n        /* \"#utility.yul\":10691:11110   */\n      swap2\n      swap1\n      pop\n      jump\t// out\n        /* \"#utility.yul\":11116:11436   */\n    tag_82:\n        /* \"#utility.yul\":11231:11235   */\n      0x00\n        /* \"#utility.yul\":11269:11271   */\n      0x40\n        /* \"#utility.yul\":11258:11267   */\n      dup3\n        /* \"#utility.yul\":11254:11272   */\n      add\n        /* \"#utility.yul\":11246:11272   */\n      swap1\n      pop\n        /* \"#utility.yul\":11282:11353   */\n      tag_295\n        /* \"#utility.yul\":11350:11351   */\n      0x00\n        /* \"#utility.yul\":11339:11348   */\n      dup4\n        /* \"#utility.yul\":11335:11352   */\n      add\n        /* \"#utility.yul\":11326:11332   */\n      dup6\n        /* \"#utility.yul\":11282:11353   */\n      tag_136\n      jump\t// in\n    tag_295:\n        /* \"#utility.yul\":11363:11429   */\n      tag_296\n        /* \"#utility.yul\":11425:11427   */\n      0x20\n        /* \"#utility.yul\":11414:11423   */\n      dup4\n        /* \"#utility.yul\":11410:11428   */\n      add\n        /* \"#utility.yul\":11401:11407   */\n      dup5\n        /* \"#utility.yul\":11363:11429   */\n      tag_138\n      jump\t// in\n    tag_296:\n        /* \"#utility.yul\":11116:11436   */\n      swap4\n      swap3\n      pop\n      pop\n      pop\n      jump\t// out\n        /* \"#utility.yul\":11442:11622   */\n    tag_157:\n        /* \"#utility.yul\":11490:11567   */\n      0x4e487b7100000000000000000000000000000000000000000000000000000000\n        /* \"#utility.yul\":11487:11488   */\n      0x00\n        /* \"#utility.yul\":11480:11568   */\n      mstore\n        /* \"#utility.yul\":11587:11591   */\n      0x11\n        /* \"#utility.yul\":11584:11585   */\n      0x04\n        /* \"#utility.yul\":11577:11592   */\n      mstore\n        /* \"#utility.yul\":11611:11615   */\n      0x24\n        /* \"#utility.yul\":11608:11609   */\n      0x00\n        /* \"#utility.yul\":11601:11616   */\n      revert\n        /* \"#utility.yul\":11628:11819   */\n    tag_88:\n        /* \"#utility.yul\":11668:11671   */\n      0x00\n        /* \"#utility.yul\":11687:11707   */\n      tag_299\n        /* \"#utility.yul\":11705:11706   */\n      dup3\n        /* \"#utility.yul\":11687:11707   */\n      tag_128\n      jump\t// in\n    tag_299:\n        /* \"#utility.yul\":11682:11707   */\n      swap2\n      pop\n        /* \"#utility.yul\":11721:11741   */\n      tag_300\n        /* \"#utility.yul\":11739:11740   */\n      dup4\n        /* \"#utility.yul\":11721:11741   */\n      tag_128\n      jump\t// in\n    tag_300:\n        /* \"#utility.yul\":11716:11741   */\n      swap3\n      pop\n        /* \"#utility.yul\":11764:11765   */\n      dup3\n        /* \"#utility.yul\":11761:11762   */\n      dup3\n        /* \"#utility.yul\":11757:11766   */\n      add\n        /* \"#utility.yul\":11750:11766   */\n      swap1\n      pop\n        /* \"#utility.yul\":11785:11788   */\n      dup1\n        /* \"#utility.yul\":11782:11783   */\n      dup3\n        /* \"#utility.yul\":11779:11789   */\n      gt\n        /* \"#utility.yul\":11776:11812   */\n      iszero\n      tag_301\n      jumpi\n        /* \"#utility.yul\":11792:11810   */\n      tag_302\n      tag_157\n      jump\t// in\n    tag_302:\n        /* \"#utility.yul\":11776:11812   */\n    tag_301:\n        /* \"#utility.yul\":11628:11819   */\n      swap3\n      swap2\n      pop\n      pop\n      jump\t// out\n        /* \"#utility.yul\":11825:12005   */\n    tag_158:\n        /* \"#utility.yul\":11873:11950   */\n      0x4e487b7100000000000000000000000000000000000000000000000000000000\n        /* \"#utility.yul\":11870:11871   */\n      0x00\n        /* \"#utility.yul\":11863:11951   */\n      mstore\n        /* \"#utility.yul\":11970:11974   */\n      0x41\n        /* \"#utility.yul\":11967:11968   */\n      0x04\n        /* \"#utility.yul\":11960:11975   */\n      mstore\n        /* \"#utility.yul\":11994:11998   */\n      0x24\n        /* \"#utility.yul\":11991:11992   */\n      0x00\n        /* \"#utility.yul\":11984:11999   */\n      revert\n        /* \"#utility.yul\":12011:12152   */\n    tag_159:\n        /* \"#utility.yul\":12060:12064   */\n      0x00\n        /* \"#utility.yul\":12083:12086   */\n      dup2\n        /* \"#utility.yul\":12075:12086   */\n      swap1\n      pop\n        /* \"#utility.yul\":12106:12109   */\n      dup2\n        /* \"#utility.yul\":12103:12104   */\n      0x00\n        /* \"#utility.yul\":12096:12110   */\n      mstore\n        /* \"#utility.yul\":12140:12144   */\n      0x20\n        /* \"#utility.yul\":12137:12138   */\n      0x00\n        /* \"#utility.yul\":12127:12145   */\n      keccak256\n        /* \"#utility.yul\":12119:12145   */\n      swap1\n      pop\n        /* \"#utility.yul\":12011:12152   */\n      swap2\n      swap1\n      pop\n      jump\t// out\n        /* \"#utility.yul\":12158:12251   */\n    tag_160:\n        /* \"#utility.yul\":12195:12201   */\n      0x00\n        /* \"#utility.yul\":12242:12244   */\n      0x20\n        /* \"#utility.yul\":12237:12239   */\n      0x1f\n        /* \"#utility.yul\":12230:12235   */\n      dup4\n        /* \"#utility.yul\":12226:12240   */\n      add\n        /* \"#utility.yul\":12222:12245   */\n      div\n        /* \"#utility.yul\":12212:12245   */\n      swap1\n      pop\n        /* \"#utility.yul\":12158:12251   */\n      swap2\n      swap1\n      pop\n      jump\t// out\n        /* \"#utility.yul\":12257:12364   */\n    tag_161:\n        /* \"#utility.yul\":12301:12309   */\n      0x00\n        /* \"#utility.yul\":12351:12356   */\n      dup3\n        /* \"#utility.yul\":12345:12349   */\n      dup3\n        /* \"#utility.yul\":12341:12357   */\n      shl\n        /* \"#utility.yul\":12320:12357   */\n      swap1\n      pop\n        /* \"#utility.yul\":12257:12364   */\n      swap3\n      swap2\n      pop\n      pop\n      jump\t// out\n        /* \"#utility.yul\":12370:12763   */\n    tag_162:\n        /* \"#utility.yul\":12439:12445   */\n      0x00\n        /* \"#utility.yul\":12489:12490   */\n      0x08\n        /* \"#utility.yul\":12477:12487   */\n      dup4\n        /* \"#utility.yul\":12473:12491   */\n      mul\n        /* \"#utility.yul\":12512:12609   */\n      tag_308\n        /* \"#utility.yul\":12542:12608   */\n      0xffffffffffffffffffffffffffffffffffffffffffffffffffffffffffffffff\n        /* \"#utility.yul\":12531:12540   */\n      dup3\n        /* \"#utility.yul\":12512:12609   */\n      tag_161\n      jump\t// in\n    tag_308:\n        /* \"#utility.yul\":12630:12669   */\n      tag_309\n        /* \"#utility.yul\":12660:12668   */\n      dup7\n        /* \"#utility.yul\":12649:12658   */\n      dup4\n        /* \"#utility.yul\":12630:12669   */\n      tag_161\n      jump\t// in\n    tag_309:\n        /* \"#utility.yul\":12618:12669   */\n      swap6\n      pop\n        /* \"#utility.yul\":12702:12706   */\n      dup1\n        /* \"#utility.yul\":12698:12707   */\n      not\n        /* \"#utility.yul\":12691:12696   */\n      dup5\n        /* \"#utility.yul\":12687:12708   */\n      and\n        /* \"#utility.yul\":12678:12708   */\n      swap4\n      pop\n        /* \"#utility.yul\":12751:12755   */\n      dup1\n        /* \"#utility.yul\":12741:12749   */\n      dup7\n        /* \"#utility.yul\":12737:12756   */\n      and\n        /* \"#utility.yul\":12730:12735   */\n      dup5\n        /* \"#utility.yul\":12727:12757   */\n      or\n        /* \"#utility.yul\":12717:12757   */\n      swap3\n      pop\n        /* \"#utility.yul\":12446:12763   */\n      pop\n      pop\n        /* \"#utility.yul\":12370:12763   */\n      swap4\n      swap3\n      pop\n      pop\n      pop\n      jump\t// out\n        /* \"#utility.yul\":12769:12829   */\n    tag_163:\n        /* \"#utility.yul\":12797:12800   */\n      0x00\n        /* \"#utility.yul\":12818:12823   */\n      dup2\n        /* \"#utility.yul\":12811:12823   */\n      swap1\n      pop\n        /* \"#utility.yul\":12769:12829   */\n      swap2\n      swap1\n      pop\n      jump\t// out\n        /* \"#utility.yul\":12835:12977   */\n    tag_164:\n        /* \"#utility.yul\":12885:12894   */\n      0x00\n        /* \"#utility.yul\":12918:12971   */\n      tag_312\n        /* \"#utility.yul\":12936:12970   */\n      tag_313\n        /* \"#utility.yul\":12945:12969   */\n      tag_314\n        /* \"#utility.yul\":12963:12968   */\n      dup5\n        /* \"#utility.yul\":12945:12969   */\n      tag_128\n      jump\t// in\n    tag_314:\n        /* \"#utility.yul\":12936:12970   */\n      tag_163\n      jump\t// in\n    tag_313:\n        /* \"#utility.yul\":12918:12971   */\n      tag_128\n      jump\t// in\n    tag_312:\n        /* \"#utility.yul\":12905:12971   */\n      swap1\n      pop\n        /* \"#utility.yul\":12835:12977   */\n      swap2\n      swap1\n      pop\n      jump\t// out\n        /* \"#utility.yul\":12983:13058   */\n    tag_165:\n        /* \"#utility.yul\":13026:13029   */\n      0x00\n        /* \"#utility.yul\":13047:13052   */\n      dup2\n        /* \"#utility.yul\":13040:13052   */\n      swap1\n      pop\n        /* \"#utility.yul\":12983:13058   */\n      swap2\n      swap1\n      pop\n      jump\t// out\n        /* \"#utility.yul\":13064:13333   */\n    tag_166:\n        /* \"#utility.yul\":13174:13213   */\n      tag_317\n        /* \"#utility.yul\":13205:13212   */\n      dup4\n        /* \"#utility.yul\":13174:13213   */\n      tag_164\n      jump\t// in\n    tag_317:\n        /* \"#utility.yul\":13235:13326   */\n      tag_318\n        /* \"#utility.yul\":13284:13325   */\n      tag_319\n        /* \"#utility.yul\":13308:13324   */\n      dup3\n        /* \"#utility.yul\":13284:13325   */\n      tag_165\n      jump\t// in\n    tag_319:\n        /* \"#utility.yul\":13276:13282   */\n      dup5\n        /* \"#utility.yul\":13269:13273   */\n      dup5\n        /* \"#utility.yul\":13263:13274   */\n      sload\n        /* \"#utility.yul\":13235:13326   */\n      tag_162\n      jump\t// in\n    tag_318:\n        /* \"#utility.yul\":13229:13233   */\n      dup3\n        /* \"#utility.yul\":13222:13327   */\n      sstore\n        /* \"#utility.yul\":13140:13333   */\n      pop\n        /* \"#utility.yul\":13064:13333   */\n      pop\n      pop\n      pop\n      jump\t// out\n        /* \"#utility.yul\":13339:13412   */\n    tag_167:\n        /* \"#utility.yul\":13384:13387   */\n      0x00\n        /* \"#utility.yul\":13339:13412   */\n      swap1\n      jump\t// out\n        /* \"#utility.yul\":13418:13607   */\n    tag_168:\n        /* \"#utility.yul\":13495:13527   */\n      tag_322\n      tag_167\n      jump\t// in\n    tag_322:\n        /* \"#utility.yul\":13536:13601   */\n      tag_323\n        /* \"#utility.yul\":13594:13600   */\n      dup2\n        /* \"#utility.yul\":13586:13592   */\n      dup5\n        /* \"#utility.yul\":13580:13584   */\n      dup5\n        /* \"#utility.yul\":13536:13601   */\n      tag_166\n      jump\t// in\n    tag_323:\n        /* \"#utility.yul\":13471:13607   */\n      pop\n        /* \"#utility.yul\":13418:13607   */\n      pop\n      pop\n      jump\t// out\n        /* \"#utility.yul\":13613:13799   */\n    tag_169:\n        /* \"#utility.yul\":13673:13793   */\n    tag_325:\n        /* \"#utility.yul\":13690:13693   */\n      dup2\n        /* \"#utility.yul\":13683:13688   */\n      dup2\n        /* \"#utility.yul\":13680:13694   */\n      lt\n        /* \"#utility.yul\":13673:13793   */\n      iszero\n      tag_327\n      jumpi\n        /* \"#utility.yul\":13744:13783   */\n      tag_328\n        /* \"#utility.yul\":13781:13782   */\n      0x00\n        /* \"#utility.yul\":13774:13779   */\n      dup3\n        /* \"#utility.yul\":13744:13783   */\n      tag_168\n      jump\t// in\n    tag_328:\n        /* \"#utility.yul\":13717:13718   */\n      0x01\n        /* \"#utility.yul\":13710:13715   */\n      dup2\n        /* \"#utility.yul\":13706:13719   */\n      add\n        /* \"#utility.yul\":13697:13719   */\n      swap1\n      pop\n        /* \"#utility.yul\":13673:13793   */\n      jump(tag_325)\n    tag_327:\n        /* \"#utility.yul\":13613:13799   */\n      pop\n      pop\n      jump\t// out\n        /* \"#utility.yul\":13805:14348   */\n    tag_170:\n        /* \"#utility.yul\":13906:13908   */\n      0x1f\n        /* \"#utility.yul\":13901:13904   */\n      dup3\n        /* \"#utility.yul\":13898:13909   */\n      gt\n        /* \"#utility.yul\":13895:14341   */\n      iszero\n      tag_330\n      jumpi\n        /* \"#utility.yul\":13940:13978   */\n      tag_331\n        /* \"#utility.yul\":13972:13977   */\n      dup2\n        /* \"#utility.yul\":13940:13978   */\n      tag_159\n      jump\t// in\n    tag_331:\n        /* \"#utility.yul\":14024:14053   */\n      tag_332\n        /* \"#utility.yul\":14042:14052   */\n      dup5\n        /* \"#utility.yul\":14024:14053   */\n      tag_160\n      jump\t// in\n    tag_332:\n        /* \"#utility.yul\":14014:14022   */\n      dup2\n        /* \"#utility.yul\":14010:14054   */\n      add\n        /* \"#utility.yul\":14207:14209   */\n      0x20\n        /* \"#utility.yul\":14195:14205   */\n      dup6\n        /* \"#utility.yul\":14192:14210   */\n      lt\n        /* \"#utility.yul\":14189:14238   */\n      iszero\n      tag_333\n      jumpi\n        /* \"#utility.yul\":14228:14236   */\n      dup2\n        /* \"#utility.yul\":14213:14236   */\n      swap1\n      pop\n        /* \"#utility.yul\":14189:14238   */\n    tag_333:\n        /* \"#utility.yul\":14251:14331   */\n      tag_334\n        /* \"#utility.yul\":14307:14329   */\n      tag_335\n        /* \"#utility.yul\":14325:14328   */\n      dup6\n        /* \"#utility.yul\":14307:14329   */\n      tag_160\n      jump\t// in\n    tag_335:\n        /* \"#utility.yul\":14297:14305   */\n      dup4\n        /* \"#utility.yul\":14293:14330   */\n      add\n        /* \"#utility.yul\":14280:14291   */\n      dup3\n        /* \"#utility.yul\":14251:14331   */\n      tag_169\n      jump\t// in\n    tag_334:\n        /* \"#utility.yul\":13910:14341   */\n      pop\n      pop\n        /* \"#utility.yul\":13895:14341   */\n    tag_330:\n        /* \"#utility.yul\":13805:14348   */\n      pop\n      pop\n      pop\n      jump\t// out\n        /* \"#utility.yul\":14354:14471   */\n    tag_171:\n        /* \"#utility.yul\":14408:14416   */\n      0x00\n        /* \"#utility.yul\":14458:14463   */\n      dup3\n        /* \"#utility.yul\":14452:14456   */\n      dup3\n        /* \"#utility.yul\":14448:14464   */\n      shr\n        /* \"#utility.yul\":14427:14464   */\n      swap1\n      pop\n        /* \"#utility.yul\":14354:14471   */\n      swap3\n      swap2\n      pop\n      pop\n      jump\t// out\n        /* \"#utility.yul\":14477:14646   */\n    tag_172:\n        /* \"#utility.yul\":14521:14527   */\n      0x00\n        /* \"#utility.yul\":14554:14605   */\n      tag_338\n        /* \"#utility.yul\":14602:14603   */\n      0x00\n        /* \"#utility.yul\":14598:14604   */\n      not\n        /* \"#utility.yul\":14590:14595   */\n      dup5\n        /* \"#utility.yul\":14587:14588   */\n      0x08\n        /* \"#utility.yul\":14583:14596   */\n      mul\n        /* \"#utility.yul\":14554:14605   */\n      tag_171\n      jump\t// in\n    tag_338:\n        /* \"#utility.yul\":14550:14606   */\n      not\n        /* \"#utility.yul\":14635:14639   */\n      dup1\n        /* \"#utility.yul\":14629:14633   */\n      dup4\n        /* \"#utility.yul\":14625:14640   */\n      and\n        /* \"#utility.yul\":14615:14640   */\n      swap2\n      pop\n        /* \"#utility.yul\":14528:14646   */\n      pop\n        /* \"#utility.yul\":14477:14646   */\n      swap3\n      swap2\n      pop\n      pop\n      jump\t// out\n        /* \"#utility.yul\":14651:14946   */\n    tag_173:\n        /* \"#utility.yul\":14727:14731   */\n      0x00\n        /* \"#utility.yul\":14873:14902   */\n      tag_340\n        /* \"#utility.yul\":14898:14901   */\n      dup4\n        /* \"#utility.yul\":14892:14896   */\n      dup4\n        /* \"#utility.yul\":14873:14902   */\n      tag_172\n      jump\t// in\n    tag_340:\n        /* \"#utility.yul\":14865:14902   */\n      swap2\n      pop\n        /* \"#utility.yul\":14935:14938   */\n      dup3\n        /* \"#utility.yul\":14932:14933   */\n      0x02\n        /* \"#utility.yul\":14928:14939   */\n      mul\n        /* \"#utility.yul\":14922:14926   */\n      dup3\n        /* \"#utility.yul\":14919:14940   */\n      or\n        /* \"#utility.yul\":14911:14940   */\n      swap1\n      pop\n        /* \"#utility.yul\":14651:14946   */\n      swap3\n      swap2\n      pop\n      pop\n      jump\t// out\n        /* \"#utility.yul\":14951:16346   */\n    tag_91:\n        /* \"#utility.yul\":15068:15105   */\n      tag_342\n        /* \"#utility.yul\":15101:15104   */\n      dup3\n        /* \"#utility.yul\":15068:15105   */\n      tag_131\n      jump\t// in\n    tag_342:\n        /* \"#utility.yul\":15170:15188   */\n      0xffffffffffffffff\n        /* \"#utility.yul\":15162:15168   */\n      dup2\n        /* \"#utility.yul\":15159:15189   */\n      gt\n        /* \"#utility.yul\":15156:15212   */\n      iszero\n      tag_343\n      jumpi\n        /* \"#utility.yul\":15192:15210   */\n      tag_344\n      tag_158\n      jump\t// in\n    tag_344:\n        /* \"#utility.yul\":15156:15212   */\n    tag_343:\n        /* \"#utility.yul\":15236:15274   */\n      tag_345\n        /* \"#utility.yul\":15268:15272   */\n      dup3\n        /* \"#utility.yul\":15262:15273   */\n      sload\n        /* \"#utility.yul\":15236:15274   */\n      tag_61\n      jump\t// in\n    tag_345:\n        /* \"#utility.yul\":15321:15388   */\n      tag_346\n        /* \"#utility.yul\":15381:15387   */\n      dup3\n        /* \"#utility.yul\":15373:15379   */\n      dup3\n        /* \"#utility.yul\":15367:15371   */\n      dup6\n        /* \"#utility.yul\":15321:15388   */\n      tag_170\n      jump\t// in\n    tag_346:\n        /* \"#utility.yul\":15415:15416   */\n      0x00\n        /* \"#utility.yul\":15439:15443   */\n      0x20\n        /* \"#utility.yul\":15426:15443   */\n      swap1\n      pop\n        /* \"#utility.yul\":15471:15473   */\n      0x1f\n        /* \"#utility.yul\":15463:15469   */\n      dup4\n        /* \"#utility.yul\":15460:15474   */\n      gt\n        /* \"#utility.yul\":15488:15489   */\n      0x01\n        /* \"#utility.yul\":15483:16101   */\n      dup2\n      eq\n      tag_348\n      jumpi\n        /* \"#utility.yul\":16145:16146   */\n      0x00\n        /* \"#utility.yul\":16162:16168   */\n      dup5\n        /* \"#utility.yul\":16159:16236   */\n      iszero\n      tag_349\n      jumpi\n        /* \"#utility.yul\":16211:16220   */\n      dup3\n        /* \"#utility.yul\":16206:16209   */\n      dup8\n        /* \"#utility.yul\":16202:16221   */\n      add\n        /* \"#utility.yul\":16196:16222   */\n      mload\n        /* \"#utility.yul\":16187:16222   */\n      swap1\n      pop\n        /* \"#utility.yul\":16159:16236   */\n    tag_349:\n        /* \"#utility.yul\":16262:16329   */\n      tag_350\n        /* \"#utility.yul\":16322:16328   */\n      dup6\n        /* \"#utility.yul\":16315:16320   */\n      dup3\n        /* \"#utility.yul\":16262:16329   */\n      tag_173\n      jump\t// in\n    tag_350:\n        /* \"#utility.yul\":16256:16260   */\n      dup7\n        /* \"#utility.yul\":16249:16330   */\n      sstore\n        /* \"#utility.yul\":16118:16340   */\n      pop\n        /* \"#utility.yul\":15453:16340   */\n      jump(tag_347)\n        /* \"#utility.yul\":15483:16101   */\n    tag_348:\n        /* \"#utility.yul\":15535:15539   */\n      0x1f\n        /* \"#utility.yul\":15531:15540   */\n      not\n        /* \"#utility.yul\":15523:15529   */\n      dup5\n        /* \"#utility.yul\":15519:15541   */\n      and\n        /* \"#utility.yul\":15569:15606   */\n      tag_351\n        /* \"#utility.yul\":15601:15605   */\n      dup7\n        /* \"#utility.yul\":15569:15606   */\n      tag_159\n      jump\t// in\n    tag_351:\n        /* \"#utility.yul\":15628:15629   */\n      0x00\n        /* \"#utility.yul\":15642:15850   */\n    tag_352:\n        /* \"#utility.yul\":15656:15663   */\n      dup3\n        /* \"#utility.yul\":15653:15654   */\n      dup2\n        /* \"#utility.yul\":15650:15664   */\n      lt\n        /* \"#utility.yul\":15642:15850   */\n      iszero\n      tag_354\n      jumpi\n        /* \"#utility.yul\":15735:15744   */\n      dup5\n        /* \"#utility.yul\":15730:15733   */\n      dup10\n        /* \"#utility.yul\":15726:15745   */\n      add\n        /* \"#utility.yul\":15720:15746   */\n      mload\n        /* \"#utility.yul\":15712:15718   */\n      dup3\n        /* \"#utility.yul\":15705:15747   */\n      sstore\n        /* \"#utility.yul\":15786:15787   */\n      0x01\n        /* \"#utility.yul\":15778:15784   */\n      dup3\n        /* \"#utility.yul\":15774:15788   */\n      add\n        /* \"#utility.yul\":15764:15788   */\n      swap2\n      pop\n        /* \"#utility.yul\":15833:15835   */\n      0x20\n        /* \"#utility.yul\":15822:15831   */\n      dup6\n        /* \"#utility.yul\":15818:15836   */\n      add\n        /* \"#utility.yul\":15805:15836   */\n      swap5\n      pop\n        /* \"#utility.yul\":15679:15683   */\n      0x20\n        /* \"#utility.yul\":15676:15677   */\n      dup2\n        /* \"#utility.yul\":15672:15684   */\n      add\n        /* \"#utility.yul\":15667:15684   */\n      swap1\n      pop\n        /* \"#utility.yul\":15642:15850   */\n      jump(tag_352)\n    tag_354:\n        /* \"#utility.yul\":15878:15884   */\n      dup7\n        /* \"#utility.yul\":15869:15876   */\n      dup4\n        /* \"#utility.yul\":15866:15885   */\n      lt\n        /* \"#utility.yul\":15863:16042   */\n      iszero\n      tag_355\n      jumpi\n        /* \"#utility.yul\":15936:15945   */\n      dup5\n        /* \"#utility.yul\":15931:15934   */\n      dup10\n        /* \"#utility.yul\":15927:15946   */\n      add\n        /* \"#utility.yul\":15921:15947   */\n      mload\n        /* \"#utility.yul\":15979:16027   */\n      tag_356\n        /* \"#utility.yul\":16021:16025   */\n      0x1f\n        /* \"#utility.yul\":16013:16019   */\n      dup10\n        /* \"#utility.yul\":16009:16026   */\n      and\n        /* \"#utility.yul\":15998:16007   */\n      dup3\n        /* \"#utility.yul\":15979:16027   */\n      tag_172\n      jump\t// in\n    tag_356:\n        /* \"#utility.yul\":15971:15977   */\n      dup4\n        /* \"#utility.yul\":15964:16028   */\n      sstore\n        /* \"#utility.yul\":15886:16042   */\n      pop\n        /* \"#utility.yul\":15863:16042   */\n    tag_355:\n        /* \"#utility.yul\":16088:16089   */\n      0x01\n        /* \"#utility.yul\":16084:16085   */\n      0x02\n        /* \"#utility.yul\":16076:16082   */\n      dup9\n        /* \"#utility.yul\":16072:16086   */\n      mul\n        /* \"#utility.yul\":16068:16090   */\n      add\n        /* \"#utility.yul\":16062:16066   */\n      dup9\n        /* \"#utility.yul\":16055:16091   */\n      sstore\n        /* \"#utility.yul\":15490:16101   */\n      pop\n      pop\n      pop\n        /* \"#utility.yul\":15453:16340   */\n    tag_347:\n      pop\n        /* \"#utility.yul\":15043:16346   */\n      pop\n      pop\n      pop\n        /* \"#utility.yul\":14951:16346   */\n      pop\n      pop\n      jump\t// out\n        /* \"#utility.yul\":16352:16546   */\n    tag_93:\n        /* \"#utility.yul\":16392:16396   */\n      0x00\n        /* \"#utility.yul\":16412:16432   */\n      tag_358\n        /* \"#utility.yul\":16430:16431   */\n      dup3\n        /* \"#utility.yul\":16412:16432   */\n      tag_128\n      jump\t// in\n    tag_358:\n        /* \"#utility.yul\":16407:16432   */\n      swap2\n      pop\n        /* \"#utility.yul\":16446:16466   */\n      tag_359\n        /* \"#utility.yul\":16464:16465   */\n      dup4\n        /* \"#utility.yul\":16446:16466   */\n      tag_128\n      jump\t// in\n    tag_359:\n        /* \"#utility.yul\":16441:16466   */\n      swap3\n      pop\n        /* \"#utility.yul\":16490:16491   */\n      dup3\n        /* \"#utility.yul\":16487:16488   */\n      dup3\n        /* \"#utility.yul\":16483:16492   */\n      sub\n        /* \"#utility.yul\":16475:16492   */\n      swap1\n      pop\n        /* \"#utility.yul\":16514:16515   */\n      dup2\n        /* \"#utility.yul\":16508:16512   */\n      dup2\n        /* \"#utility.yul\":16505:16516   */\n      gt\n        /* \"#utility.yul\":16502:16539   */\n      iszero\n      tag_360\n      jumpi\n        /* \"#utility.yul\":16519:16537   */\n      tag_361\n      tag_157\n      jump\t// in\n    tag_361:\n        /* \"#utility.yul\":16502:16539   */\n    tag_360:\n        /* \"#utility.yul\":16352:16546   */\n      swap3\n      swap2\n      pop\n      pop\n      jump\t// out\n        /* \"#utility.yul\":16552:16700   */\n    tag_174:\n        /* \"#utility.yul\":16650:16656   */\n      dup3\n        /* \"#utility.yul\":16645:16648   */\n      dup2\n        /* \"#utility.yul\":16640:16643   */\n      dup4\n        /* \"#utility.yul\":16627:16657   */\n      calldatacopy\n        /* \"#utility.yul\":16691:16692   */\n      0x00\n        /* \"#utility.yul\":16682:16688   */\n      dup4\n        /* \"#utility.yul\":16677:16680   */\n      dup4\n        /* \"#utility.yul\":16673:16689   */\n      add\n        /* \"#utility.yul\":16666:16693   */\n      mstore\n        /* \"#utility.yul\":16552:16700   */\n      pop\n      pop\n      pop\n      jump\t// out\n        /* \"#utility.yul\":16730:17047   */\n    tag_175:\n        /* \"#utility.yul\":16828:16831   */\n      0x00\n        /* \"#utility.yul\":16849:16920   */\n      tag_364\n        /* \"#utility.yul\":16913:16919   */\n      dup4\n        /* \"#utility.yul\":16908:16911   */\n      dup6\n        /* \"#utility.yul\":16849:16920   */\n      tag_132\n      jump\t// in\n    tag_364:\n        /* \"#utility.yul\":16842:16920   */\n      swap4\n      pop\n        /* \"#utility.yul\":16930:16986   */\n      tag_365\n        /* \"#utility.yul\":16979:16985   */\n      dup4\n        /* \"#utility.yul\":16974:16977   */\n      dup6\n        /* \"#utility.yul\":16967:16972   */\n      dup5\n        /* \"#utility.yul\":16930:16986   */\n      tag_174\n      jump\t// in\n    tag_365:\n        /* \"#utility.yul\":17011:17040   */\n      tag_366\n        /* \"#utility.yul\":17033:17039   */\n      dup4\n        /* \"#utility.yul\":17011:17040   */\n      tag_134\n      jump\t// in\n    tag_366:\n        /* \"#utility.yul\":17006:17009   */\n      dup5\n        /* \"#utility.yul\":17002:17041   */\n      add\n        /* \"#utility.yul\":16995:17041   */\n      swap1\n      pop\n        /* \"#utility.yul\":16730:17047   */\n      swap4\n      swap3\n      pop\n      pop\n      pop\n      jump\t// out\n        /* \"#utility.yul\":17053:17606   */\n    tag_96:\n        /* \"#utility.yul\":17232:17236   */\n      0x00\n        /* \"#utility.yul\":17270:17272   */\n      0x60\n        /* \"#utility.yul\":17259:17268   */\n      dup3\n        /* \"#utility.yul\":17255:17273   */\n      add\n        /* \"#utility.yul\":17247:17273   */\n      swap1\n      pop\n        /* \"#utility.yul\":17283:17354   */\n      tag_368\n        /* \"#utility.yul\":17351:17352   */\n      0x00\n        /* \"#utility.yul\":17340:17349   */\n      dup4\n        /* \"#utility.yul\":17336:17353   */\n      add\n        /* \"#utility.yul\":17327:17333   */\n      dup8\n        /* \"#utility.yul\":17283:17354   */\n      tag_136\n      jump\t// in\n    tag_368:\n        /* \"#utility.yul\":17401:17410   */\n      dup2\n        /* \"#utility.yul\":17395:17399   */\n      dup2\n        /* \"#utility.yul\":17391:17411   */\n      sub\n        /* \"#utility.yul\":17386:17388   */\n      0x20\n        /* \"#utility.yul\":17375:17384   */\n      dup4\n        /* \"#utility.yul\":17371:17389   */\n      add\n        /* \"#utility.yul\":17364:17412   */\n      mstore\n        /* \"#utility.yul\":17429:17517   */\n      tag_369\n        /* \"#utility.yul\":17512:17516   */\n      dup2\n        /* \"#utility.yul\":17503:17509   */\n      dup6\n        /* \"#utility.yul\":17495:17501   */\n      dup8\n        /* \"#utility.yul\":17429:17517   */\n      tag_175\n      jump\t// in\n    tag_369:\n        /* \"#utility.yul\":17421:17517   */\n      swap1\n      pop\n        /* \"#utility.yul\":17527:17599   */\n      tag_370\n        /* \"#utility.yul\":17595:17597   */\n      0x40\n        /* \"#utility.yul\":17584:17593   */\n      dup4\n        /* \"#utility.yul\":17580:17598   */\n      add\n        /* \"#utility.yul\":17571:17577   */\n      dup5\n        /* \"#utility.yul\":17527:17599   */\n      tag_136\n      jump\t// in\n    tag_370:\n        /* \"#utility.yul\":17053:17606   */\n      swap6\n      swap5\n      pop\n      pop\n      pop\n      pop\n      pop\n      jump\t// out\n        /* \"#utility.yul\":17612:17786   */\n    tag_176:\n        /* \"#utility.yul\":17752:17778   */\n      0x496e636f7272656374206d656d62657273686970206665650000000000000000\n        /* \"#utility.yul\":17748:17749   */\n      0x00\n        /* \"#utility.yul\":17740:17746   */\n      dup3\n        /* \"#utility.yul\":17736:17750   */\n      add\n        /* \"#utility.yul\":17729:17779   */\n      mstore\n        /* \"#utility.yul\":17612:17786   */\n      pop\n      jump\t// out\n        /* \"#utility.yul\":17792:18158   */\n    tag_177:\n        /* \"#utility.yul\":17934:17937   */\n      0x00\n        /* \"#utility.yul\":17955:18022   */\n      tag_373\n        /* \"#utility.yul\":18019:18021   */\n      0x18\n        /* \"#utility.yul\":18014:18017   */\n      dup4\n        /* \"#utility.yul\":17955:18022   */\n      tag_132\n      jump\t// in\n    tag_373:\n        /* \"#utility.yul\":17948:18022   */\n      swap2\n      pop\n        /* \"#utility.yul\":18031:18124   */\n      tag_374\n        /* \"#utility.yul\":18120:18123   */\n      dup3\n        /* \"#utility.yul\":18031:18124   */\n      tag_176\n      jump\t// in\n    tag_374:\n        /* \"#utility.yul\":18149:18151   */\n      0x20\n        /* \"#utility.yul\":18144:18147   */\n      dup3\n        /* \"#utility.yul\":18140:18152   */\n      add\n        /* \"#utility.yul\":18133:18152   */\n      swap1\n      pop\n        /* \"#utility.yul\":17792:18158   */\n      swap2\n      swap1\n      pop\n      jump\t// out\n        /* \"#utility.yul\":18164:18583   */\n    tag_100:\n        /* \"#utility.yul\":18330:18334   */\n      0x00\n        /* \"#utility.yul\":18368:18370   */\n      0x20\n        /* \"#utility.yul\":18357:18366   */\n      dup3\n        /* \"#utility.yul\":18353:18371   */\n      add\n        /* \"#utility.yul\":18345:18371   */\n      swap1\n      pop\n        /* \"#utility.yul\":18417:18426   */\n      dup2\n        /* \"#utility.yul\":18411:18415   */\n      dup2\n        /* \"#utility.yul\":18407:18427   */\n      sub\n        /* \"#utility.yul\":18403:18404   */\n      0x00\n        /* \"#utility.yul\":18392:18401   */\n      dup4\n        /* \"#utility.yul\":18388:18405   */\n      add\n        /* \"#utility.yul\":18381:18428   */\n      mstore\n        /* \"#utility.yul\":18445:18576   */\n      tag_376\n        /* \"#utility.yul\":18571:18575   */\n      dup2\n        /* \"#utility.yul\":18445:18576   */\n      tag_177\n      jump\t// in\n    tag_376:\n        /* \"#utility.yul\":18437:18576   */\n      swap1\n      pop\n        /* \"#utility.yul\":18164:18583   */\n      swap2\n      swap1\n      pop\n      jump\t// out\n        /* \"#utility.yul\":18589:18755   */\n    tag_178:\n        /* \"#utility.yul\":18729:18747   */\n      0x416c72656164792061206d656d62657200000000000000000000000000000000\n        /* \"#utility.yul\":18725:18726   */\n      0x00\n        /* \"#utility.yul\":18717:18723   */\n      dup3\n        /* \"#utility.yul\":18713:18727   */\n      add\n        /* \"#utility.yul\":18706:18748   */\n      mstore\n        /* \"#utility.yul\":18589:18755   */\n      pop\n      jump\t// out\n        /* \"#utility.yul\":18761:19127   */\n    tag_179:\n        /* \"#utility.yul\":18903:18906   */\n      0x00\n        /* \"#utility.yul\":18924:18991   */\n      tag_379\n        /* \"#utility.yul\":18988:18990   */\n      0x10\n        /* \"#utility.yul\":18983:18986   */\n      dup4\n        /* \"#utility.yul\":18924:18991   */\n      tag_132\n      jump\t// in\n    tag_379:\n        /* \"#utility.yul\":18917:18991   */\n      swap2\n      pop\n        /* \"#utility.yul\":19000:19093   */\n      tag_380\n        /* \"#utility.yul\":19089:19092   */\n      dup3\n        /* \"#utility.yul\":19000:19093   */\n      tag_178\n      jump\t// in\n    tag_380:\n        /* \"#utility.yul\":19118:19120   */\n      0x20\n        /* \"#utility.yul\":19113:19116   */\n      dup3\n        /* \"#utility.yul\":19109:19121   */\n      add\n        /* \"#utility.yul\":19102:19121   */\n      swap1\n      pop\n        /* \"#utility.yul\":18761:19127   */\n      swap2\n      swap1\n      pop\n      jump\t// out\n        /* \"#utility.yul\":19133:19552   */\n    tag_103:\n        /* \"#utility.yul\":19299:19303   */\n      0x00\n        /* \"#utility.yul\":19337:19339   */\n      0x20\n        /* \"#utility.yul\":19326:19335   */\n      dup3\n        /* \"#utility.yul\":19322:19340   */\n      add\n        /* \"#utility.yul\":19314:19340   */\n      swap1\n      pop\n        /* \"#utility.yul\":19386:19395   */\n      dup2\n        /* \"#utility.yul\":19380:19384   */\n      dup2\n        /* \"#utility.yul\":19376:19396   */\n      sub\n        /* \"#utility.yul\":19372:19373   */\n      0x00\n        /* \"#utility.yul\":19361:19370   */\n      dup4\n        /* \"#utility.yul\":19357:19374   */\n      add\n        /* \"#utility.yul\":19350:19397   */\n      mstore\n        /* \"#utility.yul\":19414:19545   */\n      tag_382\n        /* \"#utility.yul\":19540:19544   */\n      dup2\n        /* \"#utility.yul\":19414:19545   */\n      tag_179\n      jump\t// in\n    tag_382:\n        /* \"#utility.yul\":19406:19545   */\n      swap1\n      pop\n        /* \"#utility.yul\":19133:19552   */\n      swap2\n      swap1\n      pop\n      jump\t// out\n        /* \"#utility.yul\":19558:19726   */\n    tag_180:\n        /* \"#utility.yul\":19698:19718   */\n      0x566f74696e6720706572696f64206f7665720000000000000000000000000000\n        /* \"#utility.yul\":19694:19695   */\n      0x00\n        /* \"#utility.yul\":19686:19692   */\n      dup3\n        /* \"#utility.yul\":19682:19696   */\n      add\n        /* \"#utility.yul\":19675:19719   */\n      mstore\n        /* \"#utility.yul\":19558:19726   */\n      pop\n      jump\t// out\n        /* \"#utility.yul\":19732:20098   */\n    tag_181:\n        /* \"#utility.yul\":19874:19877   */\n      0x00\n        /* \"#utility.yul\":19895:19962   */\n      tag_385\n        /* \"#utility.yul\":19959:19961   */\n      0x12\n        /* \"#utility.yul\":19954:19957   */\n      dup4\n        /* \"#utility.yul\":19895:19962   */\n      tag_132\n      jump\t// in\n    tag_385:\n        /* \"#utility.yul\":19888:19962   */\n      swap2\n      pop\n        /* \"#utility.yul\":19971:20064   */\n      tag_386\n        /* \"#utility.yul\":20060:20063   */\n      dup3\n        /* \"#utility.yul\":19971:20064   */\n      tag_180\n      jump\t// in\n    tag_386:\n        /* \"#utility.yul\":20089:20091   */\n      0x20\n        /* \"#utility.yul\":20084:20087   */\n      dup3\n        /* \"#utility.yul\":20080:20092   */\n      add\n        /* \"#utility.yul\":20073:20092   */\n      swap1\n      pop\n        /* \"#utility.yul\":19732:20098   */\n      swap2\n      swap1\n      pop\n      jump\t// out\n        /* \"#utility.yul\":20104:20523   */\n    tag_114:\n        /* \"#utility.yul\":20270:20274   */\n      0x00\n        /* \"#utility.yul\":20308:20310   */\n      0x20\n        /* \"#utility.yul\":20297:20306   */\n      dup3\n        /* \"#utility.yul\":20293:20311   */\n      add\n        /* \"#utility.yul\":20285:20311   */\n      swap1\n      pop\n        /* \"#utility.yul\":20357:20366   */\n      dup2\n        /* \"#utility.yul\":20351:20355   */\n      dup2\n        /* \"#utility.yul\":20347:20367   */\n      sub\n        /* \"#utility.yul\":20343:20344   */\n      0x00\n        /* \"#utility.yul\":20332:20341   */\n      dup4\n        /* \"#utility.yul\":20328:20345   */\n      add\n        /* \"#utility.yul\":20321:20368   */\n      mstore\n        /* \"#utility.yul\":20385:20516   */\n      tag_388\n        /* \"#utility.yul\":20511:20515   */\n      dup2\n        /* \"#utility.yul\":20385:20516   */\n      tag_181\n      jump\t// in\n    tag_388:\n        /* \"#utility.yul\":20377:20516   */\n      swap1\n      pop\n        /* \"#utility.yul\":20104:20523   */\n      swap2\n      swap1\n      pop\n      jump\t// out\n        /* \"#utility.yul\":20529:20692   */\n    tag_182:\n        /* \"#utility.yul\":20669:20684   */\n      0x416c726561647920766f74656400000000000000000000000000000000000000\n        /* \"#utility.yul\":20665:20666   */\n      0x00\n        /* \"#utility.yul\":20657:20663   */\n      dup3\n        /* \"#utility.yul\":20653:20667   */\n      add\n        /* \"#utility.yul\":20646:20685   */\n      mstore\n        /* \"#utility.yul\":20529:20692   */\n      pop\n      jump\t// out\n        /* \"#utility.yul\":20698:21064   */\n    tag_183:\n        /* \"#utility.yul\":20840:20843   */\n      0x00\n        /* \"#utility.yul\":20861:20928   */\n      tag_391\n        /* \"#utility.yul\":20925:20927   */\n      0x0d\n        /* \"#utility.yul\":20920:20923   */\n      dup4\n        /* \"#utility.yul\":20861:20928   */\n      tag_132\n      jump\t// in\n    tag_391:\n        /* \"#utility.yul\":20854:20928   */\n      swap2\n      pop\n        /* \"#utility.yul\":20937:21030   */\n      tag_392\n        /* \"#utility.yul\":21026:21029   */\n      dup3\n        /* \"#utility.yul\":20937:21030   */\n      tag_182\n      jump\t// in\n    tag_392:\n        /* \"#utility.yul\":21055:21057   */\n      0x20\n        /* \"#utility.yul\":21050:21053   */\n      dup3\n        /* \"#utility.yul\":21046:21058   */\n      add\n        /* \"#utility.yul\":21039:21058   */\n      swap1\n      pop\n        /* \"#utility.yul\":20698:21064   */\n      swap2\n      swap1\n      pop\n      jump\t// out\n        /* \"#utility.yul\":21070:21489   */\n    tag_117:\n        /* \"#utility.yul\":21236:21240   */\n      0x00\n        /* \"#utility.yul\":21274:21276   */\n      0x20\n        /* \"#utility.yul\":21263:21272   */\n      dup3\n        /* \"#utility.yul\":21259:21277   */\n      add\n        /* \"#utility.yul\":21251:21277   */\n      swap1\n      pop\n        /* \"#utility.yul\":21323:21332   */\n      dup2\n        /* \"#utility.yul\":21317:21321   */\n      dup2\n        /* \"#utility.yul\":21313:21333   */\n      sub\n        /* \"#utility.yul\":21309:21310   */\n      0x00\n        /* \"#utility.yul\":21298:21307   */\n      dup4\n        /* \"#utility.yul\":21294:21311   */\n      add\n        /* \"#utility.yul\":21287:21334   */\n      mstore\n        /* \"#utility.yul\":21351:21482   */\n      tag_394\n        /* \"#utility.yul\":21477:21481   */\n      dup2\n        /* \"#utility.yul\":21351:21482   */\n      tag_183\n      jump\t// in\n    tag_394:\n        /* \"#utility.yul\":21343:21482   */\n      swap1\n      pop\n        /* \"#utility.yul\":21070:21489   */\n      swap2\n      swap1\n      pop\n      jump\t// out\n        /* \"#utility.yul\":21495:21728   */\n    tag_120:\n        /* \"#utility.yul\":21534:21537   */\n      0x00\n        /* \"#utility.yul\":21557:21581   */\n      tag_396\n        /* \"#utility.yul\":21575:21580   */\n      dup3\n        /* \"#utility.yul\":21557:21581   */\n      tag_128\n      jump\t// in\n    tag_396:\n        /* \"#utility.yul\":21548:21581   */\n      swap2\n      pop\n        /* \"#utility.yul\":21603:21669   */\n      0xffffffffffffffffffffffffffffffffffffffffffffffffffffffffffffffff\n        /* \"#utility.yul\":21596:21601   */\n      dup3\n        /* \"#utility.yul\":21593:21670   */\n      sub\n        /* \"#utility.yul\":21590:21693   */\n      tag_397\n      jumpi\n        /* \"#utility.yul\":21673:21691   */\n      tag_398\n      tag_157\n      jump\t// in\n    tag_398:\n        /* \"#utility.yul\":21590:21693   */\n    tag_397:\n        /* \"#utility.yul\":21720:21721   */\n      0x01\n        /* \"#utility.yul\":21713:21718   */\n      dup3\n        /* \"#utility.yul\":21709:21722   */\n      add\n        /* \"#utility.yul\":21702:21722   */\n      swap1\n      pop\n        /* \"#utility.yul\":21495:21728   */\n      swap2\n      swap1\n      pop\n      jump\t// out\n        /* \"#utility.yul\":21734:22164   */\n    tag_124:\n        /* \"#utility.yul\":21877:21881   */\n      0x00\n        /* \"#utility.yul\":21915:21917   */\n      0x60\n        /* \"#utility.yul\":21904:21913   */\n      dup3\n        /* \"#utility.yul\":21900:21918   */\n      add\n        /* \"#utility.yul\":21892:21918   */\n      swap1\n      pop\n        /* \"#utility.yul\":21928:21999   */\n      tag_400\n        /* \"#utility.yul\":21996:21997   */\n      0x00\n        /* \"#utility.yul\":21985:21994   */\n      dup4\n        /* \"#utility.yul\":21981:21998   */\n      add\n        /* \"#utility.yul\":21972:21978   */\n      dup7\n        /* \"#utility.yul\":21928:21999   */\n      tag_136\n      jump\t// in\n    tag_400:\n        /* \"#utility.yul\":22009:22081   */\n      tag_401\n        /* \"#utility.yul\":22077:22079   */\n      0x20\n        /* \"#utility.yul\":22066:22075   */\n      dup4\n        /* \"#utility.yul\":22062:22080   */\n      add\n        /* \"#utility.yul\":22053:22059   */\n      dup6\n        /* \"#utility.yul\":22009:22081   */\n      tag_147\n      jump\t// in\n    tag_401:\n        /* \"#utility.yul\":22091:22157   */\n      tag_402\n        /* \"#utility.yul\":22153:22155   */\n      0x40\n        /* \"#utility.yul\":22142:22151   */\n      dup4\n        /* \"#utility.yul\":22138:22156   */\n      add\n        /* \"#utility.yul\":22129:22135   */\n      dup5\n        /* \"#utility.yul\":22091:22157   */\n      tag_138\n      jump\t// in\n    tag_402:\n        /* \"#utility.yul\":21734:22164   */\n      swap5\n      swap4\n      pop\n      pop\n      pop\n      pop\n      jump\t// out\n\n    auxdata: 0xa26469706673582212202a94c855981d062c03eb7f8e5f282b4c48a85be6c42ecfee46b2c4da49d0fb0564736f6c634300081a0033\n}\n",
				"bytecode": {
					"linkReferences": {},
					"object": "6080604052348015600e575f80fd5b506040516116ff3803806116ff8339818101604052810190602e919060ab565b335f806101000a81548173ffffffffffffffffffffffffffffffffffffffff021916908373ffffffffffffffffffffffffffffffffffffffff160217905550806001819055505060d1565b5f80fd5b5f819050919050565b608d81607d565b81146096575f80fd5b50565b5f8151905060a5816086565b92915050565b5f6020828403121560bd5760bc6079565b5b5f60c8848285016099565b91505092915050565b611621806100de5f395ff3fe608060405260043610610085575f3560e01c80638da5cb5b116100585780638da5cb5b146101555780639f2524ee1461017f578063b688a363146101bb578063c713a289146101c5578063c9d27afe146101ef57610085565b8063013cf08b1461008957806308ae4b0c146100c95780630d61b5191461010557806335facf781461012d575b5f80fd5b348015610094575f80fd5b506100af60048036038101906100aa9190610ae3565b610217565b6040516100c0959493929190610ba7565b60405180910390f35b3480156100d4575f80fd5b506100ef60048036038101906100ea9190610c59565b6102ea565b6040516100fc9190610c84565b60405180910390f35b348015610110575f80fd5b5061012b60048036038101906101269190610ae3565b610307565b005b348015610138575f80fd5b50610153600480360381019061014e9190610cfe565b6104b3565b005b348015610160575f80fd5b5061016961068c565b6040516101769190610d6a565b60405180910390f35b34801561018a575f80fd5b506101a560048036038101906101a09190610d83565b6106af565b6040516101b29190610c84565b60405180910390f35b6101c36106d9565b005b3480156101d0575f80fd5b506101d9610835565b6040516101e69190610dc1565b60405180910390f35b3480156101fa575f80fd5b5061021560048036038101906102109190610e04565b61083b565b005b60038181548110610226575f80fd5b905f5260205f2090600502015f91509050805f01805461024590610e6f565b80601f016020809104026020016040519081016040528092919081815260200182805461027190610e6f565b80156102bc5780601f10610293576101008083540402835291602001916102bc565b820191905f5260205f20905b81548152906001019060200180831161029f57829003601f168201915b505050505090806001015490806002015490806003015490806004015f9054906101000a900460ff16905085565b6002602052805f5260405f205f915054906101000a900460ff1681565b60025f3373ffffffffffffffffffffffffffffffffffffffff1673ffffffffffffffffffffffffffffffffffffffff1681526020019081526020015f205f9054906101000a900460ff16610390576040517f08c379a000000000000000000000000000000000000000000000000000000000815260040161038790610ee9565b60405180910390fd5b5f600382815481106103a5576103a4610f07565b5b905f5260205f209060050201905080600101544210156103fa576040517f08c379a00000000000000000000000000000000000000000000000000000000081526004016103f190610f7e565b60405180910390fd5b806004015f9054906101000a900460ff161561044b576040517f08c379a000000000000000000000000000000000000000000000000000000000815260040161044290610fe6565b60405180910390fd5b6001816004015f6101000a81548160ff0219169083151502179055505f816003015482600201541190507f948f4a9cd986f1118c3fbd459f7a22b23c0693e1ca3ef06a6a8be5aa7d39cc0383826040516104a6929190611004565b60405180910390a1505050565b60025f3373ffffffffffffffffffffffffffffffffffffffff1673ffffffffffffffffffffffffffffffffffffffff1681526020019081526020015f205f9054906101000a900460ff1661053c576040517f08c379a000000000000000000000000000000000000000000000000000000000815260040161053390610ee9565b60405180910390fd5b60036040518060a0016040528085858080601f0160208091040260200160405190810160405280939291908181526020018383808284375f81840152601f19601f820116905080830192505050505050508152602001834261059e9190611058565b81526020015f81526020015f81526020015f1515815250908060018154018082558091505060019003905f5260205f2090600502015f909190919091505f820151815f0190816105ee9190611255565b506020820151816001015560408201518160020155606082015181600301556080820151816004015f6101000a81548160ff02191690831515021790555050507ff5dc0da9afa6d080780a49fd8c680f03d2ddf3c067cd6d0c85360c096644d2d360016003805490506106619190611324565b8484844261066f9190611058565b60405161067f9493929190611391565b60405180910390a1505050565b5f8054906101000a900473ffffffffffffffffffffffffffffffffffffffff1681565b6004602052815f5260405f20602052805f5260405f205f915091509054906101000a900460ff1681565b600154341461071d576040517f08c379a000000000000000000000000000000000000000000000000000000000815260040161071490611419565b60405180910390fd5b60025f3373ffffffffffffffffffffffffffffffffffffffff1673ffffffffffffffffffffffffffffffffffffffff1681526020019081526020015f205f9054906101000a900460ff16156107a7576040517f08c379a000000000000000000000000000000000000000000000000000000000815260040161079e90611481565b60405180910390fd5b600160025f3373ffffffffffffffffffffffffffffffffffffffff1673ffffffffffffffffffffffffffffffffffffffff1681526020019081526020015f205f6101000a81548160ff0219169083151502179055507f7073afa60b48e833a1a66ebb442bc8e0d19e9f3cc05f34bdcd1da22c8d87f2753360405161082b9190610d6a565b60405180910390a1565b60015481565b60025f3373ffffffffffffffffffffffffffffffffffffffff1673ffffffffffffffffffffffffffffffffffffffff1681526020019081526020015f205f9054906101000a900460ff166108c4576040517f08c379a00000000000000000000000000000000000000000000000000000000081526004016108bb90610ee9565b60405180910390fd5b5f600383815481106108d9576108d8610f07565b5b905f5260205f20906005020190508060010154421061092d576040517f08c379a0000000000000000000000000000000000000000000000000000000008152600401610924906114e9565b60405180910390fd5b60045f3373ffffffffffffffffffffffffffffffffffffffff1673ffffffffffffffffffffffffffffffffffffffff1681526020019081526020015f205f8481526020019081526020015f205f9054906101000a900460ff16156109c6576040517f08c379a00000000000000000000000000000000000000000000000000000000081526004016109bd90611551565b60405180910390fd5b600160045f3373ffffffffffffffffffffffffffffffffffffffff1673ffffffffffffffffffffffffffffffffffffffff1681526020019081526020015f205f8581526020019081526020015f205f6101000a81548160ff0219169083151502179055508115610a4e57806002015f815480929190610a449061156f565b9190505550610a68565b806003015f815480929190610a629061156f565b91905055505b7ff2913dbe661ee2acc4a046d8fbcdc792373bda34c41c6086484b5345e5785e5f833384604051610a9b939291906115b6565b60405180910390a1505050565b5f80fd5b5f80fd5b5f819050919050565b610ac281610ab0565b8114610acc575f80fd5b50565b5f81359050610add81610ab9565b92915050565b5f60208284031215610af857610af7610aa8565b5b5f610b0584828501610acf565b91505092915050565b5f81519050919050565b5f82825260208201905092915050565b8281835e5f83830152505050565b5f601f19601f8301169050919050565b5f610b5082610b0e565b610b5a8185610b18565b9350610b6a818560208601610b28565b610b7381610b36565b840191505092915050565b610b8781610ab0565b82525050565b5f8115159050919050565b610ba181610b8d565b82525050565b5f60a0820190508181035f830152610bbf8188610b46565b9050610bce6020830187610b7e565b610bdb6040830186610b7e565b610be86060830185610b7e565b610bf56080830184610b98565b9695505050505050565b5f73ffffffffffffffffffffffffffffffffffffffff82169050919050565b5f610c2882610bff565b9050919050565b610c3881610c1e565b8114610c42575f80fd5b50565b5f81359050610c5381610c2f565b92915050565b5f60208284031215610c6e57610c6d610aa8565b5b5f610c7b84828501610c45565b91505092915050565b5f602082019050610c975f830184610b98565b92915050565b5f80fd5b5f80fd5b5f80fd5b5f8083601f840112610cbe57610cbd610c9d565b5b8235905067ffffffffffffffff811115610cdb57610cda610ca1565b5b602083019150836001820283011115610cf757610cf6610ca5565b5b9250929050565b5f805f60408486031215610d1557610d14610aa8565b5b5f84013567ffffffffffffffff811115610d3257610d31610aac565b5b610d3e86828701610ca9565b93509350506020610d5186828701610acf565b9150509250925092565b610d6481610c1e565b82525050565b5f602082019050610d7d5f830184610d5b565b92915050565b5f8060408385031215610d9957610d98610aa8565b5b5f610da685828601610c45565b9250506020610db785828601610acf565b9150509250929050565b5f602082019050610dd45f830184610b7e565b92915050565b610de381610b8d565b8114610ded575f80fd5b50565b5f81359050610dfe81610dda565b92915050565b5f8060408385031215610e1a57610e19610aa8565b5b5f610e2785828601610acf565b9250506020610e3885828601610df0565b9150509250929050565b7f4e487b71000000000000000000000000000000000000000000000000000000005f52602260045260245ffd5b5f6002820490506001821680610e8657607f821691505b602082108103610e9957610e98610e42565b5b50919050565b7f4e6f742061206d656d62657200000000000000000000000000000000000000005f82015250565b5f610ed3600c83610b18565b9150610ede82610e9f565b602082019050919050565b5f6020820190508181035f830152610f0081610ec7565b9050919050565b7f4e487b71000000000000000000000000000000000000000000000000000000005f52603260045260245ffd5b7f566f74696e6720706572696f64206e6f74206f766572000000000000000000005f82015250565b5f610f68601683610b18565b9150610f7382610f34565b602082019050919050565b5f6020820190508181035f830152610f9581610f5c565b9050919050565b7f50726f706f73616c20616c7265616479206578656375746564000000000000005f82015250565b5f610fd0601983610b18565b9150610fdb82610f9c565b602082019050919050565b5f6020820190508181035f830152610ffd81610fc4565b9050919050565b5f6040820190506110175f830185610b7e565b6110246020830184610b98565b9392505050565b7f4e487b71000000000000000000000000000000000000000000000000000000005f52601160045260245ffd5b5f61106282610ab0565b915061106d83610ab0565b92508282019050808211156110855761108461102b565b5b92915050565b7f4e487b71000000000000000000000000000000000000000000000000000000005f52604160045260245ffd5b5f819050815f5260205f209050919050565b5f6020601f8301049050919050565b5f82821b905092915050565b5f600883026111147fffffffffffffffffffffffffffffffffffffffffffffffffffffffffffffffff826110d9565b61111e86836110d9565b95508019841693508086168417925050509392505050565b5f819050919050565b5f61115961115461114f84610ab0565b611136565b610ab0565b9050919050565b5f819050919050565b6111728361113f565b61118661117e82611160565b8484546110e5565b825550505050565b5f90565b61119a61118e565b6111a5818484611169565b505050565b5b818110156111c8576111bd5f82611192565b6001810190506111ab565b5050565b601f82111561120d576111de816110b8565b6111e7846110ca565b810160208510156111f6578190505b61120a611202856110ca565b8301826111aa565b50505b505050565b5f82821c905092915050565b5f61122d5f1984600802611212565b1980831691505092915050565b5f611245838361121e565b9150826002028217905092915050565b61125e82610b0e565b67ffffffffffffffff8111156112775761127661108b565b5b6112818254610e6f565b61128c8282856111cc565b5f60209050601f8311600181146112bd575f84156112ab578287015190505b6112b5858261123a565b86555061131c565b601f1984166112cb866110b8565b5f5b828110156112f2578489015182556001820191506020850194506020810190506112cd565b8683101561130f578489015161130b601f89168261121e565b8355505b6001600288020188555050505b505050505050565b5f61132e82610ab0565b915061133983610ab0565b92508282039050818111156113515761135061102b565b5b92915050565b828183375f83830152505050565b5f6113708385610b18565b935061137d838584611357565b61138683610b36565b840190509392505050565b5f6060820190506113a45f830187610b7e565b81810360208301526113b7818587611365565b90506113c66040830184610b7e565b95945050505050565b7f496e636f7272656374206d656d626572736869702066656500000000000000005f82015250565b5f611403601883610b18565b915061140e826113cf565b602082019050919050565b5f6020820190508181035f830152611430816113f7565b9050919050565b7f416c72656164792061206d656d626572000000000000000000000000000000005f82015250565b5f61146b601083610b18565b915061147682611437565b602082019050919050565b5f6020820190508181035f8301526114988161145f565b9050919050565b7f566f74696e6720706572696f64206f76657200000000000000000000000000005f82015250565b5f6114d3601283610b18565b91506114de8261149f565b602082019050919050565b5f6020820190508181035f830152611500816114c7565b9050919050565b7f416c726561647920766f746564000000000000000000000000000000000000005f82015250565b5f61153b600d83610b18565b915061154682611507565b602082019050919050565b5f6020820190508181035f8301526115688161152f565b9050919050565b5f61157982610ab0565b91507fffffffffffffffffffffffffffffffffffffffffffffffffffffffffffffffff82036115ab576115aa61102b565b5b600182019050919050565b5f6060820190506115c95f830186610b7e565b6115d66020830185610d5b565b6115e36040830184610b98565b94935050505056fea26469706673582212202a94c855981d062c03eb7f8e5f282b4c48a85be6c42ecfee46b2c4da49d0fb0564736f6c634300081a0033",
					"opcodes": "PUSH1 0x80 PUSH1 0x40 MSTORE CALLVALUE DUP1 ISZERO PUSH1 0xE JUMPI PUSH0 DUP1 REVERT JUMPDEST POP PUSH1 0x40 MLOAD PUSH2 0x16FF CODESIZE SUB DUP1 PUSH2 0x16FF DUP4 CODECOPY DUP2 DUP2 ADD PUSH1 0x40 MSTORE DUP2 ADD SWAP1 PUSH1 0x2E SWAP2 SWAP1 PUSH1 0xAB JUMP JUMPDEST CALLER PUSH0 DUP1 PUSH2 0x100 EXP DUP2 SLOAD DUP2 PUSH20 0xFFFFFFFFFFFFFFFFFFFFFFFFFFFFFFFFFFFFFFFF MUL NOT AND SWAP1 DUP4 PUSH20 0xFFFFFFFFFFFFFFFFFFFFFFFFFFFFFFFFFFFFFFFF AND MUL OR SWAP1 SSTORE POP DUP1 PUSH1 0x1 DUP2 SWAP1 SSTORE POP POP PUSH1 0xD1 JUMP JUMPDEST PUSH0 DUP1 REVERT JUMPDEST PUSH0 DUP2 SWAP1 POP SWAP2 SWAP1 POP JUMP JUMPDEST PUSH1 0x8D DUP2 PUSH1 0x7D JUMP JUMPDEST DUP2 EQ PUSH1 0x96 JUMPI PUSH0 DUP1 REVERT JUMPDEST POP JUMP JUMPDEST PUSH0 DUP2 MLOAD SWAP1 POP PUSH1 0xA5 DUP2 PUSH1 0x86 JUMP JUMPDEST SWAP3 SWAP2 POP POP JUMP JUMPDEST PUSH0 PUSH1 0x20 DUP3 DUP5 SUB SLT ISZERO PUSH1 0xBD JUMPI PUSH1 0xBC PUSH1 0x79 JUMP JUMPDEST JUMPDEST PUSH0 PUSH1 0xC8 DUP5 DUP3 DUP6 ADD PUSH1 0x99 JUMP JUMPDEST SWAP2 POP POP SWAP3 SWAP2 POP POP JUMP JUMPDEST PUSH2 0x1621 DUP1 PUSH2 0xDE PUSH0 CODECOPY PUSH0 RETURN INVALID PUSH1 0x80 PUSH1 0x40 MSTORE PUSH1 0x4 CALLDATASIZE LT PUSH2 0x85 JUMPI PUSH0 CALLDATALOAD PUSH1 0xE0 SHR DUP1 PUSH4 0x8DA5CB5B GT PUSH2 0x58 JUMPI DUP1 PUSH4 0x8DA5CB5B EQ PUSH2 0x155 JUMPI DUP1 PUSH4 0x9F2524EE EQ PUSH2 0x17F JUMPI DUP1 PUSH4 0xB688A363 EQ PUSH2 0x1BB JUMPI DUP1 PUSH4 0xC713A289 EQ PUSH2 0x1C5 JUMPI DUP1 PUSH4 0xC9D27AFE EQ PUSH2 0x1EF JUMPI PUSH2 0x85 JUMP JUMPDEST DUP1 PUSH4 0x13CF08B EQ PUSH2 0x89 JUMPI DUP1 PUSH4 0x8AE4B0C EQ PUSH2 0xC9 JUMPI DUP1 PUSH4 0xD61B519 EQ PUSH2 0x105 JUMPI DUP1 PUSH4 0x35FACF78 EQ PUSH2 0x12D JUMPI JUMPDEST PUSH0 DUP1 REVERT JUMPDEST CALLVALUE DUP1 ISZERO PUSH2 0x94 JUMPI PUSH0 DUP1 REVERT JUMPDEST POP PUSH2 0xAF PUSH1 0x4 DUP1 CALLDATASIZE SUB DUP2 ADD SWAP1 PUSH2 0xAA SWAP2 SWAP1 PUSH2 0xAE3 JUMP JUMPDEST PUSH2 0x217 JUMP JUMPDEST PUSH1 0x40 MLOAD PUSH2 0xC0 SWAP6 SWAP5 SWAP4 SWAP3 SWAP2 SWAP1 PUSH2 0xBA7 JUMP JUMPDEST PUSH1 0x40 MLOAD DUP1 SWAP2 SUB SWAP1 RETURN JUMPDEST CALLVALUE DUP1 ISZERO PUSH2 0xD4 JUMPI PUSH0 DUP1 REVERT JUMPDEST POP PUSH2 0xEF PUSH1 0x4 DUP1 CALLDATASIZE SUB DUP2 ADD SWAP1 PUSH2 0xEA SWAP2 SWAP1 PUSH2 0xC59 JUMP JUMPDEST PUSH2 0x2EA JUMP JUMPDEST PUSH1 0x40 MLOAD PUSH2 0xFC SWAP2 SWAP1 PUSH2 0xC84 JUMP JUMPDEST PUSH1 0x40 MLOAD DUP1 SWAP2 SUB SWAP1 RETURN JUMPDEST CALLVALUE DUP1 ISZERO PUSH2 0x110 JUMPI PUSH0 DUP1 REVERT JUMPDEST POP PUSH2 0x12B PUSH1 0x4 DUP1 CALLDATASIZE SUB DUP2 ADD SWAP1 PUSH2 0x126 SWAP2 SWAP1 PUSH2 0xAE3 JUMP JUMPDEST PUSH2 0x307 JUMP JUMPDEST STOP JUMPDEST CALLVALUE DUP1 ISZERO PUSH2 0x138 JUMPI PUSH0 DUP1 REVERT JUMPDEST POP PUSH2 0x153 PUSH1 0x4 DUP1 CALLDATASIZE SUB DUP2 ADD SWAP1 PUSH2 0x14E SWAP2 SWAP1 PUSH2 0xCFE JUMP JUMPDEST PUSH2 0x4B3 JUMP JUMPDEST STOP JUMPDEST CALLVALUE DUP1 ISZERO PUSH2 0x160 JUMPI PUSH0 DUP1 REVERT JUMPDEST POP PUSH2 0x169 PUSH2 0x68C JUMP JUMPDEST PUSH1 0x40 MLOAD PUSH2 0x176 SWAP2 SWAP1 PUSH2 0xD6A JUMP JUMPDEST PUSH1 0x40 MLOAD DUP1 SWAP2 SUB SWAP1 RETURN JUMPDEST CALLVALUE DUP1 ISZERO PUSH2 0x18A JUMPI PUSH0 DUP1 REVERT JUMPDEST POP PUSH2 0x1A5 PUSH1 0x4 DUP1 CALLDATASIZE SUB DUP2 ADD SWAP1 PUSH2 0x1A0 SWAP2 SWAP1 PUSH2 0xD83 JUMP JUMPDEST PUSH2 0x6AF JUMP JUMPDEST PUSH1 0x40 MLOAD PUSH2 0x1B2 SWAP2 SWAP1 PUSH2 0xC84 JUMP JUMPDEST PUSH1 0x40 MLOAD DUP1 SWAP2 SUB SWAP1 RETURN JUMPDEST PUSH2 0x1C3 PUSH2 0x6D9 JUMP JUMPDEST STOP JUMPDEST CALLVALUE DUP1 ISZERO PUSH2 0x1D0 JUMPI PUSH0 DUP1 REVERT JUMPDEST POP PUSH2 0x1D9 PUSH2 0x835 JUMP JUMPDEST PUSH1 0x40 MLOAD PUSH2 0x1E6 SWAP2 SWAP1 PUSH2 0xDC1 JUMP JUMPDEST PUSH1 0x40 MLOAD DUP1 SWAP2 SUB SWAP1 RETURN JUMPDEST CALLVALUE DUP1 ISZERO PUSH2 0x1FA JUMPI PUSH0 DUP1 REVERT JUMPDEST POP PUSH2 0x215 PUSH1 0x4 DUP1 CALLDATASIZE SUB DUP2 ADD SWAP1 PUSH2 0x210 SWAP2 SWAP1 PUSH2 0xE04 JUMP JUMPDEST PUSH2 0x83B JUMP JUMPDEST STOP JUMPDEST PUSH1 0x3 DUP2 DUP2 SLOAD DUP2 LT PUSH2 0x226 JUMPI PUSH0 DUP1 REVERT JUMPDEST SWAP1 PUSH0 MSTORE PUSH1 0x20 PUSH0 KECCAK256 SWAP1 PUSH1 0x5 MUL ADD PUSH0 SWAP2 POP SWAP1 POP DUP1 PUSH0 ADD DUP1 SLOAD PUSH2 0x245 SWAP1 PUSH2 0xE6F JUMP JUMPDEST DUP1 PUSH1 0x1F ADD PUSH1 0x20 DUP1 SWAP2 DIV MUL PUSH1 0x20 ADD PUSH1 0x40 MLOAD SWAP1 DUP2 ADD PUSH1 0x40 MSTORE DUP1 SWAP3 SWAP2 SWAP1 DUP2 DUP2 MSTORE PUSH1 0x20 ADD DUP3 DUP1 SLOAD PUSH2 0x271 SWAP1 PUSH2 0xE6F JUMP JUMPDEST DUP1 ISZERO PUSH2 0x2BC JUMPI DUP1 PUSH1 0x1F LT PUSH2 0x293 JUMPI PUSH2 0x100 DUP1 DUP4 SLOAD DIV MUL DUP4 MSTORE SWAP2 PUSH1 0x20 ADD SWAP2 PUSH2 0x2BC JUMP JUMPDEST DUP3 ADD SWAP2 SWAP1 PUSH0 MSTORE PUSH1 0x20 PUSH0 KECCAK256 SWAP1 JUMPDEST DUP2 SLOAD DUP2 MSTORE SWAP1 PUSH1 0x1 ADD SWAP1 PUSH1 0x20 ADD DUP1 DUP4 GT PUSH2 0x29F JUMPI DUP3 SWAP1 SUB PUSH1 0x1F AND DUP3 ADD SWAP2 JUMPDEST POP POP POP POP POP SWAP1 DUP1 PUSH1 0x1 ADD SLOAD SWAP1 DUP1 PUSH1 0x2 ADD SLOAD SWAP1 DUP1 PUSH1 0x3 ADD SLOAD SWAP1 DUP1 PUSH1 0x4 ADD PUSH0 SWAP1 SLOAD SWAP1 PUSH2 0x100 EXP SWAP1 DIV PUSH1 0xFF AND SWAP1 POP DUP6 JUMP JUMPDEST PUSH1 0x2 PUSH1 0x20 MSTORE DUP1 PUSH0 MSTORE PUSH1 0x40 PUSH0 KECCAK256 PUSH0 SWAP2 POP SLOAD SWAP1 PUSH2 0x100 EXP SWAP1 DIV PUSH1 0xFF AND DUP2 JUMP JUMPDEST PUSH1 0x2 PUSH0 CALLER PUSH20 0xFFFFFFFFFFFFFFFFFFFFFFFFFFFFFFFFFFFFFFFF AND PUSH20 0xFFFFFFFFFFFFFFFFFFFFFFFFFFFFFFFFFFFFFFFF AND DUP2 MSTORE PUSH1 0x20 ADD SWAP1 DUP2 MSTORE PUSH1 0x20 ADD PUSH0 KECCAK256 PUSH0 SWAP1 SLOAD SWAP1 PUSH2 0x100 EXP SWAP1 DIV PUSH1 0xFF AND PUSH2 0x390 JUMPI PUSH1 0x40 MLOAD PUSH32 0x8C379A000000000000000000000000000000000000000000000000000000000 DUP2 MSTORE PUSH1 0x4 ADD PUSH2 0x387 SWAP1 PUSH2 0xEE9 JUMP JUMPDEST PUSH1 0x40 MLOAD DUP1 SWAP2 SUB SWAP1 REVERT JUMPDEST PUSH0 PUSH1 0x3 DUP3 DUP2 SLOAD DUP2 LT PUSH2 0x3A5 JUMPI PUSH2 0x3A4 PUSH2 0xF07 JUMP JUMPDEST JUMPDEST SWAP1 PUSH0 MSTORE PUSH1 0x20 PUSH0 KECCAK256 SWAP1 PUSH1 0x5 MUL ADD SWAP1 POP DUP1 PUSH1 0x1 ADD SLOAD TIMESTAMP LT ISZERO PUSH2 0x3FA JUMPI PUSH1 0x40 MLOAD PUSH32 0x8C379A000000000000000000000000000000000000000000000000000000000 DUP2 MSTORE PUSH1 0x4 ADD PUSH2 0x3F1 SWAP1 PUSH2 0xF7E JUMP JUMPDEST PUSH1 0x40 MLOAD DUP1 SWAP2 SUB SWAP1 REVERT JUMPDEST DUP1 PUSH1 0x4 ADD PUSH0 SWAP1 SLOAD SWAP1 PUSH2 0x100 EXP SWAP1 DIV PUSH1 0xFF AND ISZERO PUSH2 0x44B JUMPI PUSH1 0x40 MLOAD PUSH32 0x8C379A000000000000000000000000000000000000000000000000000000000 DUP2 MSTORE PUSH1 0x4 ADD PUSH2 0x442 SWAP1 PUSH2 0xFE6 JUMP JUMPDEST PUSH1 0x40 MLOAD DUP1 SWAP2 SUB SWAP1 REVERT JUMPDEST PUSH1 0x1 DUP2 PUSH1 0x4 ADD PUSH0 PUSH2 0x100 EXP DUP2 SLOAD DUP2 PUSH1 0xFF MUL NOT AND SWAP1 DUP4 ISZERO ISZERO MUL OR SWAP1 SSTORE POP PUSH0 DUP2 PUSH1 0x3 ADD SLOAD DUP3 PUSH1 0x2 ADD SLOAD GT SWAP1 POP PUSH32 0x948F4A9CD986F1118C3FBD459F7A22B23C0693E1CA3EF06A6A8BE5AA7D39CC03 DUP4 DUP3 PUSH1 0x40 MLOAD PUSH2 0x4A6 SWAP3 SWAP2 SWAP1 PUSH2 0x1004 JUMP JUMPDEST PUSH1 0x40 MLOAD DUP1 SWAP2 SUB SWAP1 LOG1 POP POP POP JUMP JUMPDEST PUSH1 0x2 PUSH0 CALLER PUSH20 0xFFFFFFFFFFFFFFFFFFFFFFFFFFFFFFFFFFFFFFFF AND PUSH20 0xFFFFFFFFFFFFFFFFFFFFFFFFFFFFFFFFFFFFFFFF AND DUP2 MSTORE PUSH1 0x20 ADD SWAP1 DUP2 MSTORE PUSH1 0x20 ADD PUSH0 KECCAK256 PUSH0 SWAP1 SLOAD SWAP1 PUSH2 0x100 EXP SWAP1 DIV PUSH1 0xFF AND PUSH2 0x53C JUMPI PUSH1 0x40 MLOAD PUSH32 0x8C379A000000000000000000000000000000000000000000000000000000000 DUP2 MSTORE PUSH1 0x4 ADD PUSH2 0x533 SWAP1 PUSH2 0xEE9 JUMP JUMPDEST PUSH1 0x40 MLOAD DUP1 SWAP2 SUB SWAP1 REVERT JUMPDEST PUSH1 0x3 PUSH1 0x40 MLOAD DUP1 PUSH1 0xA0 ADD PUSH1 0x40 MSTORE DUP1 DUP6 DUP6 DUP1 DUP1 PUSH1 0x1F ADD PUSH1 0x20 DUP1 SWAP2 DIV MUL PUSH1 0x20 ADD PUSH1 0x40 MLOAD SWAP1 DUP2 ADD PUSH1 0x40 MSTORE DUP1 SWAP4 SWAP3 SWAP2 SWAP1 DUP2 DUP2 MSTORE PUSH1 0x20 ADD DUP4 DUP4 DUP1 DUP3 DUP5 CALLDATACOPY PUSH0 DUP2 DUP5 ADD MSTORE PUSH1 0x1F NOT PUSH1 0x1F DUP3 ADD AND SWAP1 POP DUP1 DUP4 ADD SWAP3 POP POP POP POP POP POP POP DUP2 MSTORE PUSH1 0x20 ADD DUP4 TIMESTAMP PUSH2 0x59E SWAP2 SWAP1 PUSH2 0x1058 JUMP JUMPDEST DUP2 MSTORE PUSH1 0x20 ADD PUSH0 DUP2 MSTORE PUSH1 0x20 ADD PUSH0 DUP2 MSTORE PUSH1 0x20 ADD PUSH0 ISZERO ISZERO DUP2 MSTORE POP SWAP1 DUP1 PUSH1 0x1 DUP2 SLOAD ADD DUP1 DUP3 SSTORE DUP1 SWAP2 POP POP PUSH1 0x1 SWAP1 SUB SWAP1 PUSH0 MSTORE PUSH1 0x20 PUSH0 KECCAK256 SWAP1 PUSH1 0x5 MUL ADD PUSH0 SWAP1 SWAP2 SWAP1 SWAP2 SWAP1 SWAP2 POP PUSH0 DUP3 ADD MLOAD DUP2 PUSH0 ADD SWAP1 DUP2 PUSH2 0x5EE SWAP2 SWAP1 PUSH2 0x1255 JUMP JUMPDEST POP PUSH1 0x20 DUP3 ADD MLOAD DUP2 PUSH1 0x1 ADD SSTORE PUSH1 0x40 DUP3 ADD MLOAD DUP2 PUSH1 0x2 ADD SSTORE PUSH1 0x60 DUP3 ADD MLOAD DUP2 PUSH1 0x3 ADD SSTORE PUSH1 0x80 DUP3 ADD MLOAD DUP2 PUSH1 0x4 ADD PUSH0 PUSH2 0x100 EXP DUP2 SLOAD DUP2 PUSH1 0xFF MUL NOT AND SWAP1 DUP4 ISZERO ISZERO MUL OR SWAP1 SSTORE POP POP POP PUSH32 0xF5DC0DA9AFA6D080780A49FD8C680F03D2DDF3C067CD6D0C85360C096644D2D3 PUSH1 0x1 PUSH1 0x3 DUP1 SLOAD SWAP1 POP PUSH2 0x661 SWAP2 SWAP1 PUSH2 0x1324 JUMP JUMPDEST DUP5 DUP5 DUP5 TIMESTAMP PUSH2 0x66F SWAP2 SWAP1 PUSH2 0x1058 JUMP JUMPDEST PUSH1 0x40 MLOAD PUSH2 0x67F SWAP5 SWAP4 SWAP3 SWAP2 SWAP1 PUSH2 0x1391 JUMP JUMPDEST PUSH1 0x40 MLOAD DUP1 SWAP2 SUB SWAP1 LOG1 POP POP POP JUMP JUMPDEST PUSH0 DUP1 SLOAD SWAP1 PUSH2 0x100 EXP SWAP1 DIV PUSH20 0xFFFFFFFFFFFFFFFFFFFFFFFFFFFFFFFFFFFFFFFF AND DUP2 JUMP JUMPDEST PUSH1 0x4 PUSH1 0x20 MSTORE DUP2 PUSH0 MSTORE PUSH1 0x40 PUSH0 KECCAK256 PUSH1 0x20 MSTORE DUP1 PUSH0 MSTORE PUSH1 0x40 PUSH0 KECCAK256 PUSH0 SWAP2 POP SWAP2 POP SWAP1 SLOAD SWAP1 PUSH2 0x100 EXP SWAP1 DIV PUSH1 0xFF AND DUP2 JUMP JUMPDEST PUSH1 0x1 SLOAD CALLVALUE EQ PUSH2 0x71D JUMPI PUSH1 0x40 MLOAD PUSH32 0x8C379A000000000000000000000000000000000000000000000000000000000 DUP2 MSTORE PUSH1 0x4 ADD PUSH2 0x714 SWAP1 PUSH2 0x1419 JUMP JUMPDEST PUSH1 0x40 MLOAD DUP1 SWAP2 SUB SWAP1 REVERT JUMPDEST PUSH1 0x2 PUSH0 CALLER PUSH20 0xFFFFFFFFFFFFFFFFFFFFFFFFFFFFFFFFFFFFFFFF AND PUSH20 0xFFFFFFFFFFFFFFFFFFFFFFFFFFFFFFFFFFFFFFFF AND DUP2 MSTORE PUSH1 0x20 ADD SWAP1 DUP2 MSTORE PUSH1 0x20 ADD PUSH0 KECCAK256 PUSH0 SWAP1 SLOAD SWAP1 PUSH2 0x100 EXP SWAP1 DIV PUSH1 0xFF AND ISZERO PUSH2 0x7A7 JUMPI PUSH1 0x40 MLOAD PUSH32 0x8C379A000000000000000000000000000000000000000000000000000000000 DUP2 MSTORE PUSH1 0x4 ADD PUSH2 0x79E SWAP1 PUSH2 0x1481 JUMP JUMPDEST PUSH1 0x40 MLOAD DUP1 SWAP2 SUB SWAP1 REVERT JUMPDEST PUSH1 0x1 PUSH1 0x2 PUSH0 CALLER PUSH20 0xFFFFFFFFFFFFFFFFFFFFFFFFFFFFFFFFFFFFFFFF AND PUSH20 0xFFFFFFFFFFFFFFFFFFFFFFFFFFFFFFFFFFFFFFFF AND DUP2 MSTORE PUSH1 0x20 ADD SWAP1 DUP2 MSTORE PUSH1 0x20 ADD PUSH0 KECCAK256 PUSH0 PUSH2 0x100 EXP DUP2 SLOAD DUP2 PUSH1 0xFF MUL NOT AND SWAP1 DUP4 ISZERO ISZERO MUL OR SWAP1 SSTORE POP PUSH32 0x7073AFA60B48E833A1A66EBB442BC8E0D19E9F3CC05F34BDCD1DA22C8D87F275 CALLER PUSH1 0x40 MLOAD PUSH2 0x82B SWAP2 SWAP1 PUSH2 0xD6A JUMP JUMPDEST PUSH1 0x40 MLOAD DUP1 SWAP2 SUB SWAP1 LOG1 JUMP JUMPDEST PUSH1 0x1 SLOAD DUP2 JUMP JUMPDEST PUSH1 0x2 PUSH0 CALLER PUSH20 0xFFFFFFFFFFFFFFFFFFFFFFFFFFFFFFFFFFFFFFFF AND PUSH20 0xFFFFFFFFFFFFFFFFFFFFFFFFFFFFFFFFFFFFFFFF AND DUP2 MSTORE PUSH1 0x20 ADD SWAP1 DUP2 MSTORE PUSH1 0x20 ADD PUSH0 KECCAK256 PUSH0 SWAP1 SLOAD SWAP1 PUSH2 0x100 EXP SWAP1 DIV PUSH1 0xFF AND PUSH2 0x8C4 JUMPI PUSH1 0x40 MLOAD PUSH32 0x8C379A000000000000000000000000000000000000000000000000000000000 DUP2 MSTORE PUSH1 0x4 ADD PUSH2 0x8BB SWAP1 PUSH2 0xEE9 JUMP JUMPDEST PUSH1 0x40 MLOAD DUP1 SWAP2 SUB SWAP1 REVERT JUMPDEST PUSH0 PUSH1 0x3 DUP4 DUP2 SLOAD DUP2 LT PUSH2 0x8D9 JUMPI PUSH2 0x8D8 PUSH2 0xF07 JUMP JUMPDEST JUMPDEST SWAP1 PUSH0 MSTORE PUSH1 0x20 PUSH0 KECCAK256 SWAP1 PUSH1 0x5 MUL ADD SWAP1 POP DUP1 PUSH1 0x1 ADD SLOAD TIMESTAMP LT PUSH2 0x92D JUMPI PUSH1 0x40 MLOAD PUSH32 0x8C379A000000000000000000000000000000000000000000000000000000000 DUP2 MSTORE PUSH1 0x4 ADD PUSH2 0x924 SWAP1 PUSH2 0x14E9 JUMP JUMPDEST PUSH1 0x40 MLOAD DUP1 SWAP2 SUB SWAP1 REVERT JUMPDEST PUSH1 0x4 PUSH0 CALLER PUSH20 0xFFFFFFFFFFFFFFFFFFFFFFFFFFFFFFFFFFFFFFFF AND PUSH20 0xFFFFFFFFFFFFFFFFFFFFFFFFFFFFFFFFFFFFFFFF AND DUP2 MSTORE PUSH1 0x20 ADD SWAP1 DUP2 MSTORE PUSH1 0x20 ADD PUSH0 KECCAK256 PUSH0 DUP5 DUP2 MSTORE PUSH1 0x20 ADD SWAP1 DUP2 MSTORE PUSH1 0x20 ADD PUSH0 KECCAK256 PUSH0 SWAP1 SLOAD SWAP1 PUSH2 0x100 EXP SWAP1 DIV PUSH1 0xFF AND ISZERO PUSH2 0x9C6 JUMPI PUSH1 0x40 MLOAD PUSH32 0x8C379A000000000000000000000000000000000000000000000000000000000 DUP2 MSTORE PUSH1 0x4 ADD PUSH2 0x9BD SWAP1 PUSH2 0x1551 JUMP JUMPDEST PUSH1 0x40 MLOAD DUP1 SWAP2 SUB SWAP1 REVERT JUMPDEST PUSH1 0x1 PUSH1 0x4 PUSH0 CALLER PUSH20 0xFFFFFFFFFFFFFFFFFFFFFFFFFFFFFFFFFFFFFFFF AND PUSH20 0xFFFFFFFFFFFFFFFFFFFFFFFFFFFFFFFFFFFFFFFF AND DUP2 MSTORE PUSH1 0x20 ADD SWAP1 DUP2 MSTORE PUSH1 0x20 ADD PUSH0 KECCAK256 PUSH0 DUP6 DUP2 MSTORE PUSH1 0x20 ADD SWAP1 DUP2 MSTORE PUSH1 0x20 ADD PUSH0 KECCAK256 PUSH0 PUSH2 0x100 EXP DUP2 SLOAD DUP2 PUSH1 0xFF MUL NOT AND SWAP1 DUP4 ISZERO ISZERO MUL OR SWAP1 SSTORE POP DUP2 ISZERO PUSH2 0xA4E JUMPI DUP1 PUSH1 0x2 ADD PUSH0 DUP2 SLOAD DUP1 SWAP3 SWAP2 SWAP1 PUSH2 0xA44 SWAP1 PUSH2 0x156F JUMP JUMPDEST SWAP2 SWAP1 POP SSTORE POP PUSH2 0xA68 JUMP JUMPDEST DUP1 PUSH1 0x3 ADD PUSH0 DUP2 SLOAD DUP1 SWAP3 SWAP2 SWAP1 PUSH2 0xA62 SWAP1 PUSH2 0x156F JUMP JUMPDEST SWAP2 SWAP1 POP SSTORE POP JUMPDEST PUSH32 0xF2913DBE661EE2ACC4A046D8FBCDC792373BDA34C41C6086484B5345E5785E5F DUP4 CALLER DUP5 PUSH1 0x40 MLOAD PUSH2 0xA9B SWAP4 SWAP3 SWAP2 SWAP1 PUSH2 0x15B6 JUMP JUMPDEST PUSH1 0x40 MLOAD DUP1 SWAP2 SUB SWAP1 LOG1 POP POP POP JUMP JUMPDEST PUSH0 DUP1 REVERT JUMPDEST PUSH0 DUP1 REVERT JUMPDEST PUSH0 DUP2 SWAP1 POP SWAP2 SWAP1 POP JUMP JUMPDEST PUSH2 0xAC2 DUP2 PUSH2 0xAB0 JUMP JUMPDEST DUP2 EQ PUSH2 0xACC JUMPI PUSH0 DUP1 REVERT JUMPDEST POP JUMP JUMPDEST PUSH0 DUP2 CALLDATALOAD SWAP1 POP PUSH2 0xADD DUP2 PUSH2 0xAB9 JUMP JUMPDEST SWAP3 SWAP2 POP POP JUMP JUMPDEST PUSH0 PUSH1 0x20 DUP3 DUP5 SUB SLT ISZERO PUSH2 0xAF8 JUMPI PUSH2 0xAF7 PUSH2 0xAA8 JUMP JUMPDEST JUMPDEST PUSH0 PUSH2 0xB05 DUP5 DUP3 DUP6 ADD PUSH2 0xACF JUMP JUMPDEST SWAP2 POP POP SWAP3 SWAP2 POP POP JUMP JUMPDEST PUSH0 DUP2 MLOAD SWAP1 POP SWAP2 SWAP1 POP JUMP JUMPDEST PUSH0 DUP3 DUP3 MSTORE PUSH1 0x20 DUP3 ADD SWAP1 POP SWAP3 SWAP2 POP POP JUMP JUMPDEST DUP3 DUP2 DUP4 MCOPY PUSH0 DUP4 DUP4 ADD MSTORE POP POP POP JUMP JUMPDEST PUSH0 PUSH1 0x1F NOT PUSH1 0x1F DUP4 ADD AND SWAP1 POP SWAP2 SWAP1 POP JUMP JUMPDEST PUSH0 PUSH2 0xB50 DUP3 PUSH2 0xB0E JUMP JUMPDEST PUSH2 0xB5A DUP2 DUP6 PUSH2 0xB18 JUMP JUMPDEST SWAP4 POP PUSH2 0xB6A DUP2 DUP6 PUSH1 0x20 DUP7 ADD PUSH2 0xB28 JUMP JUMPDEST PUSH2 0xB73 DUP2 PUSH2 0xB36 JUMP JUMPDEST DUP5 ADD SWAP2 POP POP SWAP3 SWAP2 POP POP JUMP JUMPDEST PUSH2 0xB87 DUP2 PUSH2 0xAB0 JUMP JUMPDEST DUP3 MSTORE POP POP JUMP JUMPDEST PUSH0 DUP2 ISZERO ISZERO SWAP1 POP SWAP2 SWAP1 POP JUMP JUMPDEST PUSH2 0xBA1 DUP2 PUSH2 0xB8D JUMP JUMPDEST DUP3 MSTORE POP POP JUMP JUMPDEST PUSH0 PUSH1 0xA0 DUP3 ADD SWAP1 POP DUP2 DUP2 SUB PUSH0 DUP4 ADD MSTORE PUSH2 0xBBF DUP2 DUP9 PUSH2 0xB46 JUMP JUMPDEST SWAP1 POP PUSH2 0xBCE PUSH1 0x20 DUP4 ADD DUP8 PUSH2 0xB7E JUMP JUMPDEST PUSH2 0xBDB PUSH1 0x40 DUP4 ADD DUP7 PUSH2 0xB7E JUMP JUMPDEST PUSH2 0xBE8 PUSH1 0x60 DUP4 ADD DUP6 PUSH2 0xB7E JUMP JUMPDEST PUSH2 0xBF5 PUSH1 0x80 DUP4 ADD DUP5 PUSH2 0xB98 JUMP JUMPDEST SWAP7 SWAP6 POP POP POP POP POP POP JUMP JUMPDEST PUSH0 PUSH20 0xFFFFFFFFFFFFFFFFFFFFFFFFFFFFFFFFFFFFFFFF DUP3 AND SWAP1 POP SWAP2 SWAP1 POP JUMP JUMPDEST PUSH0 PUSH2 0xC28 DUP3 PUSH2 0xBFF JUMP JUMPDEST SWAP1 POP SWAP2 SWAP1 POP JUMP JUMPDEST PUSH2 0xC38 DUP2 PUSH2 0xC1E JUMP JUMPDEST DUP2 EQ PUSH2 0xC42 JUMPI PUSH0 DUP1 REVERT JUMPDEST POP JUMP JUMPDEST PUSH0 DUP2 CALLDATALOAD SWAP1 POP PUSH2 0xC53 DUP2 PUSH2 0xC2F JUMP JUMPDEST SWAP3 SWAP2 POP POP JUMP JUMPDEST PUSH0 PUSH1 0x20 DUP3 DUP5 SUB SLT ISZERO PUSH2 0xC6E JUMPI PUSH2 0xC6D PUSH2 0xAA8 JUMP JUMPDEST JUMPDEST PUSH0 PUSH2 0xC7B DUP5 DUP3 DUP6 ADD PUSH2 0xC45 JUMP JUMPDEST SWAP2 POP POP SWAP3 SWAP2 POP POP JUMP JUMPDEST PUSH0 PUSH1 0x20 DUP3 ADD SWAP1 POP PUSH2 0xC97 PUSH0 DUP4 ADD DUP5 PUSH2 0xB98 JUMP JUMPDEST SWAP3 SWAP2 POP POP JUMP JUMPDEST PUSH0 DUP1 REVERT JUMPDEST PUSH0 DUP1 REVERT JUMPDEST PUSH0 DUP1 REVERT JUMPDEST PUSH0 DUP1 DUP4 PUSH1 0x1F DUP5 ADD SLT PUSH2 0xCBE JUMPI PUSH2 0xCBD PUSH2 0xC9D JUMP JUMPDEST JUMPDEST DUP3 CALLDATALOAD SWAP1 POP PUSH8 0xFFFFFFFFFFFFFFFF DUP2 GT ISZERO PUSH2 0xCDB JUMPI PUSH2 0xCDA PUSH2 0xCA1 JUMP JUMPDEST JUMPDEST PUSH1 0x20 DUP4 ADD SWAP2 POP DUP4 PUSH1 0x1 DUP3 MUL DUP4 ADD GT ISZERO PUSH2 0xCF7 JUMPI PUSH2 0xCF6 PUSH2 0xCA5 JUMP JUMPDEST JUMPDEST SWAP3 POP SWAP3 SWAP1 POP JUMP JUMPDEST PUSH0 DUP1 PUSH0 PUSH1 0x40 DUP5 DUP7 SUB SLT ISZERO PUSH2 0xD15 JUMPI PUSH2 0xD14 PUSH2 0xAA8 JUMP JUMPDEST JUMPDEST PUSH0 DUP5 ADD CALLDATALOAD PUSH8 0xFFFFFFFFFFFFFFFF DUP2 GT ISZERO PUSH2 0xD32 JUMPI PUSH2 0xD31 PUSH2 0xAAC JUMP JUMPDEST JUMPDEST PUSH2 0xD3E DUP7 DUP3 DUP8 ADD PUSH2 0xCA9 JUMP JUMPDEST SWAP4 POP SWAP4 POP POP PUSH1 0x20 PUSH2 0xD51 DUP7 DUP3 DUP8 ADD PUSH2 0xACF JUMP JUMPDEST SWAP2 POP POP SWAP3 POP SWAP3 POP SWAP3 JUMP JUMPDEST PUSH2 0xD64 DUP2 PUSH2 0xC1E JUMP JUMPDEST DUP3 MSTORE POP POP JUMP JUMPDEST PUSH0 PUSH1 0x20 DUP3 ADD SWAP1 POP PUSH2 0xD7D PUSH0 DUP4 ADD DUP5 PUSH2 0xD5B JUMP JUMPDEST SWAP3 SWAP2 POP POP JUMP JUMPDEST PUSH0 DUP1 PUSH1 0x40 DUP4 DUP6 SUB SLT ISZERO PUSH2 0xD99 JUMPI PUSH2 0xD98 PUSH2 0xAA8 JUMP JUMPDEST JUMPDEST PUSH0 PUSH2 0xDA6 DUP6 DUP3 DUP7 ADD PUSH2 0xC45 JUMP JUMPDEST SWAP3 POP POP PUSH1 0x20 PUSH2 0xDB7 DUP6 DUP3 DUP7 ADD PUSH2 0xACF JUMP JUMPDEST SWAP2 POP POP SWAP3 POP SWAP3 SWAP1 POP JUMP JUMPDEST PUSH0 PUSH1 0x20 DUP3 ADD SWAP1 POP PUSH2 0xDD4 PUSH0 DUP4 ADD DUP5 PUSH2 0xB7E JUMP JUMPDEST SWAP3 SWAP2 POP POP JUMP JUMPDEST PUSH2 0xDE3 DUP2 PUSH2 0xB8D JUMP JUMPDEST DUP2 EQ PUSH2 0xDED JUMPI PUSH0 DUP1 REVERT JUMPDEST POP JUMP JUMPDEST PUSH0 DUP2 CALLDATALOAD SWAP1 POP PUSH2 0xDFE DUP2 PUSH2 0xDDA JUMP JUMPDEST SWAP3 SWAP2 POP POP JUMP JUMPDEST PUSH0 DUP1 PUSH1 0x40 DUP4 DUP6 SUB SLT ISZERO PUSH2 0xE1A JUMPI PUSH2 0xE19 PUSH2 0xAA8 JUMP JUMPDEST JUMPDEST PUSH0 PUSH2 0xE27 DUP6 DUP3 DUP7 ADD PUSH2 0xACF JUMP JUMPDEST SWAP3 POP POP PUSH1 0x20 PUSH2 0xE38 DUP6 DUP3 DUP7 ADD PUSH2 0xDF0 JUMP JUMPDEST SWAP2 POP POP SWAP3 POP SWAP3 SWAP1 POP JUMP JUMPDEST PUSH32 0x4E487B7100000000000000000000000000000000000000000000000000000000 PUSH0 MSTORE PUSH1 0x22 PUSH1 0x4 MSTORE PUSH1 0x24 PUSH0 REVERT JUMPDEST PUSH0 PUSH1 0x2 DUP3 DIV SWAP1 POP PUSH1 0x1 DUP3 AND DUP1 PUSH2 0xE86 JUMPI PUSH1 0x7F DUP3 AND SWAP2 POP JUMPDEST PUSH1 0x20 DUP3 LT DUP2 SUB PUSH2 0xE99 JUMPI PUSH2 0xE98 PUSH2 0xE42 JUMP JUMPDEST JUMPDEST POP SWAP2 SWAP1 POP JUMP JUMPDEST PUSH32 0x4E6F742061206D656D6265720000000000000000000000000000000000000000 PUSH0 DUP3 ADD MSTORE POP JUMP JUMPDEST PUSH0 PUSH2 0xED3 PUSH1 0xC DUP4 PUSH2 0xB18 JUMP JUMPDEST SWAP2 POP PUSH2 0xEDE DUP3 PUSH2 0xE9F JUMP JUMPDEST PUSH1 0x20 DUP3 ADD SWAP1 POP SWAP2 SWAP1 POP JUMP JUMPDEST PUSH0 PUSH1 0x20 DUP3 ADD SWAP1 POP DUP2 DUP2 SUB PUSH0 DUP4 ADD MSTORE PUSH2 0xF00 DUP2 PUSH2 0xEC7 JUMP JUMPDEST SWAP1 POP SWAP2 SWAP1 POP JUMP JUMPDEST PUSH32 0x4E487B7100000000000000000000000000000000000000000000000000000000 PUSH0 MSTORE PUSH1 0x32 PUSH1 0x4 MSTORE PUSH1 0x24 PUSH0 REVERT JUMPDEST PUSH32 0x566F74696E6720706572696F64206E6F74206F76657200000000000000000000 PUSH0 DUP3 ADD MSTORE POP JUMP JUMPDEST PUSH0 PUSH2 0xF68 PUSH1 0x16 DUP4 PUSH2 0xB18 JUMP JUMPDEST SWAP2 POP PUSH2 0xF73 DUP3 PUSH2 0xF34 JUMP JUMPDEST PUSH1 0x20 DUP3 ADD SWAP1 POP SWAP2 SWAP1 POP JUMP JUMPDEST PUSH0 PUSH1 0x20 DUP3 ADD SWAP1 POP DUP2 DUP2 SUB PUSH0 DUP4 ADD MSTORE PUSH2 0xF95 DUP2 PUSH2 0xF5C JUMP JUMPDEST SWAP1 POP SWAP2 SWAP1 POP JUMP JUMPDEST PUSH32 0x50726F706F73616C20616C726561647920657865637574656400000000000000 PUSH0 DUP3 ADD MSTORE POP JUMP JUMPDEST PUSH0 PUSH2 0xFD0 PUSH1 0x19 DUP4 PUSH2 0xB18 JUMP JUMPDEST SWAP2 POP PUSH2 0xFDB DUP3 PUSH2 0xF9C JUMP JUMPDEST PUSH1 0x20 DUP3 ADD SWAP1 POP SWAP2 SWAP1 POP JUMP JUMPDEST PUSH0 PUSH1 0x20 DUP3 ADD SWAP1 POP DUP2 DUP2 SUB PUSH0 DUP4 ADD MSTORE PUSH2 0xFFD DUP2 PUSH2 0xFC4 JUMP JUMPDEST SWAP1 POP SWAP2 SWAP1 POP JUMP JUMPDEST PUSH0 PUSH1 0x40 DUP3 ADD SWAP1 POP PUSH2 0x1017 PUSH0 DUP4 ADD DUP6 PUSH2 0xB7E JUMP JUMPDEST PUSH2 0x1024 PUSH1 0x20 DUP4 ADD DUP5 PUSH2 0xB98 JUMP JUMPDEST SWAP4 SWAP3 POP POP POP JUMP JUMPDEST PUSH32 0x4E487B7100000000000000000000000000000000000000000000000000000000 PUSH0 MSTORE PUSH1 0x11 PUSH1 0x4 MSTORE PUSH1 0x24 PUSH0 REVERT JUMPDEST PUSH0 PUSH2 0x1062 DUP3 PUSH2 0xAB0 JUMP JUMPDEST SWAP2 POP PUSH2 0x106D DUP4 PUSH2 0xAB0 JUMP JUMPDEST SWAP3 POP DUP3 DUP3 ADD SWAP1 POP DUP1 DUP3 GT ISZERO PUSH2 0x1085 JUMPI PUSH2 0x1084 PUSH2 0x102B JUMP JUMPDEST JUMPDEST SWAP3 SWAP2 POP POP JUMP JUMPDEST PUSH32 0x4E487B7100000000000000000000000000000000000000000000000000000000 PUSH0 MSTORE PUSH1 0x41 PUSH1 0x4 MSTORE PUSH1 0x24 PUSH0 REVERT JUMPDEST PUSH0 DUP2 SWAP1 POP DUP2 PUSH0 MSTORE PUSH1 0x20 PUSH0 KECCAK256 SWAP1 POP SWAP2 SWAP1 POP JUMP JUMPDEST PUSH0 PUSH1 0x20 PUSH1 0x1F DUP4 ADD DIV SWAP1 POP SWAP2 SWAP1 POP JUMP JUMPDEST PUSH0 DUP3 DUP3 SHL SWAP1 POP SWAP3 SWAP2 POP POP JUMP JUMPDEST PUSH0 PUSH1 0x8 DUP4 MUL PUSH2 0x1114 PUSH32 0xFFFFFFFFFFFFFFFFFFFFFFFFFFFFFFFFFFFFFFFFFFFFFFFFFFFFFFFFFFFFFFFF DUP3 PUSH2 0x10D9 JUMP JUMPDEST PUSH2 0x111E DUP7 DUP4 PUSH2 0x10D9 JUMP JUMPDEST SWAP6 POP DUP1 NOT DUP5 AND SWAP4 POP DUP1 DUP7 AND DUP5 OR SWAP3 POP POP POP SWAP4 SWAP3 POP POP POP JUMP JUMPDEST PUSH0 DUP2 SWAP1 POP SWAP2 SWAP1 POP JUMP JUMPDEST PUSH0 PUSH2 0x1159 PUSH2 0x1154 PUSH2 0x114F DUP5 PUSH2 0xAB0 JUMP JUMPDEST PUSH2 0x1136 JUMP JUMPDEST PUSH2 0xAB0 JUMP JUMPDEST SWAP1 POP SWAP2 SWAP1 POP JUMP JUMPDEST PUSH0 DUP2 SWAP1 POP SWAP2 SWAP1 POP JUMP JUMPDEST PUSH2 0x1172 DUP4 PUSH2 0x113F JUMP JUMPDEST PUSH2 0x1186 PUSH2 0x117E DUP3 PUSH2 0x1160 JUMP JUMPDEST DUP5 DUP5 SLOAD PUSH2 0x10E5 JUMP JUMPDEST DUP3 SSTORE POP POP POP POP JUMP JUMPDEST PUSH0 SWAP1 JUMP JUMPDEST PUSH2 0x119A PUSH2 0x118E JUMP JUMPDEST PUSH2 0x11A5 DUP2 DUP5 DUP5 PUSH2 0x1169 JUMP JUMPDEST POP POP POP JUMP JUMPDEST JUMPDEST DUP2 DUP2 LT ISZERO PUSH2 0x11C8 JUMPI PUSH2 0x11BD PUSH0 DUP3 PUSH2 0x1192 JUMP JUMPDEST PUSH1 0x1 DUP2 ADD SWAP1 POP PUSH2 0x11AB JUMP JUMPDEST POP POP JUMP JUMPDEST PUSH1 0x1F DUP3 GT ISZERO PUSH2 0x120D JUMPI PUSH2 0x11DE DUP2 PUSH2 0x10B8 JUMP JUMPDEST PUSH2 0x11E7 DUP5 PUSH2 0x10CA JUMP JUMPDEST DUP2 ADD PUSH1 0x20 DUP6 LT ISZERO PUSH2 0x11F6 JUMPI DUP2 SWAP1 POP JUMPDEST PUSH2 0x120A PUSH2 0x1202 DUP6 PUSH2 0x10CA JUMP JUMPDEST DUP4 ADD DUP3 PUSH2 0x11AA JUMP JUMPDEST POP POP JUMPDEST POP POP POP JUMP JUMPDEST PUSH0 DUP3 DUP3 SHR SWAP1 POP SWAP3 SWAP2 POP POP JUMP JUMPDEST PUSH0 PUSH2 0x122D PUSH0 NOT DUP5 PUSH1 0x8 MUL PUSH2 0x1212 JUMP JUMPDEST NOT DUP1 DUP4 AND SWAP2 POP POP SWAP3 SWAP2 POP POP JUMP JUMPDEST PUSH0 PUSH2 0x1245 DUP4 DUP4 PUSH2 0x121E JUMP JUMPDEST SWAP2 POP DUP3 PUSH1 0x2 MUL DUP3 OR SWAP1 POP SWAP3 SWAP2 POP POP JUMP JUMPDEST PUSH2 0x125E DUP3 PUSH2 0xB0E JUMP JUMPDEST PUSH8 0xFFFFFFFFFFFFFFFF DUP2 GT ISZERO PUSH2 0x1277 JUMPI PUSH2 0x1276 PUSH2 0x108B JUMP JUMPDEST JUMPDEST PUSH2 0x1281 DUP3 SLOAD PUSH2 0xE6F JUMP JUMPDEST PUSH2 0x128C DUP3 DUP3 DUP6 PUSH2 0x11CC JUMP JUMPDEST PUSH0 PUSH1 0x20 SWAP1 POP PUSH1 0x1F DUP4 GT PUSH1 0x1 DUP2 EQ PUSH2 0x12BD JUMPI PUSH0 DUP5 ISZERO PUSH2 0x12AB JUMPI DUP3 DUP8 ADD MLOAD SWAP1 POP JUMPDEST PUSH2 0x12B5 DUP6 DUP3 PUSH2 0x123A JUMP JUMPDEST DUP7 SSTORE POP PUSH2 0x131C JUMP JUMPDEST PUSH1 0x1F NOT DUP5 AND PUSH2 0x12CB DUP7 PUSH2 0x10B8 JUMP JUMPDEST PUSH0 JUMPDEST DUP3 DUP2 LT ISZERO PUSH2 0x12F2 JUMPI DUP5 DUP10 ADD MLOAD DUP3 SSTORE PUSH1 0x1 DUP3 ADD SWAP2 POP PUSH1 0x20 DUP6 ADD SWAP5 POP PUSH1 0x20 DUP2 ADD SWAP1 POP PUSH2 0x12CD JUMP JUMPDEST DUP7 DUP4 LT ISZERO PUSH2 0x130F JUMPI DUP5 DUP10 ADD MLOAD PUSH2 0x130B PUSH1 0x1F DUP10 AND DUP3 PUSH2 0x121E JUMP JUMPDEST DUP4 SSTORE POP JUMPDEST PUSH1 0x1 PUSH1 0x2 DUP9 MUL ADD DUP9 SSTORE POP POP POP JUMPDEST POP POP POP POP POP POP JUMP JUMPDEST PUSH0 PUSH2 0x132E DUP3 PUSH2 0xAB0 JUMP JUMPDEST SWAP2 POP PUSH2 0x1339 DUP4 PUSH2 0xAB0 JUMP JUMPDEST SWAP3 POP DUP3 DUP3 SUB SWAP1 POP DUP2 DUP2 GT ISZERO PUSH2 0x1351 JUMPI PUSH2 0x1350 PUSH2 0x102B JUMP JUMPDEST JUMPDEST SWAP3 SWAP2 POP POP JUMP JUMPDEST DUP3 DUP2 DUP4 CALLDATACOPY PUSH0 DUP4 DUP4 ADD MSTORE POP POP POP JUMP JUMPDEST PUSH0 PUSH2 0x1370 DUP4 DUP6 PUSH2 0xB18 JUMP JUMPDEST SWAP4 POP PUSH2 0x137D DUP4 DUP6 DUP5 PUSH2 0x1357 JUMP JUMPDEST PUSH2 0x1386 DUP4 PUSH2 0xB36 JUMP JUMPDEST DUP5 ADD SWAP1 POP SWAP4 SWAP3 POP POP POP JUMP JUMPDEST PUSH0 PUSH1 0x60 DUP3 ADD SWAP1 POP PUSH2 0x13A4 PUSH0 DUP4 ADD DUP8 PUSH2 0xB7E JUMP JUMPDEST DUP2 DUP2 SUB PUSH1 0x20 DUP4 ADD MSTORE PUSH2 0x13B7 DUP2 DUP6 DUP8 PUSH2 0x1365 JUMP JUMPDEST SWAP1 POP PUSH2 0x13C6 PUSH1 0x40 DUP4 ADD DUP5 PUSH2 0xB7E JUMP JUMPDEST SWAP6 SWAP5 POP POP POP POP POP JUMP JUMPDEST PUSH32 0x496E636F7272656374206D656D62657273686970206665650000000000000000 PUSH0 DUP3 ADD MSTORE POP JUMP JUMPDEST PUSH0 PUSH2 0x1403 PUSH1 0x18 DUP4 PUSH2 0xB18 JUMP JUMPDEST SWAP2 POP PUSH2 0x140E DUP3 PUSH2 0x13CF JUMP JUMPDEST PUSH1 0x20 DUP3 ADD SWAP1 POP SWAP2 SWAP1 POP JUMP JUMPDEST PUSH0 PUSH1 0x20 DUP3 ADD SWAP1 POP DUP2 DUP2 SUB PUSH0 DUP4 ADD MSTORE PUSH2 0x1430 DUP2 PUSH2 0x13F7 JUMP JUMPDEST SWAP1 POP SWAP2 SWAP1 POP JUMP JUMPDEST PUSH32 0x416C72656164792061206D656D62657200000000000000000000000000000000 PUSH0 DUP3 ADD MSTORE POP JUMP JUMPDEST PUSH0 PUSH2 0x146B PUSH1 0x10 DUP4 PUSH2 0xB18 JUMP JUMPDEST SWAP2 POP PUSH2 0x1476 DUP3 PUSH2 0x1437 JUMP JUMPDEST PUSH1 0x20 DUP3 ADD SWAP1 POP SWAP2 SWAP1 POP JUMP JUMPDEST PUSH0 PUSH1 0x20 DUP3 ADD SWAP1 POP DUP2 DUP2 SUB PUSH0 DUP4 ADD MSTORE PUSH2 0x1498 DUP2 PUSH2 0x145F JUMP JUMPDEST SWAP1 POP SWAP2 SWAP1 POP JUMP JUMPDEST PUSH32 0x566F74696E6720706572696F64206F7665720000000000000000000000000000 PUSH0 DUP3 ADD MSTORE POP JUMP JUMPDEST PUSH0 PUSH2 0x14D3 PUSH1 0x12 DUP4 PUSH2 0xB18 JUMP JUMPDEST SWAP2 POP PUSH2 0x14DE DUP3 PUSH2 0x149F JUMP JUMPDEST PUSH1 0x20 DUP3 ADD SWAP1 POP SWAP2 SWAP1 POP JUMP JUMPDEST PUSH0 PUSH1 0x20 DUP3 ADD SWAP1 POP DUP2 DUP2 SUB PUSH0 DUP4 ADD MSTORE PUSH2 0x1500 DUP2 PUSH2 0x14C7 JUMP JUMPDEST SWAP1 POP SWAP2 SWAP1 POP JUMP JUMPDEST PUSH32 0x416C726561647920766F74656400000000000000000000000000000000000000 PUSH0 DUP3 ADD MSTORE POP JUMP JUMPDEST PUSH0 PUSH2 0x153B PUSH1 0xD DUP4 PUSH2 0xB18 JUMP JUMPDEST SWAP2 POP PUSH2 0x1546 DUP3 PUSH2 0x1507 JUMP JUMPDEST PUSH1 0x20 DUP3 ADD SWAP1 POP SWAP2 SWAP1 POP JUMP JUMPDEST PUSH0 PUSH1 0x20 DUP3 ADD SWAP1 POP DUP2 DUP2 SUB PUSH0 DUP4 ADD MSTORE PUSH2 0x1568 DUP2 PUSH2 0x152F JUMP JUMPDEST SWAP1 POP SWAP2 SWAP1 POP JUMP JUMPDEST PUSH0 PUSH2 0x1579 DUP3 PUSH2 0xAB0 JUMP JUMPDEST SWAP2 POP PUSH32 0xFFFFFFFFFFFFFFFFFFFFFFFFFFFFFFFFFFFFFFFFFFFFFFFFFFFFFFFFFFFFFFFF DUP3 SUB PUSH2 0x15AB JUMPI PUSH2 0x15AA PUSH2 0x102B JUMP JUMPDEST JUMPDEST PUSH1 0x1 DUP3 ADD SWAP1 POP SWAP2 SWAP1 POP JUMP JUMPDEST PUSH0 PUSH1 0x60 DUP3 ADD SWAP1 POP PUSH2 0x15C9 PUSH0 DUP4 ADD DUP7 PUSH2 0xB7E JUMP JUMPDEST PUSH2 0x15D6 PUSH1 0x20 DUP4 ADD DUP6 PUSH2 0xD5B JUMP JUMPDEST PUSH2 0x15E3 PUSH1 0x40 DUP4 ADD DUP5 PUSH2 0xB98 JUMP JUMPDEST SWAP5 SWAP4 POP POP POP POP JUMP INVALID LOG2 PUSH5 0x6970667358 0x22 SLT KECCAK256 0x2A SWAP5 0xC8 SSTORE SWAP9 SAR MOD 0x2C SUB 0xEB PUSH32 0x8E5F282B4C48A85BE6C42ECFEE46B2C4DA49D0FB0564736F6C634300081A0033 "
				},
				"gasEstimates": {
					"creation": {
						"codeDepositCost": "1133000",
						"executionCost": "infinite",
						"totalCost": "infinite"
					},
					"external": {
						"createProposal(string,uint256)": "infinite",
						"executeProposal(uint256)": "infinite",
						"join()": "30115",
						"members(address)": "2856",
						"membershipFee()": "2491",
						"owner()": "2505",
						"proposals(uint256)": "infinite",
						"vote(uint256,bool)": "infinite",
						"votes(address,uint256)": "3093"
					}
				},
				"methodIdentifiers": {
					"createProposal(string,uint256)": "35facf78",
					"executeProposal(uint256)": "0d61b519",
					"join()": "b688a363",
					"members(address)": "08ae4b0c",
					"membershipFee()": "c713a289",
					"owner()": "8da5cb5b",
					"proposals(uint256)": "013cf08b",
					"vote(uint256,bool)": "c9d27afe",
					"votes(address,uint256)": "9f2524ee"
				}
			},
			"storageLayout": {
				"storage": [
					{
						"astId": 14,
						"contract": "BasicDAO.sol:BasicDAO",
						"label": "owner",
						"offset": 0,
						"slot": "0",
						"type": "t_address"
					},
					{
						"astId": 16,
						"contract": "BasicDAO.sol:BasicDAO",
						"label": "membershipFee",
						"offset": 0,
						"slot": "1",
						"type": "t_uint256"
					},
					{
						"astId": 20,
						"contract": "BasicDAO.sol:BasicDAO",
						"label": "members",
						"offset": 0,
						"slot": "2",
						"type": "t_mapping(t_address,t_bool)"
					},
					{
						"astId": 24,
						"contract": "BasicDAO.sol:BasicDAO",
						"label": "proposals",
						"offset": 0,
						"slot": "3",
						"type": "t_array(t_struct(Proposal)12_storage)dyn_storage"
					},
					{
						"astId": 30,
						"contract": "BasicDAO.sol:BasicDAO",
						"label": "votes",
						"offset": 0,
						"slot": "4",
						"type": "t_mapping(t_address,t_mapping(t_uint256,t_bool))"
					}
				],
				"types": {
					"t_address": {
						"encoding": "inplace",
						"label": "address",
						"numberOfBytes": "20"
					},
					"t_array(t_struct(Proposal)12_storage)dyn_storage": {
						"base": "t_struct(Proposal)12_storage",
						"encoding": "dynamic_array",
						"label": "struct BasicDAO.Proposal[]",
						"numberOfBytes": "32"
					},
					"t_bool": {
						"encoding": "inplace",
						"label": "bool",
						"numberOfBytes": "1"
					},
					"t_mapping(t_address,t_bool)": {
						"encoding": "mapping",
						"key": "t_address",
						"label": "mapping(address => bool)",
						"numberOfBytes": "32",
						"value": "t_bool"
					},
					"t_mapping(t_address,t_mapping(t_uint256,t_bool))": {
						"encoding": "mapping",
						"key": "t_address",
						"label": "mapping(address => mapping(uint256 => bool))",
						"numberOfBytes": "32",
						"value": "t_mapping(t_uint256,t_bool)"
					},
					"t_mapping(t_uint256,t_bool)": {
						"encoding": "mapping",
						"key": "t_uint256",
						"label": "mapping(uint256 => bool)",
						"numberOfBytes": "32",
						"value": "t_bool"
					},
					"t_string_storage": {
						"encoding": "bytes",
						"label": "string",
						"numberOfBytes": "32"
					},
					"t_struct(Proposal)12_storage": {
						"encoding": "inplace",
						"label": "struct BasicDAO.Proposal",
						"members": [
							{
								"astId": 3,
								"contract": "BasicDAO.sol:BasicDAO",
								"label": "description",
								"offset": 0,
								"slot": "0",
								"type": "t_string_storage"
							},
							{
								"astId": 5,
								"contract": "BasicDAO.sol:BasicDAO",
								"label": "deadline",
								"offset": 0,
								"slot": "1",
								"type": "t_uint256"
							},
							{
								"astId": 7,
								"contract": "BasicDAO.sol:BasicDAO",
								"label": "yesVotes",
								"offset": 0,
								"slot": "2",
								"type": "t_uint256"
							},
							{
								"astId": 9,
								"contract": "BasicDAO.sol:BasicDAO",
								"label": "noVotes",
								"offset": 0,
								"slot": "3",
								"type": "t_uint256"
							},
							{
								"astId": 11,
								"contract": "BasicDAO.sol:BasicDAO",
								"label": "executed",
								"offset": 0,
								"slot": "4",
								"type": "t_bool"
							}
						],
						"numberOfBytes": "160"
					},
					"t_uint256": {
						"encoding": "inplace",
						"label": "uint256",
						"numberOfBytes": "32"
					}
				}
			},
			"userdoc": {
				"kind": "user",
				"methods": {},
				"version": 1
			}
		}
	}
}